:0200000480007A
:1000000073700430735040309711001093818185D4
:1000100017010110130101FF97020000938242278C
:100020007390523073F051301705000013054509E5
:10003000970500009385C5086300B50217460000C8
:100040001306C60063FAC5008322050023A05500ED
:1000500011059105E3EAC5FE17450000130505FFEC
:1000600097050010938505FA1386018163FAC50090
:100070008322050023A0550011059105E3EAC5FE82
:1000800013850181938581A16377B5002320050045
:100090001105E36DB5FEA523172500001305055FC7
:1000A000EF20E05DEF20E061EF00D00C01458145DD
:0A00B000EF106057EF00F01D01A0F3
:1000BC00011122CE00102326A4FE938701A125470F
:1000CC0098C3FD573E85724405618280011122CE92
:1000DC0000102326A4FE2324B4FE0327C4FE854768
:1000EC006307F7000327C4FE89476318F7008327CB
:1000FC0084FE0967D8C3814731A0938701A12547A6
:10010C0098C3FD573E85724405618280011122CE51
:10011C0000102326A4FE85473E857244056182802B
:10012C00011122CE00102326A4FE2324B4FE232288
:10013C00C4FE81473E85724405618280797106D682
:10014C0022D40018232EA4FC232CB4FC232AC4FC98
:10015C008327C4FD99C3FD5739A8832784FD232623
:10016C00F4FE373501107924AA873E878327C4FE15
:10017C002380E70085473E85B2502254456182803A
:10018C00011122CE00102326A4FE9707001093879E
:10019C00A7EC98438327C4FE3E97938781A16360A5
:1001AC00F70297070010938727EB98438327C4FE29
:1001BC003E9797F700109387276463F4E700FD5789
:1001CC0005A897070010938727E998438327C4FE57
:1001DC003E9797070010938727E898C3970700105E
:1001EC00938787E798438327C4FEB307F040BA97F9
:1001FC003E85724405618280797106D622D400183E
:10020C00232EA4FC232CB4FC232AC4FC0325C4FDFC
:10021C00EF20806DAA8799E3FD57B1A8832784FD51
:10022C002324F4FE232604FE3DA8032784FE832703
:10023C00C4FEBA9703C70700A9476316F700B54574
:10024C0037350110B522032784FE8327C4FEBA97E5
:10025C0083C70700BE8537350110992A8327C4FE52
:10026C0085072326F4FE0327C4FE832744FDE36E93
:10027C00F7FA832744FD3E85B250225445618280B3
:10028C005D7106C012C216C41AC61EC82ACA2ECC6C
:10029C0032CE36D03AD23ED442DC46DEF2C0F6C282
:1002AC00FAC4FEC6F322103416D6F322203416D824
:1002BC00F322003016DA732520348A85C921B25214
:1002CC0073901234C25273902234D2527390023013
:1002DC0082401242A2423243C2435245E245724628
:1002EC0082561257A2576258F258064E964E264F17
:1002FC00B64F616173002030011122CE001023260D
:10030C00A4FE2324B4FE8327C4FE93B7170093F7EF
:10031C00F70F99C3FD5719A88327C4FED84F83271D
:10032C0084FE5D8F8327C4FED8CF81473E857244FF
:10033C0005618280797122D60018232EA4FC232C0F
:10034C00B4FC8327C4FD93B7170093F7F70F99C339
:10035C00FD5799A897070010938747D09843832798
:10036C0084FDB357F702FD172326F4FE8327C4FD43
:10037C0013070008D8C78327C4FEA18313F7F70F10
:10038C008327C4FDD8C38327C4FE13F7F70F832735
:10039C00C4FD98C38327C4FD1307600C98C783273B
:1003AC00C4FD0D47D8C781473E85325445618280D4
:1003BC00011122CE00102326A4FEAE87A305F4FE65
:1003CC008327C4FE93B7170093F7F70F99C3FD5714
:1003DC0031A801008327C4FEDC4B93F70702FDDB39
:1003EC000347B4FE8327C4FE98C381473E857244FD
:1003FC0005618280797122D60018232EA4FC8327F4
:10040C00C4FD93B7170093F7F70F81C79307F00F4D
:10041C0005A001008327C4FDDC4B858BE5DF83271A
:10042C00C4FD9C432326F4FE8327C4FE93F7F70FE9
:10043C003E85325445618280411122C60008A16775
:10044C003E85324441018280397106DE22DC26DA97
:10045C0080002326A4FCCD372326A4FE37070002F8
:10046C00B167BA9703A787FF83A7C7FF2324E4FECE
:10047C0037070002B167BA9703A787FF83A7C7FFA7
:10048C002322E4FEF32700B0BE84A6872320F4FECB
:10049C00032744FE832784FEE30CF7FC3707000296
:1004AC00B167BA9703A787FF83A7C7FF832744FECB
:1004BC00B307F740232EF4FCF32700B0BE84268745
:1004CC00832704FEB307F740232CF4FC0327C4FD59
:1004DC008327C4FCE364F7FC032784FD8327C4FD56
:1004EC003357F7028327C4FE3307F702832684FDB4
:1004FC008327C4FDB3F6F6028327C4FEB386F60247
:10050C008327C4FDB3D7F602BA973E85F2506254E6
:10051C00D25421618280011106CE22CC00100545F7
:10052C002537130540060D372326A4FE8327C4FE6A
:10053C003E85F240624405618280397106DE22DC20
:10054C0080002326A4FC8327C4FC3E868146935757
:10055C0016019398F600B3E817011318F60013066A
:10056C00803E81464285C685EF10705A2A87AE8739
:10057C002324E4FE2326F4FE37070002B167BA9762
:10058C0003A787FF83A7C7FF2320E4FE2322F4FEE3
:10059C0037070002B167BA9703A887FF83A8C7FF84
:1005AC00032504FE832544FE3306A840B287B337E7
:1005BC00F800B386B840B387F640BE86232CC4FC43
:1005CC00232ED4FC0327C4FE8327C4FDE3E2E7FCFF
:1005DC000327C4FE8327C4FD6318F700032784FE9A
:1005EC00832784FDE3E6E7FA0100F25062542161AF
:1005FC008280411122C6000897070010938707A636
:10060C0037B7C4041307074098C3010032444101B3
:10061C008280011106CE22CC00102326A4FE2324B6
:10062C00B4FE173500001305A546EF20602B83257B
:10063C00C4FE173500001305E546EF20A00EF32786
:10064C001034BE808687BE8517350000130585469D
:10065C00EF20400DF3273034BE808687BE851735DA
:10066C00000013052546EF20E00B01A0011106CE7A
:10067C0022CC00102326A4FE2324B4FE1735000040
:10068C0013054545EF20C0258325C4FE1735000012
:10069C0013054541EF200009F3271034BE808687EF
:1006AC00BE85173500001305E540EF20A007F327A2
:1006BC003034BE808687BE85173500001305854013
:1006CC00EF2040060100F240624405618280011176
:1006DC0022CE0010232604FE0DA0170700001307DE
:1006EC0087F39386C1848327C4FE8A07B69798C381
:1006FC008327C4FE85072326F4FE0327C4FEA947DF
:10070C00E3DDE7FC01000100724405618280011108
:10071C0022CE0010232604FE0DA01707000013079D
:10072C0027F5938681878327C4FE8A07B69798C3DB
:10073C008327C4FE85072326F4FE0327C4FEC14786
:10074C00E3DDE7FC232604FE0DA0170700001307CA
:10075C0027F29386C18B8327C4FE8A07B69798C36A
:10076C008327C4FE85072326F4FE0327C4FEA54772
:10077C00E3DDE7FC01000100724405618280397100
:10078C0006DE22DC26DA80002326A4FC2324B4FC1B
:10079C008327C4FC63DC070C232604FE0327C4FC5C
:1007AC008567FD17F98F2324F4FE032784FEAD47DC
:1007BC006319F708F32740F1BE84A6872322F4FEC1
:1007CC00832744FE1397C700B707200C9107BA97ED
:1007DC002320F4FE832704FE9C432324F4FE0327EA
:1007EC0084FEC14763E2E70813878187832784FE71
:1007FC008A07BA979C432326F4FE8327C4FE81CB39
:10080C008327C4FE832584FC0325C4FC829783279D
:10081C0084FE232EF4FCF32740F1BE84A687232C00
:10082C00F4FC832784FD1397C700B707200C9107AE
:10083C00BA97232AF4FC832744FD0327C4FD98C3ED
:10084C0025A01387C18B832784FE8A07BA979C4304
:10085C002326F4FE8327C4FE81CB8327C4FE832585
:10086C0084FC0325C4FC8297814739A0832584FC32
:10087C000325C4FC0128AA873E85F2506254D25449
:10088C0021618280797106D622D40018232EA4FC13
:10089C00232CB4FC0327C4FD8567FD17F98F232493
:1008AC00F4FE032784FEA94763ECE7001387C18499
:1008BC00832784FE8A07BA979C432326F4FE39A02B
:1008CC0097070000938727D52326F4FE8327C4FEC1
:1008DC0081CB8327C4FE832584FD0325C4FD829729
:1008EC0081473E85B250225445618280011106CE6B
:1008FC0022CC0010973700009387071F2322F4FEA9
:10090C00973700009387071F2324F4FE97370000C6
:10091C009387C71E2326F4FE173600001306461EC7
:10092C00973500009385851E173500001305C51EED
:10093C00EF10505F8327C4FEBE85173500001305EA
:10094C002520EF10305E97F7FF0F938727719C439C
:10095C00BE85173500001305E51FEF10B05C0100D4
:10096C00F240624405618280397106DE22DC26DAAF
:10097C00800055362A8797F7FF0F9387276E98C309
:10098C00B705030037250110853AF16793850720D9
:10099C00373501104532993F1D3B953BC547232602
:1009AC00F4FE232404FE61A8832784FE2322F4FE94
:1009BC00F32740F1BE84A6872320F4FE832704FE90
:1009CC0013977700832744FE95838A073E97B727B2
:1009DC00000CBA97232EF4FC8327C4FD9C43232CD4
:1009EC00F4FC832744FEFD8B0547B317F70093C730
:1009FC00F7FF3E87832784FDF98F232CF4FC832794
:100A0C00C4FD032784FD98C30100832784FE232A99
:100A1C00F4FC232804FC832744FD13972700B70715
:100A2C00000CBA972326F4FC8327C4FC032704FD8F
:100A3C0098C30100832784FE85072324F4FE032733
:100A4C00C4FE832784FEE3E1E7F6232404FCF327AA
:100A5C0040F1BE84A6872322F4FC832744FC139721
:100A6C00C700B707200CBA972320F4FC832704FC9B
:100A7C00032784FC98C3010001000100F25062546A
:100A8C00D25421618280011122CE00102326A4FEB3
:100A9C000100724405618280411122C600080100E8
:100AAC00324441018280411122C6000801003244C7
:100ABC0041018280797122D60018232EA4FC232CAC
:100ACC00B4FC8327C4FD032784FDFBE7E700232642
:100ADC00F4FE8327C4FE3E853254456182807971D1
:100AEC0022D60018232EA4FC232CB4FC8327C4FD8F
:100AFC00032784FDFBE7E7022326F4FE8327C4FECD
:100B0C003E85325445618280797122D60018232E9D
:100B1C00A4FC232CB4FC8327C4FD032784FDFBE732
:100B2C00E7042326F4FE8327C4FE3E853254456138
:100B3C008280797122D60018232EA4FC232CB4FCBD
:100B4C008327C4FD032784FDFBE7E7062326F4FE79
:100B5C008327C4FE3E85325445618280011106CE46
:100B6C0022CC00102326A4FE2324B4FE2322C4FE90
:100B7C00832744FE81EB832584FE0325C4FE1D3FA1
:100B8C00AA87B1A0032744FE85476319F700832584
:100B9C0084FE0325C4FEA137AA8715A8032744FEAB
:100BAC0089476319F700832584FE0325C4FEA93FFA
:100BBC00AA8731A8032744FE8D476319F7008325C4
:100BCC0084FE0325C4FEB537AA8711A081473E8554
:100BDC00F240624405618280797122D60018232E7E
:100BEC00A4FC232CB4FC8327C4FD032784FDFBE762
:100BFC00E7082326F4FE8327C4FE3E853254456164
:100C0C008280797122D60018232EA4FC232CB4FCEC
:100C1C008327C4FD032784FDFBE7E70A2326F4FEA4
:100C2C008327C4FE3E85325445618280797122D679
:100C3C000018232EA4FC232CB4FC8327C4FD03270B
:100C4C0084FDFBE7E70C2326F4FE8327C4FE3E85D8
:100C5C00325445618280797122D60018232EA4FC6F
:100C6C00232CB4FC8327C4FD032784FDFBE7E70E8C
:100C7C002326F4FE8327C4FE3E85325445618280D0
:100C8C00011106CE22CC00102326A4FE2324B4FE90
:100C9C002322C4FE832744FE81EB832584FE032597
:100CAC00C4FE1D3FAA87B1A0032744FE85476319E4
:100CBC00F700832584FE0325C4FEA137AA8715A857
:100CCC00032744FE89476319F700832584FE032517
:100CDC00C4FEA93FAA8731A8032744FE8D47631998
:100CEC00F700832584FE0325C4FEB537AA8711A01F
:100CFC0081473E85F240624405618280797122D63B
:100D0C000018232EA4FC232CB4FC232604FE8327DA
:100D1C0084FD8A078D070327C4FDBA9783C7070094
:100D2C0013978701832784FD8A0789078326C4FDCF
:100D3C00B69783C70700C2073E97832784FD8A07AF
:100D4C0085078326C4FDB69783C70700A207BA9709
:100D5C00032784FD0A07BA860327C4FD3697034789
:100D6C000700BA972326F4FE8327C4FE3E8532542F
:100D7C0045618280011106CE22CC26CA00102326A2
:100D8C00A4FE2324B4FE81450325C4FE853FAA841A
:100D9C008145032584FE9D37AA8733C7F4009387CA
:100DAC00018398C385450325C4FE893FAA848545E4
:100DBC00032584FEA137AA8733C7F40093874183A8
:100DCC0098C389450325C4FE153FAA84894503258C
:100DDC0084FE2D37AA8733C7F4009387818398C389
:100DEC008D450325C4FE193FAA848D45032584FE39
:100DFC003137AA8733C7F4009387C18398C393878D
:100E0C0001839C43BE8517350000130525D6EF10D2
:100E1C007011938741839C43BE85173500001305E1
:100E2C0025D6EF103010938781839C43BE851735F0
:100E3C000000130525D6EF10F00E9387C1839C4359
:100E4C00BE8517350000130525D6EF10B00D010037
:100E5C00F2406244D24405618280797106D622D474
:100E6C0000182326A4FE2324B4FE2322C4FE232030
:100E7C00D4FE232EE4FC0146832584FE0145F9397A
:100E8C002A879387018198C3938701819C430546E8
:100E9C00832544FE3E85D9312A879387018198C3E7
:100EAC00938701819C430946832504FE3E857D3151
:100EBC002A879387018198C3938701819C430D46B0
:100ECC008325C4FD3E8559392A879387018198C3B0
:100EDC000146832544FE014551312A879387418180
:100EEC0098C3938741819C430546832504FE3E8528
:100EFC00B5312A879387418198C3938741819C435D
:100F0C0009468325C4FD3E8591392A879387418103
:100F1C0098C3938741819C430D46832584FE3E856F
:100F2C0035392A879387418198C30146832504FE6E
:100F3C0001452D312A879387818198C393878181BD
:100F4C009C4305468325C4FD3E8509392A87938732
:100F5C00818198C3938781819C430946832584FEB4
:100F6C003E85ED3E2A879387818198C39387818143
:100F7C009C430D46832544FE3E85CD362A879387B8
:100F8C00818198C301468325C4FD0145C13E2A8752
:100F9C009387C18198C39387C1819C430546832560
:100FAC0084FE3E85653E2A879387C18198C39387CB
:100FBC00C1819C430946832544FE3E8545362A87DC
:100FCC009387C18198C39387C1819C430D46832528
:100FDC0004FE3E8561362A879387C18198C3010040
:100FEC00B250225445618280797106D622D4001801
:100FFC002326A4FE2324B4FE2322C4FE2320D4FEE5
:10100C00232EE4FC0146832584FE0145813E2A877C
:10101C009387018298C3938701829C43054683255D
:10102C0044FE3E85253E2A879387018298C3938789
:10103C0001829C430946832504FE3E8505362A879A
:10104C009387018298C3938701829C430D46832525
:10105C00C4FD3E8521362A879387018298C30146B9
:10106C00832544FE0145DD3C2A879387418298C342
:10107C00938741829C430546832504FE3E85F93CBB
:10108C002A879387418298C3938741829C43094660
:10109C008325C4FD3E85D9342A879387418298C322
:1010AC00938741829C430D46832584FE3E857D3487
:1010BC002A879387418298C30146832504FE014504
:1010CC00713C2A879387818298C3938781829C4342
:1010DC0005468325C4FD3E8551342A87938781823A
:1010EC0098C3938781829C430946832584FE3E8561
:1010FC00B5342A879387818298C3938781829C43D6
:10110C000D46832544FE3E85913C2A879387818238
:10111C0098C301468325C4FD014589342A879387EA
:10112C00C18298C39387C1829C430546832584FE64
:10113C003E85EFF0BFA22A879387C18298C393871D
:10114C00C1829C430946832544FE3E85EFF01FA1D6
:10115C002A879387C18298C39387C1829C430D468B
:10116C00832504FE3E85EFF07F9F2A879387C182FB
:10117C0098C30100B250225445618280797106D621
:10118C0022D400182326A4FE2324B4FE2322C4FE5A
:10119C002320D4FE232EE4FC0146832584FE014546
:1011AC00C5342A879387018298C3938701829C4315
:1011BC000546832544FE3E85E1342A8793870182C8
:1011CC0098C3938701829C430946832504FE3E8580
:1011DC00EFF01FAB2A879387018298C39387018214
:1011EC009C430D468325C4FD3E85EFF07FA92A87DD
:1011FC009387018298C30146832544FE0145EFF095
:10120C003FA82A879387418298C3938741829C4346
:10121C000546832504FE3E85EFF09FA62A8793871B
:10122C00418298C3938741829C4309468325C4FD20
:10123C003E85EFF0FFA42A879387418298C393875A
:10124C0041829C430D46832584FE3E85EFF05FA3CF
:10125C002A879387418298C30146832504FE014562
:10126C00EFF01FA22A879387818298C3938781828C
:10127C009C4305468325C4FD3E85EFF07FA02A875D
:10128C009387818298C3938781829C4309468325E7
:10129C0084FE3E85EFF0DF9E2A879387818298C378
:1012AC00938781829C430D46832544FE3E85EFF057
:1012BC003F9D2A879387818298C301468325C4FD6D
:1012CC000145EFF0FF9B2A879387C18298C39387D0
:1012DC00C1829C430546832584FE3E85EFF05F9AD0
:1012EC002A879387C18298C39387C1829C430946FE
:1012FC00832544FE3E85EFF0BF982A879387C182F1
:10130C0098C39387C1829C430D46832504FE3E857A
:10131C00EFF01F972A879387C18298C30100B250C0
:10132C00225445618280011106CE22CC0010232666
:10133C00A4FE2324B4FE8325C4FE032584FEEFF013
:10134C007FA3938701838C43938741839043938737
:10135C00818394439387C1839C433E871385418E3D
:10136C00EFF0BFAF938701818C439387418190430A
:10137C009387818194439387C1819C433E871385D6
:10138C00418F9D31938701828C4393874182904397
:10139C009387818294439387C1829C433E871385B4
:1013AC004190EFF09FAB938701818C4393874181F0
:1013BC0090439387818194439387C1819C433E875B
:1013CC00138541911531938701828C439387418218
:1013DC0090439387818294439387C1829C433E8739
:1013EC0013854192EFF07FA7938701818C439387FC
:1013FC00418190439387818194439387C1819C431E
:10140C003E8713854193CD36938701828C43938716
:10141C00418290439387818294439387C1829C43FA
:10142C003E8713854194EFF05FA3938701818C4332
:10143C009387418190439387818194439387C181A2
:10144C009C433E87138541954536938701828C4397
:10145C009387418290439387818294439387C1827F
:10146C009C433E8713854196EFF03F9F9387018104
:10147C008C439387418190439387818194439387D5
:10148C00C1819C433E8713854197CD399387018257
:10149C009C43BE851725000013054572EF1080286C
:1014AC00938741829C43BE85172500001305C571A7
:1014BC00EF104027938781829C43BE85172500003F
:1014CC0013054571EF1000269387C1829C43BE859E
:1014DC00172500001305C570EF10C0240100F24061
:1014EC00624405618280797122D60018232EA4FCF7
:1014FC00232CB4FC8327C4FD032784FDFBE7E710F2
:10150C002326F4FE8327C4FE3E8532544561828037
:10151C00797122D60018232EA4FC232CB4FC83272B
:10152C00C4FD032784FDFBE7E7122326F4FE832783
:10153C00C4FE3E85325445618280797106D622D430
:10154C000018232EA4FCC1472307F4FEA30704FEB6
:10155C0025A08347F4FE0327C4FDBA9783C7070071
:10156C00BE851725000013056568EF10A01B834787
:10157C00F4FE8507A307F4FE0347F4FE8347E4FE5D
:10158C00E369F7FC2945EF10801D0100B25022548D
:10159C0045618280517186D7A2D5801997270000AA
:1015AC00938707669043D4439847DC472320C4FEB7
:1015BC002322D4FE2324E4FE2326F4FE97270000E6
:1015CC00938707659043D4439847DC472328C4FC92
:1015DC00232AD4FC232CE4FC232EF4FC1725000036
:1015EC0013054561EF10C02F130704FE930704F198
:1015FC00BA853E85EF00607C130704FD930704F168
:10160C00BA853E85EF00504E930704FD3E85353775
:10161C000100BE502E546D61828049712326111633
:10162C00232481162322911623202117232E3115D2
:10163C00232C4115232A51152328611523267115B6
:10164C0023248115232291152320A115232EB113B8
:10165C00801A972700009387A75B9043D443984741
:10166C00DC472320C4F62322D4F62324E4F62326D5
:10167C00F4F6972700009387A7589043D4439847D4
:10168C00DC472328C4F4232AD4F4232CE4F4232E9B
:10169C00F4F4172500001305A558EF106024172546
:1016AC0000001305655AEF10A02317250000130541
:1016BC00A55AEF10E022172500001305E55CEF108A
:1016CC002022F32720B8BE8086872326F4F4F32744
:1016DC0020B0BE8086872324F4F4F32720B8BE8084
:1016EC0086872322F4F40327C4F4832744F4630885
:1016FC00F700F32720B0BE8086872324F4F48327D9
:10170C0044F42324F4EA232604EA832784EA9397F7
:10171C0007002322F4EA232004EA832784F4232CF1
:10172C00F4E8232E04E8032504EA832544EAAA8777
:10173C00032684E98326C4E93287D98F2328F4F65B
:10174C00AE873687D98F232AF4F6032704F783272D
:10175C0044F7232AE4FAF32700B8BE8086872320B7
:10176C00F4F4F32700B0BE808687232EF4F2F3271F
:10177C0000B8BE808687232CF4F2032704F4832759
:10178C0084F36308F700F32700B0BE808687232E0E
:10179C00F4F2832784F32320F4EC232204EC832734
:1017AC0004EC93970700232EF4EA232C04EA8327F6
:1017BC00C4F32328F4EA232A04EA032584EB8325C3
:1017CC00C4EBAA87032604EB832644EB3287D98F1C
:1017DC00232CF4F6AE873687D98F232EF4F6032705
:1017EC0084F78327C4F72328E4FA6D330327C4FB5B
:1017FC00832744FBB307F7402326F4FA032784FB23
:10180C00832704FBB307F7402324F4FA17250000C1
:10181C0013058544EF10C00C1725000013058548EF
:10182C00EF10000CF32720B8BE808687232AF4F231
:10183C00F32720B0BE8086872328F4F2F32720B844
:10184C00BE8086872326F4F2032744F38327C4F251
:10185C006308F700F32720B0BE8086872328F4F2B4
:10186C008327C4F2232CF4EC232E04EC832784ED81
:10187C0093970700232AF4EC232804EC832704F322
:10188C002324F4EC232604EC032504ED832544EDFA
:10189C00AA87032684EC8326C4EC3287D98F2320B5
:1018AC00F4F8AE873687D98F2322F4F8032704F88F
:1018BC00832744F8232AE4FAF32700B8BE808687EE
:1018CC002324F4F2F32700B0BE8086872322F4F29F
:1018DC00F32700B8BE8086872320F4F2032784F216
:1018EC00832704F26308F700F32700B0BE808687D5
:1018FC002322F4F2832704F22328F4EE232A04EEA5
:10190C00832704EF939707002326F4EE232404EE99
:10191C00832744F22320F4EE232204EE032584EEE5
:10192C008325C4EEAA87032604EE832644EE328771
:10193C00D98F2324F4F8AE873687D98F2326F4F871
:10194C00032784F88327C4F82328E4FA930704F5C3
:10195C0081453E85EFF08FBAAA84930704F585453F
:10196C003E85EFF0AFB9AA87BE852685AD3E9307BD
:10197C0004F589453E85EFF06FB8AA84930704F50A
:10198C008D453E85EFF08FB7AA87BE8526854936F3
:10199C00130704F6930704F5BA853E85EFF0BF985C
:1019AC00F32720B8BE808687232EF4F0F32720B0CF
:1019BC00BE808687232CF4F0F32720B8BE80868760
:1019CC00232AF4F00327C4F1832744F16308F700BA
:1019DC00F32720B0BE808687232CF4F0832744F1B4
:1019EC003E8C814C931D0C00014D832784F1232CDC
:1019FC00F4EE232E04EE032684EF8326C4EFB28785
:101A0C00B367FD002328F4F8B687B3E7FD00232A5B
:101A1C00F4F8032704F9832744F9232EE4FAF32777
:101A2C0000B8BE8086872328F4F0F32700B0BE8070
:101A3C0086872326F4F0F32700B8BE8086872324FC
:101A4C00F4F0032704F1832784F06308F700F327ED
:101A5C0000B0BE8086872326F4F0832784F03E896D
:101A6C008149931A0900014A8327C4F03E8B814BAC
:101A7C00B3676A01232CF4F8B3E77A01232EF4F848
:101A8C00032784F98327C4F9232CE4FA0327C4FB26
:101A9C00832744FBB307F7402322F4FA032784FB84
:101AAC00832704FBB307F7402320F4FA1725000023
:101ABC001305851AEF00D062172500001305452089
:101ACC00EF0010621725000013050521EF0050618F
:101ADC00032684FA8325C4FA1725000013058520F4
:101AEC00EF005044172500001305C521EF00505F8F
:101AFC00032604FA832544FA172500001305851ED6
:101B0C00EF0050421725000013058520EF00505DB3
:101B1C000545EFE09FA251BE397122DE80002326DD
:101B2C00A4FC2324B4FC232604FE61A88327C4FE52
:101B3C008A07032784FC3E978327C4FE8A078326E3
:101B4C00C4FCB697034707002380E7008327C4FE35
:101B5C008A078507032784FC3E978327C4FE8A07E0
:101B6C0085078326C4FCB697034707002380E7004C
:101B7C008327C4FE8A078907032784FC3E978327A3
:101B8C00C4FE8A0789078326C4FCB697034707005F
:101B9C002380E7008327C4FE8A078D07032784FC74
:101BAC003E978327C4FE8A078D078326C4FCB6970D
:101BBC00034707002380E7008327C4FE85072326FD
:101BCC00F4FE0327C4FE8D47E3F2E7F69147232684
:101BDC00F4FEC9AA8327C4FEFD178A072324F4FE4A
:101BEC000327C4FC832784FEBA9783C70700230E00
:101BFC00F4FC832784FE85070327C4FCBA9783C7AC
:101C0C000700A30EF4FC832784FE89070327C4FC7A
:101C1C00BA9783C70700230FF4FC832784FE8D0734
:101C2C000327C4FCBA9783C70700A30FF4FC8327D0
:101C3C00C4FE8D8BD5E78347C4FDA303F4FE834715
:101C4C00D4FD230EF4FC8347E4FDA30EF4FC834780
:101C5C00F4FD230FF4FC834774FEA30FF4FC8347BD
:101C6C00C4FD3E87972700009387870DBA9783C7DB
:101C7C000700230EF4FC8347D4FD3E879727000012
:101C8C009387070CBA9783C70700A30EF4FC83470E
:101C9C00E4FD3E87972700009387870ABA9783C78E
:101CAC000700230FF4FC8347F4FD3E8797270000C1
:101CBC0093870709BA9783C70700A30FF4FC034760
:101CCC00C4FD8327C4FE898397260000938646179C
:101CDC00B69783C70700B98F93F7F70F230EF4FC61
:101CEC008327C4FE8A072320F4FE8327C4FEF11742
:101CFC008A072324F4FE0327C4FC832784FEBA97A7
:101D0C0083C607000347C4FD0326C4FC832704FED7
:101D1C00B297358F1377F70F2380E700832784FE64
:101D2C0085070327C4FCBA9783C607000347D4FD75
:101D3C00832704FE85070326C4FCB297358F1377DF
:101D4C00F70F2380E700832784FE89070327C4FC51
:101D5C00BA9783C607000347E4FD832704FE89076F
:101D6C000326C4FCB297358F1377F70F2380E70057
:101D7C00832784FE8D070327C4FCBA9783C607000C
:101D8C000347F4FD832704FE8D070326C4FCB2979A
:101D9C00358F1377F70F2380E7008327C4FE850761
:101DAC002326F4FE0327C4FE9307B002E3F4E7E214
:101DBC0001000100725421618280011106CE22CCF7
:101DCC0000102326A4FE2324B4FE8327C4FE8325FF
:101DDC0084FE3E8591330100F240624405618280AD
:101DEC00797122D60018AA87232CB4FC232AC4FCB0
:101DFC00A30FF4FCA30704FEB5A8230704FE8DA0D3
:101E0C000347F4FE8347E4FE832684FD0A073697D6
:101E1C00BA9703C607008347F4FD1397270083473F
:101E2C00F4FEBA97139727008347E4FEBA973E87D0
:101E3C00832744FDBA9703C707008346F4FE834704
:101E4C00E4FE318F1377F70F032684FD8A06B296D2
:101E5C00B6972380E7008347E4FE85072307F4FE4B
:101E6C000347E4FE8D47E3FDE7F88347F4FE85075F
:101E7C00A307F4FE0347F4FE8D47E3F0E7F80100F7
:101E8C000100325445618280797122D60018232ECC
:101E9C00A4FCA30704FE8DA0230704FEA1A0034706
:101EAC00E4FE8347F4FE8326C4FD0A073697BA97EF
:101EBC0083C707003E868346E4FE8347F4FE17275C
:101ECC0000001307E7E73297034707000326C4FD1A
:101EDC008A06B296B6972380E7008347E4FE85070F
:101EEC002307F4FE0347E4FE8D47E3FAE7FA834742
:101EFC00F4FE8507A307F4FE0347F4FE8D47E3FDCC
:101F0C00E7F801000100325445618280797122D6D4
:101F1C000018232EA4FC8327C4FD83C71700A30736
:101F2C00F4FE8327C4FD03C757008327C4FDA38099
:101F3C00E7008327C4FD03C797008327C4FDA38252
:101F4C00E7008327C4FD03C7D7008327C4FDA38400
:101F5C00E7008327C4FD0347F4FEA386E70083272D
:101F6C00C4FD83C72700A307F4FE8327C4FD03C762
:101F7C00A7008327C4FD2381E7008327C4FD034703
:101F8C00F4FE2385E7008327C4FD83C76700A307FE
:101F9C00F4FE8327C4FD03C7E7008327C4FD238316
:101FAC00E7008327C4FD0347F4FE2387E70083275C
:101FBC00C4FD83C73700A307F4FE8327C4FD03C702
:101FCC00F7008327C4FDA381E7008327C4FD03C763
:101FDC00B7008327C4FDA387E7008327C4FD03C78D
:101FEC0077008327C4FDA385E7008327C4FD03473F
:101FFC00F4FEA383E7000100325445618280011195
:10200C0022CE0010AA87A307F4FE8347F4FE8607AE
:10201C0093968701E1868347F4FE9D8393F7F70F30
:10202C003E870E071D8F0A07B307F74093F7F70F8C
:10203C00E207E187B58FE207E18793F7F70F3E855B
:10204C00724405618280797106D622D40018232E41
:10205C00A4FCA30704FE19A48347F4FE0327C4FDC4
:10206C008A07BA9783C707002307F4FE8347F4FE59
:10207C000327C4FD8A07BA9703C707008347F4FEFA
:10208C008326C4FD8A07B69783C71700B98F13F749
:10209C00F70F8347F4FE8326C4FD8A07B69783C7E0
:1020AC002700B98F13F7F70F8347F4FE8326C4FD7F
:1020BC008A07B69783C73700B98FA306F4FE834708
:1020CC00F4FE0327C4FD8A07BA9703C707008347AA
:1020DC00F4FE8326C4FD8A07B69783C71700B98F11
:1020EC002306F4FE8347C4FE3E85113FAA872306D0
:1020FC00F4FE8347F4FE0327C4FD8A07BA9783C610
:10210C0007000347C4FE8347D4FEB98F13F7F70FBC
:10211C008347F4FE358F1377F70F8326C4FD8A07A8
:10212C00B6972380E7008347F4FE0327C4FD8A0794
:10213C00BA9703C717008347F4FE8326C4FD8A07AA
:10214C00B69783C72700B98F2306F4FE8347C4FED6
:10215C003E857535AA872306F4FE8347F4FE0327D4
:10216C00C4FD8A07BA9783C617000347C4FE83478A
:10217C00D4FEB98F13F7F70F8347F4FE358F13771F
:10218C00F70F8326C4FD8A07B697A380E700834721
:10219C00F4FE0327C4FD8A07BA9703C727008347B9
:1021AC00F4FE8326C4FD8A07B69783C73700B98F20
:1021BC002306F4FE8347C4FE3E859135AA87230689
:1021CC00F4FE8347F4FE0327C4FD8A07BA9783C63F
:1021DC0027000347C4FE8347D4FEB98F13F7F70FCC
:1021EC008347F4FE358F1377F70F8326C4FD8A07D8
:1021FC00B6972381E7008347F4FE0327C4FD8A07C3
:10220C00BA9703C737008347E4FEB98F2306F4FE61
:10221C008347C4FE3E85E533AA872306F4FE834735
:10222C00F4FE0327C4FD8A07BA9783C63700034719
:10223C00C4FE8347D4FEB98F13F7F70F8347F4FE20
:10224C00358F1377F70F8326C4FD8A07B697A381C2
:10225C00E7008347F4FE8507A307F4FE0347F4FE6B
:10226C008D47E3FBE7DE01000100B25022544561CB
:10227C008280797106D622D40018232EA4FC232C3C
:10228C00B4FCA30704FE032684FD8325C4FD01458D
:10229C00813E8547A307F4FE0325C4FDF5360325CF
:1022AC00C4FDAD310347F4FEA9476303F7020325D0
:1022BC00C4FD513B8347F4FE032684FD8325C4FDF6
:1022CC003E85393E8347F4FE8507A307F4FEE9B744
:1022DC000100032684FD8325C4FD29451136010028
:1022EC00B250225445618280011106CE22CC0010DE
:1022FC002326A4FE2324B4FE8327C4FEBE85032517
:10230C0084FE853F0100F240624405618280AA8808
:10231C00AE8732883685468363990620972600005F
:10232C009386C6B263F0C50C41676376E60A130761
:10233C00F00F3337C7000E073355E600AA9683C655
:10234C000600130500023697B306E540630CE50062
:10235C00B397D70033D7E8003318D600B365F7002E
:10236C003393D80093580801B3D7150313160801FB
:10237C00418213570301B3F615033E85B305F602EC
:10238C00C206558F637CB70042971385F7FF6367CE
:10239C0007016375B7001385E7FF42970D8FB3777D
:1023AC00170342031353030133571703C20733E3D5
:1023BC006700B306E6023A86637BD30042931306AA
:1023CC00F7FF636603016374D3001306E7FF42054E
:1023DC00518D81455DA8370500014147E36EA6F498
:1023EC00614799BF01E605473358C7024167637FD0
:1023FC00E8081307F00F6373070121453357A80052
:10240C00BA9603C70600130600022A97B306E640E5
:10241C006315E608B38707418545935808011316E1
:10242C000801418213570301B3F61703B3D71703FF
:10243C00C206558F330EF6023E85637CC701429768
:10244C001385F7FF636707016375C7011385E7FF02
:10245C0042973307C741B377170342031353030162
:10246C0033571703C20733E36700B306E6023A8615
:10247C00637BD30042931306F7FF63660301637417
:10248C00D3001306E7FF4205518D82803707000108
:10249C004145E365E8F6614595B73318D800B3D5E7
:1024AC00E7003393D800B397D70033D7E80093589D
:1024BC0008013366F70033F7150393170801C1833E
:1024CC0013550601B3D515034207498FB386B702DE
:1024DC002E85637CD70042971385F5FF6367070150
:1024EC006375D7001385E5FF4297B306D74033F7E2
:1024FC00160342064182B3D616034207B388D702AD
:10250C00B367C700368763FC1701C2971387F6FFC2
:10251C0063E7070163F517011387E6FFC29793156D
:10252C000501B3871741D98DCDBD63E1D514416742
:10253C0063FFE6021307F00FB335D7008E0533D5D2
:10254C00B60017270000130767902A970347070068
:10255C00130500022E97B305E5406311E50205450E
:10256C00E3E5F6F233B5C8001345150039BF37075C
:10257C000001C145E3E5E6FCE145D1B73353E60084
:10258C00B396B6003363D30033D5E700935E0301F3
:10259C00B376D503B397B70033D7E8003368F700A9
:1025AC0093170301C183135708013316B600335533
:1025BC00D503C206558F338FA7022A8E637CE701A1
:1025CC001A97130EF5FF636767006375E701130E27
:1025DC00E5FF1A973307E741B376D7033357D70391
:1025EC00C206B38EE70293170801C183D58F3A85D3
:1025FC0063FCD7019A971305F7FF63E7670063F550
:10260C00D7011305E7FF9A97420EB387D741C16EE6
:10261C003365AE009386FEFF3373D5001358050166
:10262C00F18E4182330ED302B306D80213570E013A
:10263C003303C30236931A973308C8026373D70067
:10264C00769893560701369863E00703E39307D90E
:10265C00C167FD177D8F4207337EFE00B398B8002B
:10266C0072978145E3F3E8E27D15A5B381450145F9
:10267C0029BDAA8581460146014525A94111972707
:10268C0000009387E79B22C4172400001304449B8B
:10269C001D8C26C206C60984BE8419E42244B240AD
:1026AC00924441016FE02FC07D1493172400A6972C
:1026BC009C438297DDB74111972700009387479879
:1026CC0022C4172400001304A4971D8C26C24AC0F0
:1026DC0006C6098481443E8963988402EFE0CFBB2F
:1026EC00972700009387C79517240000130444957F
:1026FC001D8C098481443E89639F8400B24022442E
:10270C00924402494101828093972400CA979C43CA
:10271C0085048297D1B793972400CA979C4385046C
:10272C008297D9BF5D7122D406D62A842EDA32DC88
:10273C0036DEBAC0BEC2C2C4C6C603A5818011C5EE
:10274C001C4D81E72AC6A12532450C45541822861A
:10275C0036CEEF003032B250225461618280AA85AD
:10276C0003A5818011CD1C4D81EF011106CE2EC623
:10277C002AC4312D2245B245F2401045056119A0FD
:10278C001045F5BF011122CC06CE2A8401C91C4D7F
:10279C0091E732C62EC4E52B3246A24597170000AE
:1027AC009387C77C631CF60250401C46FD171CC661
:1027BC0063DA0700184E63C3E70493F7F50F294754
:1027CC00638EE7021C4213F5F50F1387170018C22E
:1027DC002380B700F24062440561828097170000A5
:1027EC009387C77A6314F6001044C1B7971700009B
:1027FC009387C775E31BF6FA504445BF22856244A4
:10280C00F2400561E5A0011126CA4AC806CE22CCC9
:10281C004EC652C4AA842E8901C51C4D91E3852B4A
:10282C009C4C804499E326859D2397170000938741
:10283C00E773631CF402C0408357C400A18BB1C77B
:10284C001C48A1C7FD59294A1C4483450900FD17A2
:10285C00B1E91CC463DE07062286A94526857920CA
:10286C00FD576308F502294535A09717000093879B
:10287C00E7716314F4008044C1B797170000938785
:10288C00E76CE31BF4FAC04445BFA2852685392AC0
:10289C0055D97D55F2406244D2444249B249224A4C
:1028AC00056182801CC4050963D70700184C63CBF3
:1028BC00E700638945011C401387170018C023806B
:1028CC00B70059B7228626851520E31F35F7D1B7F7
:1028DC001C401387170018C029472380E70061B7F5
:1028EC00AA8503A5818005B76FD05F82011122CC28
:1028FC0026CA4AC806CE4EC6AA842E89328401C581
:10290C001C4D91E369219717000093872766631983
:10291C00F406C0401C4C1CC48357C400A18BC9C313
:10292C001C48BDCF1C4808409379F90F1379F90F57
:10293C001D8D5C486346F500A2852685252E2DE568
:10294C001C440505FD171CC41C401387170018C038
:10295C00238037015C486389A7008357C400858BAB
:10296C0081CBA9476316F900A285268521260DED9A
:10297C00F2406244D244B2494A85424905618280A0
:10298C0097170000938787606314F400804459B74D
:10299C00971700009387875BE31EF4F6C0449DBF36
:1029AC00A285268521203DDD7D59D9B7411122C450
:1029BC0026C24AC006C683A481802A892E8489C473
:1029CC009C4C99E32685E126971700009387075ABC
:1029DC006317F402C0408317C4001397070193F6E2
:1029EC0087004183ADEA9376070195EA25472320BA
:1029FC00E90093E707042316F4007D5571A8971797
:102A0C0000009387A7586314F4008044E9B7971724
:102A1C0000009387A753E310F4FCC0446DBF118BE7
:102A2C000DC74C5889C9930744046384F5004A8543
:102A3C009525232A04028357C4002322040093F70C
:102A4C00B7FD2316F4001C481CC08357C40093E741
:102A5C0087002316F4001C4881EF8357C40013072A
:102A6C00002093F707286385E700A2854A85CD21CE
:102A7C008317C4001397070193F6170041839DC277
:102A8C00544823240400B306D04014CC1448014508
:102A9C0081E61377070831FFB24022449244024981
:102AAC004101828093762700014691E2504810C480
:102ABC00F1BFAA88138501841C4191EF13874198BB
:102ACC0018C117D5FF7F13052553BA8709C51C41BB
:102ADC002324F708BA87D8437D487D556346E8041C
:102AEC00638D080203A887086300080413152700E8
:102AFC00429510C10323081005463316E6003363D4
:102B0C00C300232068102320D50889466397D8007A
:102B1C0083264810558E2322C810930617000A07E7
:102B2C00D4C3BA978CC70145828083D7C5000111E5
:102B3C0022CC26CA06CE4AC84EC613F78700AA84F2
:102B4C002E8465E7D8416347E000B8416344E00058
:102B5C000145C1A058546DDF03A9040093963701B9
:102B6C0023A0040063DE060668488357C400918BDB
:102B7C0099C75C401D8D5C5899C33C401D8D5C54BD
:102B8C000C502A86814626858297FD570357C40030
:102B9C00631DF5009440F54763E4D708B707402060
:102BAC008507B3D7D700858BA5CF1C4823220400FB
:102BBC001CC09317370163D80700FD576314F50049
:102BCC009C4091E368C84C5823A02401D1D19307B1
:102BDC0044046384F50026857529232A04028DBFDD
:102BEC000C508546014626850297FD57E31FF5F6E6
:102BFC009C40A5DF75476385E70059476395E7005F
:102C0C0023A02401B1B78357C40093E7070423160C
:102C1C00F400F2406244D2444249B24905618280D8
:102C2C00136707042316E400EDB783A90501E381BC
:102C3C0009F203A905008D8B23A035013309394115
:102C4C00014791E3D84918C4E35420F11C540C50AB
:102C5C00CA864E8626858297634AA0008357C40095
:102C6C007D5593E707042316F40065B7AA99330939
:102C7C00A940D9BF9C49B9CF011122CC06CE2A84D8
:102C8C0011C51C4D81E72EC61922B24597170000BD
:102C9C009387C72D639BF5004C408397C50095C760
:102CAC0022856244F240056149B59717000093876D
:102CBC00E72D6394F5000C44CDB79717000093876C
:102CCC00E728E39CF5FC4C44C9BFF2406244014543
:102CDC000561828001458280411122C406C62A8486
:102CEC002316B5002317C500232005002322050059
:102CFC00232405002322050623280500232A05008A
:102D0C00232C0500214681451305C505C5249717BD
:102D1C000000938787825CD0971700009387E78425
:102D2C001CD497170000938727895CD49717000051
:102D3C009387E78BB24000D01CD82244410182809B
:102D4C0097050000938545F391A2411126C2130605
:102D5C0080069384F5FFB384C4024AC02E8922C432
:102D6C0006C693854407C12E2A8419C92320050061
:102D7C0023222501310508C4138684068145BD2410
:102D8C00B2402285224492440249410182801C4D6A
:102D9C00ADE3411122C406C697070000938787FA5A
:102DAC001CD523240504232605042328050483A706
:102DBC00C1802A846314F50085471CCD22851D280B
:102DCC0048C02285052808C422852D2048C44840C7
:102DDC0001469145113708440546A545F53D484443
:102DEC000946C945D53D8547B2401CCC224441011A
:102DFC0082808280411126C283A4C1809C4C4AC02F
:102E0C0006C622C42A8999E3268551379384840403
:102E1C008044DC40FD1763D607009C40B1CF844052
:102E2C00C5BF0317C40031E7C17785072322040609
:102E3C002320040023220400232404005CC4232840
:102E4C000400232A0400232C040021468145130589
:102E5C00C405692A232A0402232C04022324040413
:102E6C0023260404B24022852244924402494101A3
:102E7C0082801304840679BF91454A85F93588C050
:102E8C002A8451FDB1472320F900E9BF797122D47E
:102E9C004AD04ECE52CC5AC85EC606D626D256CA98
:102EAC002A892E8A130485048149054BFD5B044451
:102EBC00832A4400FD1A63D00A0200406DF8B25018
:102ECC00225492540259624AD24A424BB24B4E851A
:102EDC00F2494561828083D7C400637BFB008397F2
:102EEC00E40063877701A6854A85029AB3E9A900B5
:102EFC0093848406C1B75971CAD02E898395E50095
:102F0C00A2D4A6D286D63284B68463DC050083575D
:102F1C00C90023A0040093F707088DE39307004032
:102F2C0005A030000527E34405FE3247BD67F98F45
:102F3C007977BA9793B717009CC0CDB79307000465
:102F4C00B6501CC0265496540659014565618280C2
:102F5C0083D7C500011122CC06CE26CA4AC8898B5C
:102F6C002E8489CF930774041CC01CC885475CC889
:102F7C00F2406244D24442490561828074003000C0
:102F8C002A89953FA245AA844A85752201ED8317AB
:102F9C00C40013F7072069FFF19B93E72700231662
:102FAC00F400C9B7970700009387C7D92324F90207
:102FBC008357C40008C008C893E707082316F40019
:102FCC00A2475CC8B24789CF8315E4004A854525E2
:102FDC0001C98357C400F19B93E717002316F40033
:102FEC000355C400C98C2316940059B73D432A8756
:102FFC006373C3029377F700BDEFADE5937606FFDD
:10300C003D8ABA960CC34CC30CC74CC74107E36B43
:10301C00D7FE11E28280B306C3408A0697020000F5
:10302C0096966780A6002307B700A306B700230671
:10303C00B700A305B7002305B700A304B70023040A
:10304C00B700A303B7002303B700A302B700230202
:10305C00B700A301B7002301B700A300B7002300FA
:10306C00B700828093F5F50F93968500D58D9396D6
:10307C000501D58D61B793962700970200009696AF
:10308C008682E78086FA9680C1171D8F3E96E37480
:10309C00C3F8A5B7C5C183A7C5FF011122CC06CEC5
:1030AC001384C5FF63D307003E942AC6052D1387EE
:1030BC0041841C4332453A8681EB2322040000C331
:1030CC006244F240056121AD637EF4001440330785
:1030DC00D4006396E7009843DC43369718C05CC075
:1030EC0000C2F9BF3E87DC4399C3E37DF4FE144371
:1030FC003306D700631F86001040B29614C3330604
:10310C00D700E39FC7FA9043DC43B29614C35CC369
:10311C0045BF6375C400B1471CC15DB71040B30611
:10312C00C4006396D7009443DC43B29614C05CC0D1
:10313C0040C379B78280011126CA93843500F19877
:10314C004AC806CE22CC4EC6A104B1472A8963F1E7
:10315C00F404B14463E0B4044A8549239387418461
:10316C009843BE863A8431E0138481841C4089E7FD
:10317C0081454A85692E08C0A6854A85492EFD5988
:10318C0063183507B1472320F9004A85892B31A0F4
:10319C00E3D204FCB1472320F9000145F24062441C
:1031AC00D2444249B249056182801C40858F63CE6E
:1031BC0007022D466376F6001CC03E9404C029A07D
:1031CC005C40631287029CC24A85112B1305B40024
:1031DC009307440061993307F540E301F5FC3A94F9
:1031EC00898F1CC065BF5CC3C5B722874040A5BF93
:1031FC00130435007198E30385FCB305A4404A859C
:10320C003926E31D35FBBDBF1C46FD171CC663DA12
:10321C000700184E63C5E700A9476394F5006FF0EB
:10322C00EFEC1C422E851387170018C22380B700C1
:10323C008280011122CC26CA4AC84EC652C406CE80
:10324C002A89AE893284B304D6007D5A6314940063
:10325C00014509A8834504004E864A857537050447
:10326C00E31645FFF2406244D2444249B249224A35
:10327C0005618280357122CD26CB4AC94EC706CF57
:10328C0052C556C35AC1DEDEE2DCE6DAAA89AE8448
:10329C003289368409C51C4D99E3EFF05FAF97175F
:1032AC0000009387A7CC639BF40C83A4490083D7BD
:1032BC00C400A18BF5C79C48E5C793070002A30483
:1032CC00F1029307000302D22305F10222C6930BED
:1032DC005002971A0000938A6ACD054C294B4A84F8
:1032EC008347040099C36390770FB30C2441630D9B
:1032FC002401E6864A86A6854E85253FFD57630642
:10330C00F51E9257E6973ED283470400638F071C45
:10331C00FD571309140002C802CE3ECA02CCA30901
:10332C00010482D48345090015465685592EC2479F
:10333C001304190059E913F7070109C71307000211
:10334C00A309E10413F7870009C71307B002A30907
:10335C00E104834609001307A0026380E608F247E4
:10336C004A8481462546034704009305140013073D
:10337C0007FD6379E60AB5CA3ECE85A8971700000B
:10338C009387C7C06395F40083A489000DB7971782
:10339C0000009387A7BBE39CF4F083A4C90001BF92
:1033AC00A6854E85EFF08FE009D97D55FA406A4429
:1033BC00DA444A49BA492A4A9A4A0A4BF65B665C8D
:1033CC00D65C0D618280050421BF33055541331550
:1033DC00AC00C98F3EC82289B1B73247930647006B
:1033EC00184336C6634907023ACE034704009307D5
:1033FC00E002631FF704034714009307A002631B4A
:10340C00F702B2470904138747009C433AC663C1CD
:10341C0007023ECA35A83307E04093E727003ACEAF
:10342C003EC8E1B7B38767032E848546BA9725BF9C
:10343C00FD57C5B7050402CA814681472546034797
:10344C00040093051400130707FD6376E606F1F2FA
:10345C00834504000D46171500001305A5B59524EA
:10346C0011CD971700009387E7B41D8D93070004C7
:10347C00B397A700424505045D8D2AC88345040017
:10348C00194617150000130525B31309140023045E
:10349C00B102052C3DC197D7FF7F9387E7B595E720
:1034AC004247B2471377071009CF91073EC6925790
:1034BC00D2973ED22DB5B38767032E848546BA9733
:1034CC00BDBF9D07E19BA107D5B77800970600000B
:1034DC00938666D626860C084E8597000000E7007A
:1034EC000000FD572A8AE314F5FC83D7C40093F738
:1034FC000704E39C07EA125555BD780097060000B7
:10350C00938666D326860C084E85CD24D9BF4111EF
:10351C0022C42A842E8523A801A006C6EFC05FC64C
:10352C00FD576316F50083A701A191C31CC0B240DF
:10353C00224441018280411122C42E848395E500EE
:10354C0006C6312B634905007C48AA977CC8B2405B
:10355C002244410182808357C4007D777D17F98F07
:10356C002316F400EDB783D7C500011122CC26CA6F
:10357C004AC84EC606CE93F70710AA842E84328909
:10358C00B68991C78395E500894601462922835760
:10359C00C4007D777D17F98F8315E4002316F400A2
:1035AC006244F240CE864A86B24942492685D244CC
:1035BC0005613DA8411122C42E848395E50006C601
:1035CC00D928FD570357C400631BF500FD77FD1781
:1035DC00F98F2316F400B2402244410182808567A2
:1035EC00D98F2316F40068C8FDB78395E5003DA07C
:1035FC00411122C42A842E85B285368623A801A0C7
:10360C0006C6EFC07FBFFD576316F50083A701A167
:10361C0091C31CC0B240224441018280411122C49A
:10362C002A842E8523A801A006C6EFC07FA8FD57CB
:10363C006316F50083A701A191C31CC0B2402244BC
:10364C0041018280411122C42A842E85B28523A88F
:10365C0001A006C6EFC09FA7FD576316F50083A710
:10366C0001A191C31CC0B24022444101828041118E
:10367C0022C42A842E8523A801A006C6EFC01FA948
:10368C00FD576316F50083A701A191C31CC0B2407E
:10369C00224441018280411122C42A842E85B285A4
:1036AC00368623A801A006C6EFC09FA7FD57631658
:1036BC00F50083A701A191C31CC0B2402244410173
:1036CC00828093F5F50F2A966314C500014582801C
:1036DC0083470500E38DB7FE0505FDB78280828028
:1036EC00797152CC9C493A8A984522D426D24ECE36
:1036FC0056CA06D64AD05AC85EC6AA892E84B28447
:10370C00B68A63D3E700BA879CC00347340419C355
:10371C0085079CC01C4093F7070281C79C40890712
:10372C009CC00329040013796900631A0900130B68
:10373C009401FD5B5C449840998F634CF90483477A
:10374C003404B336F0001C4093F70702A5EB1306C4
:10375C003404D6854E85029AFD576303F5041C404C
:10376C0011469840998B544481446397C700B384A5
:10377C00E64063D3040081441C4418486354F700AA
:10378C00998FBE94014969047D5B639824050145BA
:10379C0009A885465A86D6854E85029A631E750100
:1037AC007D55B250225492540259F249624AD24A7F
:1037BC00424BB24B456182800509ADBF3307D40043
:1037CC0013060003A301C704034754049387160090
:1037DC00A2978906A381E7049DBF85462286D685DC
:1037EC004E85029AE30E65FB050945B7797122D423
:1037FC0026D24AD04ECE06D652CC56CA5AC82E84A1
:10380C00B6899386350483C5850193078007AA84FE
:10381C00328963ECB7009307200663EDB70063862B
:10382C00051C93078005638BF512930A240423016E
:10383C00B40415A89387D5F993F7F70F5546E366AB
:10384C00F6FE170600001306267A8A07B2979C43E9
:10385C00B29782871C43930A2404938647009C43A7
:10386C0014C32301F404854765A21C40084313F6D6
:10387C000708930545000DC21C410CC363D8070013
:10388C001307D002B307F040A301E40417060000AD
:10389C00130606732947A9A013F607041C410CC391
:1038AC0071DEC207C187D9BF10401C4313780608CC
:1038BC00138547006305080008C39C4339A01376A1
:1038CC00060408C37DDA83D707001307F006170632
:1038DC0000001306E66E6384E50E2947A301040479
:1038EC004C400CC463C5050008406D9908C099E3B1
:1038FC00B68A99CDB68AB3F5E702FD1AB29583C59F
:10390C0005002380BA00BE85B3D7E702E3F5E5FED8
:10391C00A147631EF7001C40858B91CB58401C4877
:10392C0063C7E70093070003A38FFAFEFD1AB38663
:10393C00564114C84E87CA867000A28526854D3321
:10394C007D5A631B450D7D55B25022549254025939
:10395C00F249624AD24A424B45618280A302B404C6
:10396C00170600001306C6650C40084313F805083B
:10397C001C411105630D080208C313F7150001C79C
:10398C0093E505020CC04147B1FB0C4093F5F5FDE6
:10399C000CC0A9B71C4093E707021CC09307800713
:1039AC00A302F404170600001306C66275BF13F8D1
:1039BC00050408C3E30308FCC207C1837DBF21478C
:1039CC0031BF10401C434C48137806081385470040
:1039DC006306080008C39C438CC301A808C3137674
:1039EC0006049C4375DA2390B70023280400B68A9A
:1039FC0091B71C43504081459386470014C383AA5A
:103A0C00070056857D3901C53305554148C05C40DA
:103A1C001CC8A301040439BF14485686CA852685E0
:103A2C008299E30245F31C40898B8DE7B2474844E9
:103A3C00E35CF5F03E8509BF85465686CA8526852A
:103A4C008299E30265F1050A5C443247998FE3459C
:103A5C00FAFEE9BF014A930A94017D5BF5B7411167
:103A6C0022C42A842E85B285368623A801A006C6D8
:103A7C00EFC0CFECFD576316F50083A701A191C3EE
:0A3A8C001CC0B240224441018280B8
:103A98005472617020696E20457863657074696F2F
:103AA8006E0D00004D43415553453A203078256C42
:103AB800780D0A004D45504320203A203078256C77
:103AC800780D0A004D5456414C203A203078256C28
:103AD800780D0A005472617020696E20496E746511
:103AE80072727570740D0000464C41534858495025
:103AF80000000000464C415348000000494C4D006E
:103B080031373A34383A34380000000044656320CD
:103B1800313120323032330048756D6D696E67423D
:103B28006972642053444B204275696C642054695F
:103B38006D653A2025732C2025730D0A00000000BE
:103B4800446F776E6C6F6164204D6F64653A202511
:103B5800730D0A00435055204672657175656E6392
:103B68007920256C7520487A0D0A00006369723146
:103B78005F7273325F313D253038780A00000000EB
:103B8800636972315F7273325F323D253038780A6B
:103B980000000000636972315F7273325F333D2544
:103BA8003038780A00000000636972315F7273323E
:103BB8005F343D253038780A0000000072645F31B8
:103BC8003D253038780A000072645F323D25303870
:103BD800780A000072645F333D253038780A0000A7
:103BE80072645F343D253038780A0000252E32781B
:103BF80000000000636970686572746578743A0043
:103C08002B7E151628AED2A6ABF7158809CF4F3CE8
:103C18003243F6A8885A308D313198A2E0370734FC
:103C28002048656C6C6F20576F726C642046726F09
:103C38006D20524953432D562050726F636573733C
:103C48006F72210D0000000054657374696E67205F
:103C580041455331323800002A2A2A2A2A2A2A2A98
:103C68002A2A2A2A2A2A2A2A2A2A2A2A2A2A2A2AAC
:103C78002A2A2A2A2A2A2A2A2A2A2A2A2A2A2A2A9C
:103C88002A2A2A2A2A2A00002A2A20626567696EB7
:103C980020746F20657875206E6F726D616C20637B
:103CA800617365002A2A20626567696E20746F2037
:103CB800657875206E6963655F63617365000000F0
:103CC8002A2A20706572666F726D616E6365206C5A
:103CD800697374200000000009206E6F726D616CBA
:103CE8003A20000009202020202020696E73747279
:103CF80065743A2025752C206379636C653A202514
:103D080075200A0009206E69636520203A200000AA
:103D18002A2A2A2A2A2A2A2A2A2A2A2A2A2A2A2AFB
:103D28002A2A2A2A2A2A2A2A2A2A2A2A2A2A2A2AEB
:103D38002A2A2A2A2A2A2A2A2A2A2A2A2A2A0A0025
:103D4800637C777BF26B6FC53001672BFED7AB7650
:103D5800CA82C97DFA5947F0ADD4A2AF9CA472C0FB
:103D6800B7FD9326363FF7CC34A5E5F171D8311568
:103D780004C723C31896059A071280E2EB27B27589
:103D880009832C1A1B6E5AA0523BD6B329E32F8401
:103D980053D100ED20FCB15B6ACBBE394A4C58CFF9
:103DA800D0EFAAFB434D338545F9027F503C9FA8CD
:103DB80051A3408F929D38F5BCB6DA2110FFF3D29B
:103DC800CD0C13EC5F974417C4A77E3D645D19734F
:103DD80060814FDC222A908846EEB814DE5E0BDB49
:103DE800E0323A0A4906245CC2D3AC629195E47980
:103DF800E7C8376D8DD54EA96C56F4EA657AAE08DA
:103E0800BA78252E1CA6B4C6E8DD741F4BBD8B8A74
:103E1800703EB5664803F60E613557B986C11D9EDA
:103E2800E1F8981169D98E949B1E87E9CE5528DF51
:103E38008CA1890DBFE6426841992D0FB054BB167D
:103E48008D01020408102040801B36000001020288
:103E5800030303030404040404040404050505051A
:103E680005050505050505050505050506060606F6
:103E780006060606060606060606060606060606DA
:103E880006060606060606060606060607070707C6
:103E980007070707070707070707070707070707AA
:103EA800070707070707070707070707070707079A
:103EB800070707070707070707070707070707078A
:103EC8000707070707070707070707070808080876
:103ED800080808080808080808080808080808085A
:103EE800080808080808080808080808080808084A
:103EF800080808080808080808080808080808083A
:103F08000808080808080808080808080808080829
:103F18000808080808080808080808080808080819
:103F28000808080808080808080808080808080809
:103F380008080808080808080808080808080808F9
:103F48000808080808080808080808080000000009
:103F58000000000000000000000000000000000059
:103F68000000000000000000000000000000000049
:103F78000000000000000000000000000000000039
:103F88000000000000000000000000000000000029
:103F98000000000000000000000000000000000019
:103FA800000000000000000000000000232D302B5E
:103FB80020000000686C4C006566674546470000B5
:103FC8003031323334353637383941424344454647
:103FD8000000000030313233343536373839616209
:103FE800636465660000000070F8FFFF86F8FFFF55
:103FF80046F8FFFF46F8FFFF46F8FFFF46F8FFFFC9
:1040080086F8FFFF46F8FFFF46F8FFFF46F8FFFF78
:1040180046F8FFFFDEF9FFFFC4F8FFFFB0F9FFFF26
:1040280046F8FFFF46F8FFFF0EFAFFFF46F8FFFFCE
:10403800C4F8FFFF46F8FFFF46F8FFFFB8F9FFFF97
:1040480000000000743F0080943F0080543F0080CF
:104058000000000000000000000000000000000058
:104068000000000000000000000000000000000048
:104078000000000000000000000000000000000038
:104088000000000000000000000000000000000028
:104098000000000000000000000000000000000018
:1040A8007802009000B4C404000000900000009062
:040000058000000077
:00000001FF
