:0200000480007A
:1000000073700430735040309711001093818185D4
:1000100017010110130101FF97020000938242278C
:100020007390523073F051301705000013054509E5
:10003000970500009385C5086300B50217360000D8
:100040001306467063FAC5008322050023A05500FD
:1000500011059105E3EAC5FE173500001305856E0D
:1000600097050010938505FA1386018163FAC50090
:100070008322050023A0550011059105E3EAC5FE82
:1000800013850181938581946377B5002320050052
:100090001105E36DB5FEA5231715000013054550A6
:1000A000EF10804EEF104055EF00D00D0145814517
:0A00B000EF00D051EF00F01E01A098
:1000BC00011122CE00102326A4FE9387019425471C
:1000CC0098C3FD573E85724405618280011122CE92
:1000DC0000102326A4FE2324B4FE0327C4FE854768
:1000EC006307F7000327C4FE89476318F7008327CB
:1000FC0084FE0967D8C3814731A0938701942547B3
:10010C0098C3FD573E85724405618280011122CE51
:10011C0000102326A4FE85473E857244056182802B
:10012C00011122CE00102326A4FE2324B4FE232288
:10013C00C4FE81473E85724405618280797106D682
:10014C0022D40018232EA4FC232CB4FC232AC4FC98
:10015C008327C4FD99C3FD5739A8832784FD232623
:10016C00F4FE373501107924AA873E878327C4FE15
:10017C002380E70085473E85B2502254456182803A
:10018C00011122CE00102326A4FE9707001093879E
:10019C00A7EC98438327C4FE3E97938781946360B2
:1001AC00F70297070010938727EB98438327C4FE29
:1001BC003E9797F700109387276463F4E700FD5789
:1001CC0005A897070010938727E998438327C4FE57
:1001DC003E9797070010938727E898C3970700105E
:1001EC00938787E798438327C4FEB307F040BA97F9
:1001FC003E85724405618280797106D622D400183E
:10020C00232EA4FC232CB4FC232AC4FC0325C4FDFC
:10021C00EF10C065AA8799E3FD57B1A8832784FD29
:10022C002324F4FE232604FE3DA8032784FE832703
:10023C00C4FEBA9703C70700A9476316F700B54574
:10024C0037350110B522032784FE8327C4FEBA97E5
:10025C0083C70700BE8537350110992A8327C4FE52
:10026C0085072326F4FE0327C4FE832744FDE36E93
:10027C00F7FA832744FD3E85B250225445618280B3
:10028C005D7106C012C216C41AC61EC82ACA2ECC6C
:10029C0032CE36D03AD23ED442DC46DEF2C0F6C282
:1002AC00FAC4FEC6F322103416D6F322203416D824
:1002BC00F322003016DA732520348A85E921B252F4
:1002CC0073901234C25273902234D2527390023013
:1002DC0082401242A2423243C2435245E245724628
:1002EC0082561257A2576258F258064E964E264F17
:1002FC00B64F616173002030011122CE001023260D
:10030C00A4FE2324B4FE8327C4FE93B7170093F7EF
:10031C00F70F99C3FD5719A88327C4FED84F83271D
:10032C0084FE5D8F8327C4FED8CF81473E857244FF
:10033C0005618280797122D60018232EA4FC232C0F
:10034C00B4FC8327C4FD93B7170093F7F70F99C339
:10035C00FD5799A897070010938747D09843832798
:10036C0084FDB357F702FD172326F4FE8327C4FD43
:10037C0013070008D8C78327C4FEA18313F7F70F10
:10038C008327C4FDD8C38327C4FE13F7F70F832735
:10039C00C4FD98C38327C4FD1307600C98C783273B
:1003AC00C4FD0D47D8C781473E85325445618280D4
:1003BC00011122CE00102326A4FEAE87A305F4FE65
:1003CC008327C4FE93B7170093F7F70F99C3FD5714
:1003DC0031A801008327C4FEDC4B93F70702FDDB39
:1003EC000347B4FE8327C4FE98C381473E857244FD
:1003FC0005618280797122D60018232EA4FC8327F4
:10040C00C4FD93B7170093F7F70F81C79307F00F4D
:10041C0005A001008327C4FDDC4B858BE5DF83271A
:10042C00C4FD9C432326F4FE8327C4FE93F7F70FE9
:10043C003E85325445618280411122C60008A16775
:10044C003E85324441018280397106DE22DC26DA97
:10045C0080002326A4FCCD372326A4FE37070002F8
:10046C00B167BA9703A787FF83A7C7FF2324E4FECE
:10047C0037070002B167BA9703A787FF83A7C7FFA7
:10048C002322E4FEF32700B0BE84A6872320F4FECB
:10049C00032744FE832784FEE30CF7FC3707000296
:1004AC00B167BA9703A787FF83A7C7FF832744FECB
:1004BC00B307F740232EF4FCF32700B0BE84268745
:1004CC00832704FEB307F740232CF4FC0327C4FD59
:1004DC008327C4FCE364F7FC032784FD8327C4FD56
:1004EC003357F7028327C4FE3307F702832684FDB4
:1004FC008327C4FDB3F6F6028327C4FEB386F60247
:10050C008327C4FDB3D7F602BA973E85F2506254E6
:10051C00D25421618280011106CE22CC00100545F7
:10052C002537130540060D372326A4FE8327C4FE6A
:10053C003E85F240624405618280397106DE22DC20
:10054C0080002326A4FC8327C4FC3E868146935757
:10055C0016019398F600B3E817011318F60013066A
:10056C00803E81464285C685EF0050162A87AE87AD
:10057C002324E4FE2326F4FE37070002B167BA9762
:10058C0003A787FF83A7C7FF2320E4FE2322F4FEE3
:10059C0037070002B167BA9703A887FF83A8C7FF84
:1005AC00032504FE832544FE3306A840B287B337E7
:1005BC00F800B386B840B387F640BE86232CC4FC43
:1005CC00232ED4FC0327C4FE8327C4FDE3E2E7FCFF
:1005DC000327C4FE8327C4FD6318F700032784FE9A
:1005EC00832784FDE3E6E7FA0100F25062542161AF
:1005FC008280411122C6000897070010938707A636
:10060C0037B7C4041307074098C3010032444101B3
:10061C008280011106CE22CC00102326A4FE2324B6
:10062C00B4FE173500001305A5D6EF106023832503
:10063C00C4FE173500001305E5D6EF10A005F3270F
:10064C001034BE808687BE8517350000130585D60D
:10065C00EF104004F3273034BE808687BE851735F3
:10066C000000130525D6EF10E00201A0011106CE03
:10067C0022CC00102326A4FE2324B4FE1735000040
:10068C00130545D5EF10C01D8325C4FE173500009A
:10069C00130545D1EF100000F3271034BE80868778
:1006AC00BE85173500001305E5D0EF00B07EF327AB
:1006BC003034BE808687BE8517350000130585D083
:1006CC00EF00507D0100F24062440561828001110F
:1006DC0022CE0010232604FE1DA0170700001307CE
:1006EC0087F3970600109386E6988327C4FE8A0743
:1006FC00B69798C38327C4FE85072326F4FE0327E9
:10070C00C4FEA947E3DBE7FC01000100724405616C
:10071C008280011122CE0010232604FE1DA0170793
:10072C0000001307E7F4970600109386669783275B
:10073C00C4FE8A07B69798C38327C4FE8507232671
:10074C00F4FE0327C4FEC147E3DBE7FC232604FECB
:10075C000DA0170700001307A7F19386C188832704
:10076C00C4FE8A07B69798C38327C4FE8507232641
:10077C00F4FE0327C4FEA547E3DDE7FC01000100FE
:10078C00724405618280397106DE22DC26DA800033
:10079C002326A4FC2324B4FC8327C4FC63DE070CAF
:1007AC00232604FE0327C4FC8567FD17F98F232439
:1007BC00F4FE032784FEAD47631BF708F32740F1D3
:1007CC00BE84A6872322F4FE832744FE1397C7001A
:1007DC00B707200C9107BA972320F4FE832704FE59
:1007EC009C432324F4FE032784FEC14763E4E708FB
:1007FC00170700101307C78A832784FE8A07BA9746
:10080C009C432326F4FE8327C4FE81CB8327C4FE9E
:10081C00832584FC0325C4FC8297832784FE232E26
:10082C00F4FCF32740F1BE84A687232CF4FC832729
:10083C0084FD1397C700B707200C9107BA97232A9A
:10084C00F4FC832744FD0327C4FD98C325A013871C
:10085C00C188832784FE8A07BA979C432326F4FE1B
:10086C008327C4FE81CB8327C4FE832584FC032508
:10087C00C4FC8297814739A0832584FC0325C4FCE2
:10088C000128AA873E85F2506254D254216182809D
:10089C00797106D622D40018232EA4FC232CB4FC88
:1008AC000327C4FD8567FD17F98F2324F4FE032766
:1008BC0084FEA94763EEE70017F7FF0F1307877B4A
:1008CC00832784FE8A07BA979C432326F4FE39A01B
:1008DC0097070000938727D42326F4FE8327C4FEB2
:1008EC0081CB8327C4FE832584FD0325C4FD829719
:1008FC0081473E85B250225445618280011106CE5B
:10090C0022CC001097370000938707AE2322F4FE09
:10091C0097370000938707AE2324F4FE9737000027
:10092C009387C7AD2326F4FE17360000130646AD99
:10093C0097350000938585AD173500001305C5ADBF
:10094C00EF0050558327C4FEBE85173500001305F4
:10095C0025AFEF00305497F7FF0F938727709C4318
:10096C00BE85173500001305E5AEEF00B05201004F
:10097C00F240624405618280397106DE22DC26DA9F
:10098C008000513E2A8797F7FF0F9387276D98C3F6
:10099C00B7050300372501108532F16793850720D1
:1009AC0037350110413A993F1D33A533C5472326EE
:1009BC00F4FE232404FE61A8832784FE2322F4FE84
:1009CC00F32740F1BE84A6872320F4FE832704FE80
:1009DC0013977700832744FE95838A073E97B727A2
:1009EC00000CBA97232EF4FC8327C4FD9C43232CC4
:1009FC00F4FC832744FEFD8B0547B317F70093C720
:100A0C00F7FF3E87832784FDF98F232CF4FC832783
:100A1C00C4FD032784FD98C30100832784FE232A89
:100A2C00F4FC232804FC832744FD13972700B70705
:100A3C00000CBA972326F4FC8327C4FC032704FD7F
:100A4C0098C30100832784FE85072324F4FE032723
:100A5C00C4FE832784FEE3E1E7F6232404FCF3279A
:100A6C0040F1BE84A6872322F4FC832744FC139711
:100A7C00C700B707200CBA972320F4FC832704FC8B
:100A8C00032784FC98C3010001000100F25062545A
:100A9C00D25421618280011122CE00102326A4FEA3
:100AAC000100724405618280411122C600080100D8
:100ABC00324441018280411122C6000801003244B7
:100ACC004101828083AE050003AF450083AF8500F2
:100ADC0083A8C500832206000323460083238600D7
:100AEC00032EC600B3C2D2013343E301B3C3F301F7
:100AFC00334E1E019206B29689A08BE2D2018BE294
:100B0C00E2038BE2F2058BE212070B63E3010B634A
:100B1C00F3030B6313050B63D3078BE3F3018BE335
:100B2C0013038BE3D3058BE3E3070B6E1E010B6EF4
:100B3C00DE030B6EEE050B6EFE07832E0601032FF4
:100B4C004601832F86018328C6018BEE5E008BEE57
:100B5C006E028BEE7E048BEECE070B6F6F000B6F6D
:100B6C007F020B6FCF050B6F5F068BEF7F008BEF58
:100B7C00CF038BEF5F048BEF6F068BE8C8018BE81C
:100B8C0058028BE868048BE8780613060602832269
:100B9C0006000323460083238600032EC600E39E33
:100BAC00C6F48BE2D2098BE2E20B8BE2F20D8BE204
:100BBC00120F0B63E3090B63F30B0B63130D0B6346
:100BCC00D30F8BE3F3098BE3130B8BE3D30D8BE385
:100BDC00E30F0B6E1E090B6EDE0B0B6EEE0D0B6E28
:100BEC00FE0F2320550023226500232475002326A5
:100BFC00C501828037160080130606DC9306050AB1
:100C0C0083A2050003A3450083A3850003AEC500A2
:100C1C002320550023226500232475002326C501BB
:100C2C0093C2120031A0050683450600B3C25500DD
:100C3C0085058BE2B2088BE2B20A8BE2B20C8BE236
:100C4C00B20E33435300B3C36300334E7E004105F1
:100C5C002320550023226500232475002326C5017B
:100C6C00E313D5FC8280010037160080130606DCE6
:100C7C009306050C83A2050003A3450083A38500FE
:100C8C0003AEC50083AE050103AF4501232055001B
:100C9C0023226500232475002326C50193C212006C
:100CAC0031A0050683450600B3C255002328D501A3
:100CBC00232AE50113178F0193558F00D98D8BE2F1
:100CCC00B2088BE2B20A8BE2B20C8BE2B20E334367
:100CDC005300B3C36300334E7E00B3CECE01334F0B
:100CEC00DF016105232055002322650023247500B4
:100CFC002326C501E317D5FA828001003716008040
:100D0C00130606DC9306050E83A2050003A345001B
:100D1C0083A3850003AEC50083AE050103AF450177
:100D2C0083AF850183A8C5012320550023226500CC
:100D3C00232475002326C50193C2120025A08BEE37
:100D4C00CE098BEECE0B8BEECE0D8BEECE0F334F42
:100D5C00DF01B3CFEF01B3C8F801050683450600E8
:100D6C00B3C255002328D501232AE501232CF50114
:100D7C00232E15011397880193D58800D98D8BE20A
:100D8C00B2088BE2B20A8BE2B20C8BE2B20E3343A6
:100D9C005300B3C36300334E7E00130505022320BA
:100DAC00550023226500232475002326C501E31872
:100DBC00D5F8828001020408102040801B36000008
:100DCC00517186D7A2D58019972700009387476C5D
:100DDC009043D4439847DC47232EC4FC2320D4FEF5
:100DEC002322E4FE2324F4FE97270000938747690F
:100DFC009043D4439847DC472326C4FC2328D4FCD7
:100E0C00232AE4FC232CF4FC232604FE17250000E3
:100E1C0013050569EF00D024172500001305C56ADA
:100E2C00EF001024172500001305056BEF0050236D
:100E3C00172500001305456DEF0090221307C4FC25
:100E4C009307C4F1BA853E857533232604FEADA005
:100E5C008327C4FE8A078A07130704FFBA9703A6E1
:100E6C00C7F28327C4FE8A0785078A07130704FF86
:100E7C00BA9783A6C7F28327C4FE8A0789078A0715
:100E8C00130704FFBA9703A7C7F28327C4FE8A0788
:100E9C008D078A07930504FFAE9783A7C7F28325B6
:100EAC00C4FE172500001305E567EF00A07E83271D
:100EBC00C4FE85072326F4FE0327C4FEA947E3D905
:100ECC00E7F80545EFF06FE7B1BF0000130101FD36
:100EDC00232481022326710123261102232291024D
:100EEC0023202103232E3101232C4101232A5101DC
:100EFC00232861012324810123229101930B0500F6
:100F0C0013840500639C063813090600130A0500B8
:100F1C00972400009384046363F8C512B70701009B
:100F2C00138C05006378F6109307F00FB3B7C70066
:100F3C00939737003357F600B384E40003C70400DB
:100F4C0093060002B307F7003387F640638CF60074
:100F5C003314E400B3D7FB003319E60033EC8700FD
:100F6C00339AEB00135B090193050B0013050C007E
:100F7C00EF00805A9304050093050B00931A0901A6
:100F8C0013050C00EF00C05493DA0A01130405009A
:100F9C009305050013850A00EF00C05093940401DB
:100FAC0013570A0133E7E40093090400637EA7009A
:100FBC00330727019309F4FF636827016376A700C1
:100FCC009309E4FF330727013304A74093050B0073
:100FDC0013050400EF0040549304050093050B0027
:100FEC0013050400EF00C04E131A0A011304050088
:100FFC00930505009394040113850A00135A0A0102
:10100C00EF00404A33EA440113060400637CAA0053
:10101C00330A49011306F4FF63662A016374AA00BC
:10102C001306E4FF93970901B3E7C7009309000087
:10103C006F0000133707000193070001E36CE6EE25
:10104C00930780016FF01FEF93890600631A060067
:10105C009305000013051000EF00804713090500ED
:10106C00B7070100637CF9129307F00F63F42701B3
:10107C0093098000B3573901B384F40083C704008B
:10108C0093060002B38737013387F6406392F6125A
:10109C003304244193091000935A090193850A00E3
:1010AC0013050400EF0040479304050093850A00E4
:1010BC0013050400131B0901EF008041135B0B01A6
:1010CC00130405009305050013050B00EF00803D8C
:1010DC009394040113570A0133E7E400930B0400C3
:1010EC00637EA70033072701930BF4FF6368270186
:1010FC006376A700930BE4FF330727013304A74063
:10110C0093850A0013050400EF00004193040500C9
:10111C0093850A0013050400EF00803B131A0A01A3
:10112C0013040500930505009394040113050B00AB
:10113C00135A0A01EF00003733EA44011306040086
:10114C00637CAA00330A49011306F4FF63662A0183
:10115C006374AA001306E4FF93970B01B3E7C7006F
:10116C0013850700938509008320C10203248102A3
:10117C0083244102032901028329C101032A81012D
:10118C00832A4101032B0101832BC100032C810015
:10119C00832C41001301010367800000B707000195
:1011AC0093090001E368F9EC930980016FF09FEC5F
:1011BC003319E900B359F400B3D7FB003314E4003E
:1011CC0033EB8700135409019305040013850900C0
:1011DC00339AEB00EF0040349304050093050400B0
:1011EC0013850900931B0901EF00802E93DB0B0183
:1011FC00930A05009305050013850B00EF00802A68
:10120C009394040193570B01B3E7F40093890A00FC
:10121C0063FEA700B38727019389FAFF63E82701D0
:10122C0063F6A7009389EAFFB3872701B38AA74027
:10123C009305040013850A00EF00002E93050400AB
:10124C009304050013850A00EF00802813140B018A
:10125C00930A0500930505009394040113850B0074
:10126C0013540401EF00002433E4840093870A0034
:10127C00637EA400330424019387FAFF636824017E
:10128C006376A4009387EAFF330424019399090140
:10129C003304A440B3E9F9006FF01FE063EED51EF0
:1012AC00B707010063F4F604930AF00FB3B7DA0042
:1012BC0093973700B3D5F60017270000130787283C
:1012CC003307B700834A0700B38AFA00930700027A
:1012DC00B38957416396570393071000E3E286E8FE
:1012EC0033B6CB00934716006FF09FE7370700012A
:1012FC0093070001E3E0E6FC930780016FF09FFB8E
:10130C00B35C5601B3963601B3ECDC00335954018F
:10131C0033143401B3DA5B01B3EA8A0013D40C0141
:10132C009305040013050900B3143601EF00C01E29
:10133C00130A05009305040013050900139B0C0107
:10134C00EF000019135B0B01130905009305050051
:10135C0013050B00EF000015131A0A0113D70A012D
:10136C003367EA00130C0900637EA700330797016B
:10137C00130CF9FF636897016376A700130CE9FF60
:10138C00330797013309A74093050400130509009F
:10139C00EF00801893050400130A050013050900DB
:1013AC00EF00001313940A011309050093050500BF
:1013BC00131A0A0113050B0013540401EF00800EDD
:1013CC0033648A0013060900637EA400330494017D
:1013DC001306F9FF636894016376A4001306E9FF12
:1013EC003304940193170C01370E0100B3E7C700C7
:1013FC001303FEFFB3F8670033F364003304A44017
:10140C0093DE070193D404011385080093050300B0
:10141C00EF004009130805009385040013850800AC
:10142C00EF004008930805009305030013850E0098
:10143C00EF004007130305009385040013850E008D
:10144C00EF00400613570801B388680033071701F3
:10145C009306050063746700B306C50113550701B5
:10146C00B306D5006366D402E312D4BC3705010081
:10147C001305F5FF3377A700131707013378A8007E
:10148C00B39B3B013307070193090000E3FAEBCC54
:10149C009387F7FF6FF09FB9930900009307000043
:1014AC006FF01FCC130605001305000093F6150012
:1014BC00638406003305C50093D51500131616007A
:1014CC00E39605FE678000006340050663C60506CB
:1014DC0013860500930505001305F0FF630C060247
:1014EC0093061000637AB6006358C00013161600FA
:1014FC0093961600E36AB6FE1305000063E6C5007A
:10150C00B385C5403365D50093D616001356160027
:10151C00E39606FE6780000093820000EFF05FFB0D
:10152C0013850500678002003305A04063D80500D1
:10153C00B305B0406FF0DFF9B305B0409382000003
:10154C00EFF01FF93305A040678002009382000082
:10155C0063CA0500634C0500EFF09FF71385050087
:10156C0067800200B305B040E35805FE3305A04088
:10157C00EFF01FF63305B0406780020093050500BD
:10158C009306000013060000130500006F000059BD
:10159C00130101FF972700009387071A232481006A
:1015AC0017240000130444193304F440232291003F
:1015BC00232611001354244093840700631C040059
:1015CC00032481008320C100832441001301010105
:1015DC006FF06FCE1304F4FF93172400B387F4005D
:1015EC0083A70700E78007006FF05FFD130101FF81
:1015FC0097270000938747142324810017240000A9
:10160C00130484133304F44023229100232021017A
:10161C00232611001354244093040000138907005F
:10162C0063928404EFF04FC8972700009387C7108C
:10163C0017240000130444103304F44013542440C2
:10164C009304000013890700639A84028320C1006D
:10165C0003248100832441000329010013010101AB
:10166C006780000093972400B307F90083A7070055
:10167C0093841400E78007006FF09FFA939724007F
:10168C00B307F90083A7070093841400E7800700D1
:10169C006FF09FFB130101FB23248102232611020F
:1016AC0013040500232AB102232CC102232ED102DC
:1016BC002320E1042322F104232401052326110510
:1016CC0003A58180630C05008327850163980700BF
:1016DC002326A100EF0050080325C10083258500B7
:1016EC009306410313060400232ED100EF10800152
:1016FC008320C102032481021301010567800000CD
:10170C00130101FE232A910023282101232E11000D
:10171C00232C81002326310123244101930405004D
:10172C00138905006308050083278501639407006E
:10173C00EF00900283A7840103A484006396070042
:10174C0013850400EF00500197270000938787F161
:10175C00631EF40403A444008357C40093F787006A
:10176C00638A070683270401638607069309F0FF43
:10177C00130AA00083278400834509009387F7FF91
:10178C00639405082324F40063D0070C13060400AB
:10179C009305A00013850400EF00800D9307F0FF64
:1017AC006302F5041305A0006F00000497270000E6
:1017BC00938747ED6316F40003A484006FF0DFF900
:1017CC0097270000938707E8E318F4F803A4C400F4
:1017DC006FF09FF89305040013850400EF00C01C04
:1017EC00E30605F81305F0FF8320C10103248101F2
:1017FC0083244101032901018329C100032A8100AB
:10180C0013010102678000002324F400130919005E
:10181C0063D807000327840163CEE700638C45017E
:10182C0083270400138717002320E4002380B700CC
:10183C006FF05FF41306040013850400EF004003FF
:10184C00E31A35F36FF01FFA832704001387170090
:10185C002320E4001307A0002380E7006FF09FF41F
:10186C009305050003A581806FF09FE96FE01F8A47
:10187C00130101FE232C8100232A9100232821012E
:10188C00232E110023263101930405001389050032
:10189C001304060063080500832785016394070081
:1018AC00EF00806B972700009387C7DB631EF40A59
:1018BC0003A44400832784012324F4008357C40029
:1018CC0093F787006386070C832704016382070C58
:1018DC0083270401032504009379F90F1379F90F79
:1018EC003305F54083274401634AF5009305040052
:1018FC0013850400EF00804B6314050A83278400D2
:10190C00130515009387F7FF2324F40083270400A5
:10191C00138717002320E400238037018327440119
:10192C00638CA7008357C40093F71700638E0700DE
:10193C009307A000631AF9009305040013850400B3
:10194C00EF00C046631E05048320C10103248101FE
:10195C00832441018329C1001305090003290101D6
:10196C00130101026780000097270000938787D13D
:10197C006316F40003A484006FF0DFF397270000D4
:10198C00938747CCE318F4F203A4C4006FF09FF2E2
:10199C009305040013850400EF000001E30A05F22F
:1019AC001309F0FF6FF05FFA130101FF232481008C
:1019BC0023229100232021012326110083A481805E
:1019CC001309050013840500638A040083A78401AE
:1019DC006396070013850400EF000058972700005A
:1019EC00938747C8631EF40203A444008317C40002
:1019FC001397070193F6870013570701639A06089C
:101A0C009376070163920604130790002320E900E4
:101A1C0093E707042316F4001305F0FF6F00000D85
:101A2C0097270000938707C66316F40003A484006D
:101A3C006FF0DFFB972700009387C7C0E318F4FA19
:101A4C0003A4C4006FF09FFA13774700630C0702DE
:101A5C0083254403638C0500930744046386F500D7
:101A6C0013050900EF009019232A04028357C400C0
:101A7C002322040093F7B7FD2316F40083270401F7
:101A8C002320F4008357C40093E787002316F40047
:101A9C0083270401639007028357C40013070020B7
:101AAC0093F707286388E7009305040013050900E2
:101ABC00EF0000788317C4001397070193F6170003
:101ACC001357070163800604832644012324040072
:101ADC00B306D040232CD400832604011305000048
:101AEC006396060013770708E31407F28320C100FE
:101AFC000324810083244100032901001301010107
:101B0C00678000009376270013060000639406009C
:101B1C00032644012324C4006FF01FFC9308050026
:101B2C001385018183270500639407021387418B7A
:101B3C002320E50017E5FF7F1305054C93070700ED
:101B4C0063080500832705002324F7089307070083
:101B5C0003A747001308F0011305F0FF6340E806E4
:101B6C006382080403A88708630A08041315270076
:101B7C003305A8002320C50003230810130610000A
:101B8C003316E6003363C300232068102320D508E6
:101B9C00930620006398D8008326481033E6C600CD
:101BAC002322C810930617001317270023A2D7006F
:101BBC00B387E70023A4B70013050000678000007B
:101BCC0083D7C500130101FE232C8100232A910029
:101BDC00232E1100232821012326310113F787001E
:101BEC009304050013840500631E071403A7450026
:101BFC00634AE00003A705046346E00013050000F8
:101C0C006F00C0110327C402E30A07FE03A90400F6
:101C1C009396370123A0040063DE060A03254405CE
:101C2C008357C40093F74700638E07008327440053
:101C3C003305F54083274403638607008327040498
:101C4C003305F5408327C4028325040213060500DF
:101C5C009306000013850400E78007009307F0FF4C
:101C6C000357C4006312F50283A604009307D00146
:101C7C0063E4D70CB707402093871700B3D7D7007E
:101C8C0093F71700638A070A8327040123220400B1
:101C9C002320F4009317370163DC07009307F0FF50
:101CAC006316F50083A7040063940700232AA40499
:101CBC008325440323A02401E38205F49307440401
:101CCC006386F50013850400EF004073232A040299
:101CDC006FF0DFF283250402930610001306000058
:101CEC0013850400E70007009307F0FFE31AF5F2F1
:101CFC0083A70400E38607F21307D0016386E7008D
:101D0C00130760016396E70023A024016FF01FEF17
:101D1C008357C40093E707042316F4008320C10102
:101D2C000324810183244101032901018329C1007A
:101D3C001301010267800000136707042316E400F7
:101D4C006FF0DFFD83A90501E38A09EA03A9050009
:101D5C0093F7370023A035013309394113070000ED
:101D6C006394070003A745012324E400E35820E90A
:101D7C008327840283250402930609001386090035
:101D8C0013850400E7800700634CA0008357C40050
:101D9C001305F0FF93E707042316F4006FF01FF808
:101DAC00B389A9003309A9406FF05FFC83A7050133
:101DBC00638A0708130101FE232C8100232E1100D6
:101DCC0013040500630C0500832785016398070045
:101DDC002326B100EF0040188325C100972700008F
:101DEC00938747886392F502832544008397C50047
:101DFC006380070413050400032481018320C101BF
:101E0C00130101026FF0DFDB9727000093878787B0
:101E1C006396F500832584006FF05FFD9727000023
:101E2C0093874782E394F5FC8325C4006FF01FFC75
:101E3C008320C10103248101130500001301010259
:101E4C00678000001305000067800000130101FF8C
:101E5C002324810023261100130405002316B5004A
:101E6C002317C50023200500232205002324050089
:101E7C002322050623280500232A0500232C050010
:101E8C0013068000930500001305C505EF004049BB
:101E9C0097170000938787C82322F4029717000036
:101EAC009387C7CC2324F40297170000938747D459
:101EBC002326F40297170000938707D98320C100CB
:101ECC00232084022328F40203248100130101013E
:101EDC006780000097050000938585ED6F00402119
:101EEC00130101FF1386F5FF232481001314160040
:101EFC003304C400131424003304C400131434003A
:101F0C002320210113890500930544072322910006
:101F1C0023261100EF00C05E930405006300050248
:101F2C0023200500232225011305C50023A4A400AA
:101F3C001306840693050000EF00803E8320C10049
:101F4C00032481000329010013850400832441002C
:101F5C001301010167800000832785016394070A40
:101F6C00130101FF23248100232611009707000091
:101F7C00938787F62324F5022324050423260504DE
:101F8C002328050483A7C180130405006316F500FC
:101F9C0093071000232CF50013050400EF00C00676
:101FAC002322A40013050400EF0000062324A40040
:101FBC0013050400EF0040052326A400032544006C
:101FCC001306000093054000EFF05FE80325840042
:101FDC001306100093059000EFF05FE70325C40093
:101FEC001306200093052001EFF05FE69307100025
:101FFC008320C100232CF400032481001301010170
:10200C006780000067800000130101FF232291000C
:10201C0083A4C18083A784012320210123261100DE
:10202C00232481001309050063960700138504001F
:10203C00EFF09FF29384840403A4840083A74400EC
:10204C009387F7FF63DA070083A704006380070810
:10205C0083A404006FF05FFE0317C400631407062B
:10206C00B707FFFF938717002322040623200400E1
:10207C0023220400232404002326F4002328040034
:10208C00232A0400232C040013068000930500006F
:10209C001305C405EF00C028232A0402232C0402D4
:1020AC0023240404232604048320C1001305040004
:1020BC000324810083244100032901001301010141
:1020CC0067800000130484066FF09FF793054000AF
:1020DC0013050900EFF0DFE023A0A40013040500B2
:1020EC00E31805F69307C0002320F9006FF0DFFB1F
:1020FC00130101FD2324810223202103232E31010E
:10210C00232C41012328610123267101232611026E
:10211C0023229102232A510113090500138A050079
:10212C001304850493090000130B1000930BF0FFAC
:10213C0083248400832A4400938AFAFF63DE0A0214
:10214C0003240400E31604FE8320C102032481024D
:10215C008324410203290102032A8101832A4101BC
:10216C00032B0101832BC100138509008329C101B5
:10217C00130101036780000083D7C400637EFB005A
:10218C008397E400638A77019385040013050900A3
:10219C00E7000A00B3E9A900938484066FF0DFF925
:1021AC00130101F923202107138905008395E5000C
:1021BC0023248106232291062326110613040600EC
:1021CC009384060063DE05008357C90023A0040036
:1021DC0093F70708639C0702930700406F004003C6
:1021EC0013068100EF00102FE34005FE0327C1000A
:1021FC00B7F70000B3F7E70037E7FFFFB387E70057
:10220C0093B7170023A0F4006FF01FFD9307000491
:10221C008320C1062320F400032481068324410675
:10222C000329010613050000130101076780000054
:10223C0083D7C500130101FE232C8100232E11002E
:10224C00232A91002328210193F7270013840500EA
:10225C0063880702930774042320F4002328F400F6
:10226C0093071000232AF4008320C1010324810169
:10227C00832441010329010113010102678000003D
:10228C009306C1001306810013090500EFF05FF1FE
:10229C00832581009304050013050900EF004026F7
:1022AC00631005028317C40013F70720E31E07FA17
:1022BC0093F7C7FF93E727002316F4006FF09FF9FD
:1022CC0097070000938747C12324F9028357C40062
:1022DC002320A4002328A40093E707082316F40066
:1022EC0083278100232AF4008327C100638207021D
:1022FC008315E40013050900EF001022630A0500A2
:10230C008357C40093F7C7FF93E717002316F40015
:10231C000355C400B3E4A400231694006FF0DFF45B
:10232C001303F00013070500637EC3029377F700D5
:10233C006390070A63920508937606FF1376F600FE
:10234C00B386E6002320B7002322B7002324B7006E
:10235C002326B70013070701E366D7FE63140600B4
:10236C0067800000B306C3409396260097020000D6
:10237C00B38656006780C6002307B700A306B700D4
:10238C002306B700A305B7002305B700A304B700C5
:10239C002304B700A303B7002303B700A302B700BD
:1023AC002302B700A301B7002301B700A300B700B5
:1023BC002300B7006780000093F5F50F9396850016
:1023CC00B3E5D50093960501B3E5D5006FF0DFF6C4
:1023DC009396270097020000B38656009382000064
:1023EC00E78006FA93800200938707FF3307F740D4
:1023FC003306F600E378C3F66FF0DFF36380051065
:10240C0083A7C5FF130101FE232C8100232E11008D
:10241C001384C5FF63D407003304F4002326A10002
:10242C00EF00501A13874181832707000325C10051
:10243C0013060700639E0700232204002320870055
:10244C00032481018320C101130101026F00D01705
:10245C006376F402832604003307D400639AE70002
:10246C0003A7070083A747003307D7002320E40006
:10247C002322F400232086006FF09FFC13870700B3
:10248C0083A7470063840700E37AF4FE83260700E2
:10249C003306D7006318860203260400B386C600F1
:1024AC002320D7003306D700E39CC7F803A6070008
:1024BC0083A74700B306D6002320D7002322F700BA
:1024CC006FF01FF86378C4009307C0002320F50059
:1024DC006FF01FF703260400B306C400639AD700FD
:1024EC0083A6070083A74700B386C6002320D40029
:1024FC002322F400232287006FF09FF467800000F2
:10250C00130101FE232A91009384350093F4C4FF38
:10251C0023282101232E1100232C81002326310195
:10252C00938484009307C0001309050063F6F40636
:10253C009304C00063E4B40613050900EF0090088F
:10254C009387418103A707009386070013040700B4
:10255C00631A04061384818183270400639A07009D
:10256C009305000013050900EF0000572320A40079
:10257C009385040013050900EF0000569309F0FF42
:10258C00631A350B9307C0002320F90013050900CB
:10259C00EF0090036F000001E3DE04F89307C00026
:1025AC002320F900130500008320C10103248101BD
:1025BC0083244101032901018329C1001301010274
:1025CC006780000083270400B387974063CE07041D
:1025DC001306B000637AF6002320F4003304F400F1
:1025EC00232094006F00000183274400631A8702A4
:1025FC0023A0F60013050900EF00007D1305B400BD
:10260C0093074400137585FF3307F540E30EF5F887
:10261C003304E400B387A7402320F4006FF0DFF805
:10262C002322F7006FF01FFD13070400032444005E
:10263C006FF01FF2130435001374C4FFE30285FA24
:10264C00B305A44013050900EF000049E31A35F95E
:10265C006FF05FF3832786009387F7FF2324F60040
:10266C0063DC07000327860163C6E7009307A0001D
:10267C006394F5006FF0CF9F832706001385050048
:10268C00138717002320E6002380B7006780000023
:10269C00130101FE232C8100232A91002328210100
:1026AC002326310123244101232E11001309050097
:1026BC009389050013040600B304D600130AF0FF37
:1026CC0063169400130500006F00C00183450400DD
:1026DC001386090013050900EFF0DFF7130414004B
:1026EC00E31045FF8320C1010324810183244101B0
:1026FC00032901018329C100032A8100130101026E
:10270C0067800000130101F6232C8108232A91080D
:10271C002328210923263109232E110823244109BA
:10272C002322510923206109232E7107232C8107B1
:10273C00232A9107930905009384050013090600C9
:10274C001384060063080500832785016394070042
:10275C00EFF09F80971700009387C7F06392F412F5
:10276C0083A4490083D7C40093F78700638E0712B4
:10277C0083A70401638A071293070002A304F102E2
:10278C0093070003232201022305F1022326810073
:10279C00130B5002971A0000938ACAF0930B100087
:1027AC0017ECFF7F130C4C851304090083470400BE
:1027BC0063840700639E6713B30C244163062403F0
:1027CC0093860C00130609009385040013850900F9
:1027DC00EFF01FEC9307F0FF6306F52C8327410203
:1027EC00B38797012322F10283470400638C072AE5
:1027FC009307F0FF1309140023280100232E010076
:10280C00232AF100232C0100A3090104232401062F
:10281C00834509001306500013850A00EF00405849
:10282C0083270101130419006318050C13F7070122
:10283C006306070013070002A309E10413F78700DE
:10284C00630607001307B002A309E10483460900DD
:10285C001307A002638EE60A0327C10113040900C3
:10286C0093070000130690008346040093051400A0
:10287C00938606FD6372D6186396070A6F00000CE8
:10288C0097170000938707E06396F40083A48900F0
:10289C006FF05FED971700009387C7DAE394F4ECC1
:1028AC0083A4C9006FF01FEC938504001385090005
:1028BC00EFF08F8FE30205EC1305F0FF8320C109C5
:1028CC000324810983244109032901098329C108AF
:1028DC00032A8108832A4108032B0108832BC10793
:1028EC00032C8107832C41071301010A6780000028
:1028FC00130414006FF09FEB330555413395AB0077
:10290C00B3E7A7002328F100130904006FF05FF070
:10291C000327C10093064700032707002326D10095
:10292C0063460700232EE1006F0040013307E040AF
:10293C0093E72700232EE1002328F100034704002E
:10294C009307E0026316F702034714009307A002F3
:10295C006316F70C8327C100130424001387470068
:10296C0083A707002326E10063C6070A232AF10088
:10297C00834504001306300017150000130505D31A
:10298C00EF0000426304050297170000938707D2FB
:10299C003305F54093070004B397A7000325010105
:1029AC00130414003365F5002328A10083450400AB
:1029BC001306600017150000130585CF13091400CA
:1029CC002304B102EF00C03D6308050E63160C0A28
:1029DC00032701018327C10013770710630607083B
:1029EC00938747002326F10083274102B3874701D1
:1029FC002322F1026FF05FDB93172700B387E70008
:102A0C00939717003387D7001384050093071000A2
:102A1C006FF09FE59307F0FF6FF05FF51304140060
:102A2C00232A0100930700001307000013069000EF
:102A3C008346040093051400938606FD6378D60044
:102A4C00E38807F2232AE1006FF09FF29317270027
:102A5C00B387E700939717003387D70013840500DB
:102A6C00930710006FF0DFFC9387770093F787FFD5
:102A7C00938787006FF01FF71307C10097060000BC
:102A8C00938646C113860400930501011385090042
:102A9C0097000000E70000009307F0FF130A050001
:102AAC00E314F5F483D7C40093F70704E39607E027
:102ABC00032541026FF09FE01307C1009706000049
:102ACC00938646BD13860400930501011385090006
:102ADC00EF00C04A6FF05FFC130101FF232481005B
:102AEC00130405001385050023A00194232611006F
:102AFC00EFD00FE99307F0FF6318F50083A701945B
:102B0C00638407002320F4008320C1000324810088
:102B1C001301010167800000130101FF23248100D0
:102B2C00138405008395E50023261100EF00900126
:102B3C006340050283274405B387A700232AF404C6
:102B4C008320C10003248100130101016780000070
:102B5C008357C40037F7FFFF1307F7FFB3F7E700FE
:102B6C002316F4006FF0DFFD83D7C500130101FEBF
:102B7C00232C8100232A91002328210123263101B3
:102B8C00232E110093F707109304050013840500FE
:102B9C001309060093890600638A07008395E500F4
:102BAC009306200013060000EF00001B8357C4009F
:102BBC0037F7FFFF1307F7FFB3F7E7008315E400C0
:102BCC002316F400032481018320C101938609009C
:102BDC00130609008329C100032901011385040090
:102BEC0083244101130101026F004006130101FF10
:102BFC0023248100138405008395E500232611000E
:102C0C00EF0080159307F0FF0357C4006312F50221
:102C1C00B7F7FFFF9387F7FFB3F7E7002316F4002E
:102C2C008320C1000324810013010101678000008F
:102C3C00B7170000B367F7002316F400232AA40487
:102C4C006FF01FFE8395E5006F00C004130101FFB8
:102C5C002324810013040500138505009305060049
:102C6C001386060023A0019423261100EFD0CFD8A1
:102C7C009307F0FF6318F50083A7019463840700A2
:102C8C002320F4008320C1000324810013010101DF
:102C9C0067800000130101FF232481001304050049
:102CAC001385050023A0019423261100EFD04FC0FB
:102CBC009307F0FF6318F50083A701946384070062
:102CCC002320F4008320C10003248100130101019F
:102CDC0067800000130101FF232481001304050009
:102CEC00138505009305060023A0019423261100EB
:102CFC00EFD0CFBD9307F0FF6318F50083A70194C5
:102D0C00638407002320F4008320C1000324810086
:102D1C001301010167800000130101FF23248100CE
:102D2C00130405001385050023A00194232611002C
:102D3C00EFD0CFBD9307F0FF6318F50083A7019484
:102D4C00638407002320F4008320C1000324810046
:102D5C001301010167800000130101FF232481008E
:102D6C001304050013850500930506001386060061
:102D7C0023A0019423261100EFD08FBA9307F0FF04
:102D8C006318F50083A70194638407002320F400E3
:102D9C008320C1000324810013010101678000001E
:102DAC0093F5F50F3306C5006316C5001305000037
:102DBC006780000083470500E38CB7FE1305150000
:102DCC006FF09FFE6780000067800000130101FD1B
:102DDC00232C410183A70501130A070003A78500D3
:102DEC002324810223229102232E3101232A510113
:102DFC00232611022320210323286101232671019C
:102E0C00930905001384050093040600938A0600B9
:102E1C0063D4E7009307070023A0F40003473404AE
:102E2C00630607009387170023A0F4008327040090
:102E3C0093F707026388070083A704009387270092
:102E4C0023A0F4000329040013796900631E090010
:102E5C00130B9401930BF0FF8327C40003A704000A
:102E6C00B387E7406342F90883473404B336F00074
:102E7C008327040093F707026390070C13063404AE
:102E8C0093850A0013850900E7000A009307F0FFF9
:102E9C006308F506832704001306400003A704000B
:102EAC0093F767008326C400930400006398C7005F
:102EBC00B384E64063D404009304000083278400A9
:102ECC00032704016356F700B387E740B384F4008B
:102EDC00130900001304A401130BF0FF63902409E1
:102EEC00130500006F0000029306100013060B0080
:102EFC0093850A0013850900E7000A00631A75031D
:102F0C001305F0FF8320C1020324810283244102B4
:102F1C00032901028329C101032A8101832A41016A
:102F2C00032B0101832BC1001301010367800000F7
:102F3C00130919006FF05FF23307D4001306000376
:102F4C00A301C7040347540493871600B307F40086
:102F5C0093862600A381E7046FF05FF293061000BE
:102F6C001306040093850A0013850900E7000A0084
:102F7C00E30865F9130919006FF05FF6130101FC02
:102F8C00232C8102232631032324410323225103C2
:102F9C00232E1102232A91022328210323206103CB
:102FAC00232E7101232C8101232A910183C78501D2
:102FBC00938A060093068007930905001384050085
:102FCC00130A060063EEF60093062006138B3504F5
:102FDC0063ECF6006388072A93068005638ED70E90
:102FEC00930C24046F0040049385D7F993F5F50FE7
:102FFC0093065001E3E6B6FE170600001306466E74
:10300C0093952500B385C50083A60500B386C6003D
:10301C006780060083270700930C240493864700DF
:10302C0083A707002320D7002301F4049307100083
:10303C006F000029832704000326070093F5070877
:10304C009306460063860502832406002320D700DE
:10305C0063D804009307D002B3049040A301F40496
:10306C00970B0000938B4B651309A0006F00C00BEE
:10307C008324060093F707042320D700E38A07FC78
:10308C009394040193D404416FF09FFC0326040035
:10309C008326070013750608938546006308050010
:1030AC002320B70083A406006F00400113760604AA
:1030BC002320B700E30806FE83D406001307F006AE
:1030CC00970B0000938B4B5F1309A000639CE704E4
:1030DC00130980006F000005A382F504970B000014
:1030EC00938B8B5D832704008326070013F6070858
:1030FC0083A4060093864600630C06122320D70097
:10310C0013F717006306070093E707022320F40068
:10311C0013090001639804008327040093F7F7FD5B
:10312C002320F400A3010404832744002324F40087
:10313C0063C80700032704001377B7FF2320E400BC
:10314C0063960400930C0B00638E0702930C0B0028
:10315C009305090013850400EFE00FBC3385AB0029
:10316C00834705009305090013850400A38FFCFE1B
:10317C00138C0400EFE0CFB5938CFCFF9304050097
:10318C00E3782CFD930780006314F9028327040075
:10319C0093F71700638E070003274400832704016D
:1031AC0063C8E70093070003A38FFCFE938CFCFF1E
:1031BC00330B9B412328640113870A0093060A00F2
:1031CC001306C1009305040013850900EFF01FC01E
:1031DC009304F0FF631C950E1305F0FF8320C103CD
:1031EC000324810383244103032901038329C1029E
:1031FC00032A8102832A4102032B0102832BC10182
:10320C00032C8101832C4101130101046780000010
:10321C008327040093E707022320F4009307800719
:10322C00A302F404970B0000938B4B4A6FF09FEBB7
:10323C0013F607042320D700E30406EC939404014F
:10324C0093D404016FF0DFEB83260400832707007F
:10325C000326440113F5060893854700630A05000D
:10326C002320B70083A7070023A0C7006F008001AD
:10327C002320B70093F6060483A70700E38606FE17
:10328C002390C70023280400930C0B006FF0DFF28F
:10329C00832707000326440093050000938647000C
:1032AC002320D70083AC070013850C00EFF05FAF31
:1032BC0063060500330595412322A40083274400AF
:1032CC002328F400A30104046FF01FEF83260401EC
:1032DC0013860C0093050A0013850900E7800A0089
:1032EC00E30C95EE8327040093F7270063940704FF
:1032FC008327C1000325C400E352F5EE13850700B4
:10330C006FF0DFED930610001306090093050A0019
:10331C0013850900E7800A00E30065ED938414002F
:10332C008327C4000327C100B387E740E3CCF4FC38
:10333C006FF01FFC9304000013099401130BF0FFB2
:10334C006FF01FFE130101FF2324810013040500FD
:10335C0013850500930506001386060023A001942F
:10336C0023261100EFC09FDD9307F0FF6318F500D3
:10337C0083A70194638407002320F4008320C100F9
:0C338C0003248100130101016780000090
:103398005472617020696E20457863657074696F36
:1033A8006E0D00004D43415553453A203078256C49
:1033B800780D0A004D45504320203A203078256C7E
:1033C800780D0A004D5456414C203A203078256C2F
:1033D800780D0A005472617020696E20496E746518
:1033E80072727570740D0000464C4153485849502C
:1033F80000000000464C415348000000494C4D0075
:1034080031373A34383A34380000000044656320D4
:10341800313120323032330048756D6D696E674244
:103428006972642053444B204275696C6420546966
:103438006D653A2025732C2025730D0A00000000C5
:10344800446F776E6C6F6164204D6F64653A202518
:10345800730D0A00435055204672657175656E6399
:103468007920256C7520487A0D0A0000252E3278BF
:1034780000000000636970686572746578743A00CA
:103488002B7E151628AED2A6ABF7158809CF4F3C70
:103498003243F6A8885A308D313198A2E037073484
:1034A8002048656C6C6F20576F726C642046726F91
:1034B8006D20524953432D562050726F63657373C4
:1034C8006F72210D0000000054657374696E6720E7
:1034D80041455331323800002A2A2A2A2A2A2A2A20
:1034E8002A2A2A2A2A2A2A2A2A2A2A2A2A2A2A2A34
:1034F8002A2A2A2A2A2A2A2A2A2A2A2A2A2A2A2A24
:103508002A2A2A2A2A2A00002A2A20626567696E3E
:1035180020746F20657875206E6F726D616C206302
:1035280061736500636F6E74657874282564293D3E
:103538002538782025387820253878202538780AC5
:103548000000000000010202030303030404040452
:103558000404040405050505050505050505050517
:1035680005050505060606060606060606060606F7
:1035780006060606060606060606060606060606E3
:1035880006060606070707070707070707070707C7
:1035980007070707070707070707070707070707B3
:1035A80007070707070707070707070707070707A3
:1035B8000707070707070707070707070707070793
:1035C8000707070708080808080808080808080877
:1035D8000808080808080808080808080808080863
:1035E8000808080808080808080808080808080853
:1035F8000808080808080808080808080808080843
:103608000808080808080808080808080808080832
:103618000808080808080808080808080808080822
:103628000808080808080808080808080808080812
:103638000808080808080808080808080808080802
:103648000808080800000000000000000000000052
:103658000000000000000000000000000000000062
:103668000000000000000000000000000000000052
:103678000000000000000000000000000000000042
:103688000000000000000000000000000000000032
:103698000000000000000000000000000000000022
:1036A80000000000232D302B20000000686C4C0027
:1036B8006566674546470000303132333435363762
:1036C8003839414243444546000000003031323326
:1036D8003435363738396162636465660000000046
:1036E80038F9FFFF58F9FFFF04F9FFFF04F9FFFF5E
:1036F80004F9FFFF04F9FFFF58F9FFFF04F9FFFF82
:1037080004F9FFFF04F9FFFF04F9FFFF6CFBFFFF5B
:10371800B0F9FFFF34FBFFFF04F9FFFF04F9FFFFD7
:10372800B4FBFFFF04F9FFFFB0F9FFFF04F9FFFF47
:0837380004F9FFFF40FBFFFF55
:10374000000000006C3600808C3600804C36008013
:103750000000000000000000000000000000000069
:103760000000000000000000000000000000000059
:103770000000000000000000000000000000000049
:103780000000000000000000000000000000000039
:103790000000000000000000000000000000000029
:1037A000A801009000B4C404000000900000009044
:040000058000000077
:00000001FF
