:0200000480007A
:1000000073700430735040309711001093818185D4
:1000100017010110130101FF97020000938282343F
:100020007390523073F05130170500001305450AE4
:10003000970500009385C5096302B50217560000B5
:100040001306C6DE63FCC5008322050023A055000D
:100050001305450093854500E3E8C5FE17550000EC
:100060001305C5DC970500109385C5F9138601813A
:1000700063FCC5008322050023A05500130545003D
:1000800093854500E3E8C5FE138501819385819F33
:100090006378B5002320050013054500E36CB5FE29
:1000A000EF00407C173500001305C592EF201011BA
:1000B000EF20D017EF001045130500009305000056
:0C00C000EF104025EF00905B6F00000087
:1000CC00130101FE232E8100130401022326A4FE3A
:1000DC009387019F1307900023A0E7009307F0FF7D
:1000EC00138507000324C10113010102678000007E
:1000FC00130101FE232E8100130401022326A4FE0A
:10010C002324B4FE0327C4FE930710006308F700F2
:10011C000327C4FE93072000631CF700832784FE8B
:10012C003727000023A2E700930700006F0040016F
:10013C009387019F1307900023A0E7009307F0FF1C
:10014C00138507000324C10113010102678000001D
:10015C00130101FE232E8100130401022326A4FEA9
:10016C0093071000138507000324C101130101023A
:10017C0067800000130101FE232E8100130401028D
:10018C002326A4FE2324B4FE2322C4FE93070000DE
:10019C00138507000324C1011301010267800000CD
:1001AC00130101FD232611022324810213040103F0
:1001BC00232EA4FC232CB4FC232AC4FC8327C4FDCB
:1001CC00638607009307F0FF6F008002832784FD8E
:1001DC002326F4FE37350110EF00C03B93070500D2
:1001EC00138707008327C4FE2380E70093071000C2
:1001FC00138507008320C10203248102130101032C
:10020C0067800000130101FE232E810013040102FC
:10021C002326A4FE97070010938707E403A7070083
:10022C008327C4FE3307F7009387819F6362F7022D
:10023C0097070010938747E203A707008327C4FEA4
:10024C003307F70097F700109387075B63F6E70017
:10025C009307F0FF6F00C003970700109387C7DF69
:10026C0003A707008327C4FE3307F7009707001086
:10027C00938787DE23A0E700970700109387C7DDDD
:10028C0003A707008327C4FEB307F040B307F700AA
:10029C00138507000324C1011301010267800000CC
:1002AC00130101FD232611022324810213040103EF
:1002BC00232EA4FC232CB4FC232AC4FC0325C4FD4C
:1002CC00EF20D02E93070500639607009307F0FFED
:1002DC006F000007832784FD2324F4FE232604FEED
:1002EC006F000005032784FE8327C4FEB307F700C5
:1002FC0003C707009307A0006318F7009305D0000D
:10030C0037350110EF00C022032784FE8327C4FE7B
:10031C00B307F70083C70700938507003735011033
:10032C00EF0000218327C4FE938717002326F4FED9
:10033C000327C4FE832744FDE366F7FA832744FDB5
:10034C00138507008320C1020324810213010103DA
:10035C0067800000130101FB2320110023224100C0
:10036C00232451002326610023287100232AA10095
:10037C00232CB100232EC1002320D1022322E10221
:10038C002324F102232C0103232E11032320C10566
:10039C002322D1052324E1052326F105F322103471
:1003AC0023265102F322203423285102F322003059
:1003BC00232A51027325203493050100EF00806B32
:1003CC008322C1027390123483220103739022346E
:1003DC0083224103739002308320010003224100E9
:1003EC00832281000323C1008323010103254101E2
:1003FC00832581010326C1018326010203274102C3
:10040C0083278102032881038328C103032E01045F
:10041C00832E4104032F8104832FC1041301010592
:10042C0073002030130101FE232E810013040102FE
:10043C002326A4FE2324B4FE8327C4FE93B71700FF
:10044C0093F7F70F638607009307F0FF6F00000226
:10045C008327C4FE03A7C701832784FE3367F700F5
:10046C008327C4FE23AEE700930700001385070023
:10047C000324C1011301010267800000130101FD77
:10048C00232611022324810213040103232EA4FC2E
:10049C00232CB4FC8327C4FD93B7170093F7F70FF5
:1004AC00638607009307F0FF6F0040079707001063
:1004BC009387C7BA83A70700832584FD138507009C
:1004CC00EF204044930705009387F7FF2326F4FEA3
:1004DC008327C4FD1307000823A6E7008327C4FE67
:1004EC0093D7870013F7F70F8327C4FD23A2E700E8
:1004FC008327C4FE13F7F70F8327C4FD23A0E7005F
:10050C008327C4FD1307600C23A4E7008327C4FDD5
:10051C001307300023A6E70093070000138507009C
:10052C008320C102032481021301010367800000B0
:10053C00130101FE232E8100130401022326A4FEC5
:10054C0093870500A305F4FE8327C4FE93B7170019
:10055C0093F7F70F638607009307F0FF6F00800295
:10056C00130000008327C4FE83A7470193F70702FB
:10057C00E38A07FE0347B4FE8327C4FE23A0E700EB
:10058C0093070000138507000324C1011301010226
:10059C0067800000130101FD23268102130401036F
:1005AC00232EA4FC8327C4FD93B7170093F7F70FF2
:1005BC00638607009307F00F6F00C0021300000062
:1005CC008327C4FD83A7470193F71700E38A07FE2F
:1005DC008327C4FD83A707002326F4FE8327C4FECC
:1005EC0093F7F70F138507000324C10213010103CE
:1005FC0067800000130101FF232681001304010111
:10060C00B7870000138507000324C1001301010103
:10061C0067800000130101FC232E1102232C8102A0
:10062C00232A9102130401042326A4FCEFF09FFC5F
:10063C002326A4FE37070002B7C70000B307F70054
:10064C0003A787FF83A7C7FF2324E4FE3707000215
:10065C00B7C70000B307F70003A787FF83A7C7FF3F
:10066C002322E4FEF32700B0938007009387000059
:10067C002320F4FE032744FE832784FEE308F7FCC3
:10068C0037070002B7C70000B307F70003A787FFBF
:10069C0083A7C7FF832744FEB307F740232EF4FC40
:1006AC00F32700B09380070013870000832704FE14
:1006BC00B307F740232CF4FC0327C4FD8327C4FCA9
:1006CC00E360F7FC8325C4FD032584FDEF20802324
:1006DC00930705008325C4FE13850700EF20C01F78
:1006EC009307050093840700832784FD8325C4FDAD
:1006FC0013850700EF208025930705008325C4FE92
:10070C0013850700EF20401D930705008325C4FDCA
:10071C0013850700EF20001F93070500B387F40033
:10072C00138507008320C103032481038324410321
:10073C001301010467800000130101FE232E110038
:10074C00232C81001304010213051000EFF09FEC21
:10075C0013054006EFF01FEC2326A4FE8327C4FEEE
:10076C00138507008320C1010324810113010102B9
:10077C0067800000130101FC232E1102232C81023F
:10078C00130401042326A4FC8327C4FC138607004E
:10079C0093060000935716019398F600B3E81701DF
:1007AC001318F6001306803E93060000130508008C
:1007BC0093850800EF10D0341307050093870500CC
:1007CC002324E4FE2326F4FE37070002B7C70000FB
:1007DC00B307F70003A787FF83A7C7FF2320E4FE17
:1007EC002322F4FE37070002B7C70000B307F70057
:1007FC0003A887FF83A8C7FF032504FE832544FEB7
:10080C003306A84093070600B337F800B386B84008
:10081C00B387F64093860700232CC4FC232ED4FC0C
:10082C000327C4FE8327C4FDE3EEE7FA0327C4FEC7
:10083C008327C4FD6318F700032784FE832784FDF8
:10084C00E3E2E7FA130000008320C10303248103D1
:10085C001301010467800000130101FF23268100AE
:10086C001304010197F7FF0F9387477F37B7C40431
:10087C001307074023A0E700130000000324C10066
:10088C001301010167800000130101FE232E1100EA
:10089C00232C8100130401022326A4FE2324B4FE7E
:1008AC00174500001305C502EF20804F8325C4FEB9
:1008BC001745000013050503EF200021F327103422
:1008CC00938007009387000093850700174500006D
:1008DC0013054502EF20401FF327303493800700A7
:1008EC0093870000938507001745000013058501C9
:1008FC00EF20801D6F000000130101FE232E11005C
:10090C00232C8100130401022326A4FE2324B4FE0D
:10091C001745000013050500EF2080488325C4FE11
:10092C0017450000130505FCEF20001AF3271034BF
:10093C0093800700938700009385070017450000FC
:10094C00130545FBEF204018F32730349380070044
:10095C00938700009385070017450000130585FA5F
:10096C00EF208016130000008320C10103248101B5
:10097C001301010267800000130101FE232E810088
:10098C0013040102232604FE6F0000031707000066
:10099C001307C7EF97F6FF0F9386C66D8327C4FE28
:1009AC0093972700B387F60023A0E7008327C4FEA4
:1009BC00938717002326F4FE0327C4FE9307A00099
:1009CC00E3D6E7FC13000000130000000324C10170
:1009DC001301010267800000130101FE232E810028
:1009EC0013040102232604FE6F0000031707000006
:1009FC001307C7F097F6FF0F9386866A8327C4FE0A
:100A0C0093972700B387F60023A0E7008327C4FE43
:100A1C00938717002326F4FE0327C4FE93070001D7
:100A2C00E3D6E7FC232604FE6F00C0021707000084
:100A3C001307C7EC9386C1888327C4FE93972700BE
:100A4C00B387F60023A0E7008327C4FE9387170023
:100A5C002326F4FE0327C4FE93079000E3D8E7FC9B
:100A6C0013000000130000000324C1011301010254
:100A7C0067800000130101FC232E1102232C81023C
:100A8C00232A9102130401042326A4FC2324B4FC7E
:100A9C008327C4FC63DA0710232604FE0327C4FC57
:100AAC00B71700009387F7FFB377F7002324F4FE02
:100ABC00032784FE9307B000631CF70AF32740F169
:100ACC0093840700938704002322F4FE832744FEBB
:100ADC001397C700B707200C93874700B307F7009D
:100AEC002320F4FE832704FE83A707002324F4FEAF
:100AFC00032784FE9307000163E4E70A17F7FF0F4F
:100B0C001307075A832784FE93972700B307F70030
:100B1C0083A707002326F4FE8327C4FE638A0700FD
:100B2C008327C4FE832584FC0325C4FCE7800700CF
:100B3C00832784FE232EF4FCF32740F193840700D3
:100B4C0093870400232CF4FC832784FD1397C700A0
:100B5C00B707200C93874700B307F700232AF4FC50
:100B6C00832744FD0327C4FD23A0E7006F00400347
:100B7C001387C188832784FE93972700B307F70058
:100B8C0083A707002326F4FE8327C4FE638A07008D
:100B9C008327C4FE832584FC0325C4FCE78007005F
:100BAC00930700006F004001832584FC0325C4FCDF
:100BBC00EF00000293070500138507008320C10393
:100BCC000324810383244103130101046780000083
:100BDC00130101FD232611022324810213040103B6
:100BEC00232EA4FC232CB4FC0327C4FDB717000050
:100BFC009387F7FFB377F7002324F4FE032784FED3
:100C0C009307A00063E2E70217F7FF0F130787466D
:100C1C00832784FE93972700B307F70083A7070069
:100C2C002326F4FE6F00000197070000938707C688
:100C3C002326F4FE8327C4FE638A07008327C4FEA1
:100C4C00832584FD0325C4FDE7800700930700007E
:100C5C00138507008320C1020324810213010103C1
:100C6C0067800000130101FE232E1100232C81004C
:100C7C001304010297470000938707CB2322F4FE4D
:100C8C0097470000938707CB2324F4FE9747000077
:100C9C009387C7CA2326F4FE17460000130646CADC
:100CAC0097450000938585CA174500001305C5CAF2
:100CBC00EF1090618327C4FE938507001745000051
:100CCC00130505CCEF10506097F7FF0F938707398A
:100CDC0083A707009385070017450000130585CBF4
:100CEC00EF10905E130000008320C10103248101EA
:100CFC001301010267800000130101FC232E110275
:100D0C00232C8102232A910213040104EFF0DFA2A9
:100D1C001307050097F7FF0F9387473423A0E700CD
:100D2C00B705030037250110EFF0CFEFB7C701006F
:100D3C009385072037350110EFF04FF4EFF09FF259
:100D4C00EFF09FC3EFF05FC9930710012326F4FE69
:100D5C00232404FE6F00C00B832784FE2322F4FEA1
:100D6C00F32740F193840700938704002320F4FEBB
:100D7C00832704FE13977700832744FE93D75700ED
:100D8C00939727003307F700B727000CB307F7003A
:100D9C00232EF4FC8327C4FD83A70700232CF4FC2B
:100DAC00832744FE93F7F70113071000B317F700DE
:100DBC0093C7F7FF13870700832784FDB3F7E7007A
:100DCC00232CF4FC8327C4FD032784FD23A0E70018
:100DDC0013000000832784FE232AF4FC232804FC40
:100DEC00832744FD13972700B707000CB307F700C0
:100DFC002326F4FC8327C4FC032704FD23A0E7006F
:100E0C0013000000832784FE938717002324F4FE2D
:100E1C000327C4FE832784FEE3E0E7F4232404FCC9
:100E2C00F32740F193840700938704002322F4FCFA
:100E3C00832744FC1397C700B707200CB307F700B0
:100E4C002320F4FC832704FC032784FC23A0E70065
:100E5C001300000013000000130000008320C103E6
:100E6C0003248103832441031301010467800000E0
:100E7C00130101FE232E8100130401022326A4FE7C
:100E8C00130000000324C10113010102678000005C
:100E9C00130101FF2326810013040101130000003C
:100EAC000324C1001301010167800000130101FF3D
:100EBC002326810013040101130000000324C10048
:100ECC00130101016780000083AE050003AF4500EC
:100EDC0083AF850083A8C500832206000323460048
:100EEC0083238600032EC60093964600B306D600D5
:100EFC006F0040048BE2D2018BE2E2038BE2F2053D
:100F0C008BE212070B63E3010B63F3030B63130513
:100F1C000B63D3078BE3F3018BE313038BE3D30551
:100F2C008BE3E3070B6E1E010B6EDE030B6EEE05FF
:100F3C000B6EFE07832E0601032F4601832F8601BD
:100F4C008328C6018BEE5E008BEE6E028BEE7E0468
:100F5C008BEECE070B6F6F000B6F7F020B6FCF0505
:100F6C000B6F5F068BEF7F008BEFCF038BEF5F0474
:100F7C008BEF6F068BE8C8018BE858028BE868048E
:100F8C008BE878061306060283220600032346002C
:100F9C0083238600032EC600E39EC6F48BE2D2099F
:100FAC008BE2E20B8BE2F20D8BE2120F0B63E30987
:100FBC000B63F30B0B63130D0B63D30F8BE3F30971
:100FCC008BE3130B8BE3D30D8BE3E30F0B6E1E093B
:100FDC000B6EDE0B0B6EEE0D0B6EFE0F2320550011
:100FEC0023226500232475002326C5016780000099
:100FFC00371600801306C61D9306050A83A205004A
:10100C0003A3450083A3850003AEC5002320550030
:10101C0023226500232475002326C50193C21200E8
:10102C006F0000011306160083450600B3C255007D
:10103C0013178E0193558E00B365B7008BE2B2087F
:10104C008BE2B20A8BE2B20C8BE2B20E334353004A
:10105C00B3C36300334E7E001305050123205500F6
:10106C0023226500232475002326C501E31CD5FA31
:10107C0067800000371600801306C61D9306050C0A
:10108C0083A2050003A3450083A3850003AEC5001E
:10109C0083AE050103AF45012320550023226500D3
:1010AC00232475002326C50193C212006F00000192
:1010BC001306160083450600B3C255002328D5013C
:1010CC00232AE50113178F0193558F00B3E5E50033
:1010DC008BE2B2088BE2B20A8BE2B20C8BE2B20E5C
:1010EC0033435300B3C36300334E7E00B3CECE0103
:1010FC00334FDF01130585012320550023226500A2
:10110C00232475002326C501E314D5FA678000005B
:10111C00371600801306C61D9306050E83A2050024
:10112C0003A3450083A3850003AEC50083AE050170
:10113C0003AF450183AF850183A8C501232055006A
:10114C0023226500232475002326C50193C21200B7
:10115C006F00C0028BEECE098BEECE0B8BEECE0D5C
:10116C008BEECE0F334FDF01B3CFEF01B3C8F801D5
:10117C001306160083450600B3C255002328D5017B
:10118C00232AE501232CF501232E15011397880141
:10119C0093D58800B3E5E5008BE2B2088BE2B20A86
:1011AC008BE2B20C8BE2B20E33435300B3C3630039
:1011BC00334E7E00130505022320550023226500C3
:1011CC00232475002326C501E316D5F8678000009B
:1011DC0001020408102040801B360000130101FDA1
:1011EC00232611022324810213040103232EA4FCC1
:1011FC00930700012307F4FEA30704FE6F0000030E
:10120C008347F4FE0327C4FDB307F70083C7070029
:10121C00938507001735000013054579EF10D00AA8
:10122C008347F4FE93871700A307F4FE0347F4FEED
:10123C008347E4FEE366F7FC1305A000EF10900F64
:10124C00130000008320C102032481021301010357
:10125C0067800000130101F12326110E2324810E57
:10126C001304010F973700009387877503A60700B7
:10127C0083A6470003A7870083A7C7002320C4FECB
:10128C002322D4FE2324E4FE2326F4FE9737000009
:10129C009387077403A6070083A6470003A787005C
:1012AC0083A7C7002328C4FC232AD4FC232CE4FCEA
:1012BC00232EF4FC173500001305C56FEF10502ECC
:1012CC00130704FE930704F1930507001385070029
:1012DC00EF00D014130704FD930704F193050700E6
:1012EC0013850700EF00107E930704FD138507009C
:1012FC00EFF0DFEE130000008320C10E0324810EFB
:10130C001301010F67800000130101E92326111658
:10131C00232481162322211723203117232E411534
:10132C00232C5115232A6115232871152326811589
:10133C00232491152322A1152320B1151304011781
:10134C00973700009387C76803A6070083A647005A
:10135C0003A7870083A7C7002324C4F62326D4F64B
:10136C002328E4F6232AF4F6973700009387476581
:10137C0003A6070083A6470003A7870083A7C7001F
:10138C00232CC4F4232ED4F42320E4F62322F4F6E5
:10139C00232204FC1735000013058564EF10502040
:1013AC001735000013054566EF10901F1735000028
:1013BC0013058566EF10D01E173500001305C568A0
:1013CC00EF10101EF32720B89380070093870000BE
:1013DC002322F4F4F32720B09380070093870000B6
:1013EC002320F4F4F32720B89380070093870000A0
:1013FC00232EF4F2032744F48327C4F3630AF70083
:10140C00F32720B093800700938700002320F4F487
:10141C008327C4F32324F4EA232604EA832784EAEB
:10142C00939707002322F4EA232004EA832704F489
:10143C00232CF4E8232E04E8032504EA832544EA4C
:10144C0093070500032684E98326C4E913070600E5
:10145C00B3E7E700232CF4F6938705001387060007
:10146C00B3E7E700232EF4F6032784F78327C4F7AA
:10147C002320E4FCF32700B8938007009387000037
:10148C00232CF4F2F32700B093800700938700001D
:10149C00232AF4F2F32700B8938007009387000007
:1014AC002328F4F2032784F3832704F3630AF70059
:1014BC00F32700B09380070093870000232AF4F2EF
:1014CC00832704F32320F4EC232204EC832704EC7D
:1014DC0093970700232EF4EA232C04EA832744F382
:1014EC002328F4EA232A04EA032584EB8325C4EB9E
:1014FC0093070500032604EB832644EB1307060031
:10150C00B3E7E7002320F4F8938705001387060060
:10151C00B3E7E7002322F4F8032704F8832744F801
:10152C00232EE4FAEFF01FD30327C4FC832704FC1B
:10153C00B307F740232CF4FA032784FC8327C4FB5E
:10154C00B307F740232AF4FA173500001305C54CEE
:10155C00EF101005173500001305C550EF1050049F
:10156C00F32720B893800700938700002326F4F21A
:10157C00F32720B093800700938700002324F4F214
:10158C00F32720B893800700938700002322F4F2FE
:10159C000327C4F2832744F2630AF700F32720B031
:1015AC0093800700938700002324F4F2832744F2EE
:1015BC00232CF4EC232E04EC832784ED9397070063
:1015CC00232AF4EC232804EC832784F22324F4EC60
:1015DC00232604EC032504ED832544ED9307050035
:1015EC00032684EC8326C4EC13070600B3E7E7005C
:1015FC002324F4F89387050013870600B3E7E7006C
:10160C002326F4F8032784F88327C4F82320E4FC6A
:10161C00F32700B893800700938700002320F4F28F
:10162C00F32700B09380070093870000232EF4F07B
:10163C00F32700B89380070093870000232CF4F065
:10164C00032704F2832784F1630AF700F32700B021
:10165C009380070093870000232EF4F0832784F1F6
:10166C002328F4EE232A04EE832704EF9397070034
:10167C002326F4EE232404EE8327C4F12320F4EE76
:10168C00232204EE032584EE8325C4EE9307050084
:10169C00032604EE832644EE13070600B3E7E700A7
:1016AC002328F4F89387050013870600B3E7E700B7
:1016BC00232AF4F8032704F9832744F9232EE4FAA8
:1016CC0097F7FF0F938787A483A5070097F7FF0F62
:1016DC009387C7A303A6470097F7FF0F938707A32A
:1016EC0083A6870097F7FF0F938747A283A7C700AE
:1016FC00138707001735000013058538EF10C03C21
:10170C00130784F6930784F49306A00017F6FF0FD3
:10171C001306C69F9305070013850700EFF0CFFA59
:10172C00F32720B89380070093870000232AF4F056
:10173C00F32720B093800700938700002328F4F050
:10174C00F32720B893800700938700002326F4F03A
:10175C00032744F18327C4F0630AF700F32720B072
:10176C0093800700938700002328F4F08327C4F0AC
:10177C00138C0700930C0000931D0C00130D00003C
:10178C00832704F1232CF4EE232E04EE032684EF9E
:10179C008326C4EF93070600B367FD00232CF4F8EF
:1017AC0093870600B3E7FD00232EF4F8032784F992
:1017BC008327C4F92326E4FCF32700B893800700A1
:1017CC00938700002324F4F0F32700B093800700E4
:1017DC00938700002322F4F0F32700B893800700CE
:1017EC00938700002320F4F0032784F0832704F070
:1017FC00630AF700F32700B093800700938700007B
:10180C002322F4F0832704F01389070093090000C6
:10181C00931A0900130A0000832744F0138B070066
:10182C00930B0000B3676A012320F4FAB3E77A0143
:10183C002322F4FA032704FA832744FA2324E4FC32
:10184C000327C4FC832704FCB307F7402328F4FACE
:10185C00032784FC8327C4FBB307F7402326F4FA41
:10186C00173500001305451BEF108053173500008A
:10187C0013050523EF10C052173500001305C523BF
:10188C00EF100052032644FB832584FB1735000020
:10189C0013054523EF10402317350000130585244D
:1018AC00EF1000500326C4FA832504FB1735000003
:1018BC0013054521EF104021173500001305452372
:1018CC00EF10004E930784F413850700EFF01F917F
:1018DC0013051000EFE01FEA6FF05FAD130101FC80
:1018EC00232E8102130401042326A4FC2324B4FC1C
:1018FC00232604FE6F00800C8327C4FE93972700D9
:10190C00032784FC3307F7008327C4FE9397270033
:10191C008326C4FCB387F600034707002380E70047
:10192C008327C4FE9397270093871700032784FC13
:10193C003307F7008327C4FE93972700938717007C
:10194C008326C4FCB387F600034707002380E70017
:10195C008327C4FE9397270093872700032784FCD3
:10196C003307F7008327C4FE93972700938727003C
:10197C008326C4FCB387F600034707002380E700E7
:10198C008327C4FE9397270093873700032784FC93
:10199C003307F7008327C4FE9397270093873700FC
:1019AC008326C4FCB387F600034707002380E700B7
:1019BC008327C4FE938717002326F4FE0327C4FE57
:1019CC0093073000E3FAE7F2930740002326F4FE76
:1019DC006F00C0228327C4FE9387F7FF93972700DD
:1019EC002324F4FE0327C4FC832784FEB307F700EB
:1019FC0083C70700230EF4FC832784FE938717000C
:101A0C000327C4FCB307F70083C70700A30EF4FC3D
:101A1C00832784FE938727000327C4FCB307F700B2
:101A2C0083C70700230FF4FC832784FE93873700BA
:101A3C000327C4FCB307F70083C70700A30FF4FC0C
:101A4C008327C4FE93F737006392070C8347C4FDCA
:101A5C00A303F4FE8347D4FD230EF4FC8347E4FD7B
:101A6C00A30EF4FC8347F4FD230FF4FC834774FEB0
:101A7C00A30FF4FC8347C4FD1387070097370000BE
:101A8C009387070AB387E70083C70700230EF4FC8C
:101A9C008347D4FD138707009737000093874708C7
:101AAC00B387E70083C70700A30EF4FC8347E4FD6C
:101ABC00138707009737000093878706B387E700E3
:101ACC0083C70700230FF4FC8347F4FD138707003B
:101ADC00973700009387C704B387E70083C70700D5
:101AEC00A30FF4FC0347C4FD8327C4FE93D7270040
:101AFC00973600009386C612B387F60083C707009B
:101B0C00B347F70093F7F70F230EF4FC8327C4FEBB
:101B1C00939727002320F4FE8327C4FE9387C7FFE7
:101B2C00939727002324F4FE0327C4FC832784FE09
:101B3C00B307F70083C607000347C4FD0326C4FCA4
:101B4C00832704FEB307F60033C7E6001377F70FBD
:101B5C002380E700832784FE938717000327C4FCA8
:101B6C00B307F70083C607000347D4FD832704FEA1
:101B7C00938717000326C4FCB307F60033C7E600AF
:101B8C001377F70F2380E700832784FE93872700C2
:101B9C000327C4FCB307F70083C607000347E4FD23
:101BAC00832704FE938727000326C4FCB307F600A3
:101BBC0033C7E6001377F70F2380E700832784FEF3
:101BCC00938737000327C4FCB307F70083C60700CD
:101BDC000347F4FD832704FE938737000326C4FCD8
:101BEC00B307F60033C7E6001377F70F2380E7003F
:101BFC008327C4FE938717002326F4FE0327C4FE15
:101C0C009307B002E3F8E7DC1300000013000000B8
:101C1C000324C1031301010467800000130101FEBA
:101C2C00232E1100232C8100130401022326A4FE71
:101C3C002324B4FE8327C4FE832584FE138507006A
:101C4C00EFF0DFC9130000008320C10103248101E0
:101C5C001301010267800000130101FD232681029C
:101C6C001304010393070500232CB4FC232AC4FCA2
:101C7C00A30FF4FCA30704FE6F00C009230704FEA6
:101C8C006F00C0070347F4FE8347E4FE832684FD00
:101C9C00131727003387E600B307F70003C60700C6
:101CAC008347F4FD139727008347F4FEB307F7002F
:101CBC00139727008347E4FEB307F7001387070049
:101CCC00832744FDB387E70003C707008346F4FE70
:101CDC008347E4FE3347E6001377F70F032684FDB2
:101CEC0093962600B306D600B387F6002380E70050
:101CFC008347E4FE938717002307F4FE0347E4FEB3
:101D0C0093073000E3F0E7F88347F4FE938717005E
:101D1C00A307F4FE0347F4FE93073000E3F0E7F665
:101D2C0013000000130000000324C102130101037F
:101D3C0067800000130101FD2326810213040103B7
:101D4C00232EA4FCA30704FE6F00C007230704FE88
:101D5C006F00C0050347E4FE8347F4FE8326C4FDF1
:101D6C00131727003387E600B307F70083C7070074
:101D7C00138607008346E4FE8347F4FE1737000002
:101D8C00130707DA3307C700034707000326C4FD10
:101D9C0093962600B306D600B387F6002380E7009F
:101DAC008347E4FE938717002307F4FE0347E4FE02
:101DBC0093073000E3F0E7FA8347F4FE93871700AC
:101DCC00A307F4FE0347F4FE93073000E3F0E7F8B3
:101DDC0013000000130000000324C10213010103CF
:101DEC0067800000130101FD232681021304010307
:101DFC00232EA4FC8327C4FD83C71700A307F4FE7E
:101E0C008327C4FD03C757008327C4FDA380E700C5
:101E1C008327C4FD03C797008327C4FDA382E70073
:101E2C008327C4FD03C7D7008327C4FDA384E70021
:101E3C008327C4FD0347F4FEA386E7008327C4FD74
:101E4C0083C72700A307F4FE8327C4FD03C7A7009D
:101E5C008327C4FD2381E7008327C4FD0347F4FED9
:101E6C002385E7008327C4FD83C76700A307F4FE1F
:101E7C008327C4FD03C7E7008327C4FD2383E70042
:101E8C008327C4FD0347F4FE2387E7008327C4FDA3
:101E9C0083C73700A307F4FE8327C4FD03C7F700ED
:101EAC008327C4FDA381E7008327C4FD03C7B700C4
:101EBC008327C4FDA387E7008327C4FD03C77700EE
:101ECC008327C4FDA385E7008327C4FD0347F4FEE5
:101EDC00A383E700130000000324C10213010103D4
:101EEC0067800000130101FE232E81001304010200
:101EFC0093070500A307F4FE8347F4FE939717009E
:101F0C009396870193D686418347F4FE93D7770047
:101F1C0093F7F70F13870700131737003307F740B2
:101F2C0013172700B307F74093F7F70F9397870121
:101F3C0093D78741B3C7F6009397870193D787410F
:101F4C0093F7F70F138507000324C1011301010256
:101F5C0067800000130101FD232611022324810256
:101F6C0013040103232EA4FCA30704FE6F00002915
:101F7C008347F4FE0327C4FD93972700B307F700AC
:101F8C0083C707002307F4FE8347F4FE0327C4FD31
:101F9C0093972700B307F70003C707008347F4FEA6
:101FAC008326C4FD93972700B387F60083C71700D9
:101FBC00B347F70013F7F70F8347F4FE8326C4FDEE
:101FCC0093972700B387F60083C72700B347F70022
:101FDC0013F7F70F8347F4FE8326C4FD939727006E
:101FEC00B387F60083C73700B347F700A306F4FEA8
:101FFC008347F4FE0327C4FD93972700B307F7002C
:10200C0003C707008347F4FE8326C4FD939727007C
:10201C00B387F60083C71700B347F7002306F4FE17
:10202C008347C4FE13850700EFF0DFEB9307050031
:10203C002306F4FE8347F4FE0327C4FD9397270081
:10204C00B307F70083C607000347C4FE8347D4FEDB
:10205C00B347F70013F7F70F8347F4FE33C7E600D7
:10206C001377F70F8326C4FD93972700B387F600E9
:10207C002380E7008347F4FE0327C4FD93972700D2
:10208C00B307F70003C717008347F4FE8326C4FD8C
:10209C0093972700B387F60083C72700B347F70051
:1020AC002306F4FE8347C4FE13850700EFF09FE37D
:1020BC00930705002306F4FE8347F4FE0327C4FDB3
:1020CC0093972700B307F70083C617000347C4FE96
:1020DC008347D4FEB347F70013F7F70F8347F4FE9B
:1020EC0033C7E6001377F70F8326C4FD93972700B9
:1020FC00B387F600A380E7008347F4FE0327C4FDF3
:10210C0093972700B307F70003C727008347F4FE14
:10211C008326C4FD93972700B387F60083C7370047
:10212C00B347F7002306F4FE8347C4FE138507006C
:10213C00EFF05FDB930705002306F4FE8347F4FE04
:10214C000327C4FD93972700B307F70083C6270026
:10215C000347C4FE8347D4FEB347F70013F7F70FCA
:10216C008347F4FE33C7E6001377F70F8326C4FDCD
:10217C0093972700B387F6002381E7008347F4FE8B
:10218C000327C4FD93972700B307F70003C7370055
:10219C008347E4FEB347F7002306F4FE8347C4FEEF
:1021AC0013850700EFF01FD4930705002306F4FEF8
:1021BC008347F4FE0327C4FD93972700B307F7006A
:1021CC0083C637000347C4FE8347D4FEB347F700EA
:1021DC0013F7F70F8347F4FE33C7E6001377F70FB7
:1021EC008326C4FD93972700B387F600A381E700ED
:1021FC008347F4FE93871700A307F4FE0347F4FE0E
:10220C0093073000E3F6E7D613000000130000003C
:10221C008320C102032481021301010367800000A3
:10222C00130101FD2326110223248102130401034F
:10223C00232EA4FC232CB4FCA30704FE032684FD4C
:10224C008325C4FD13050000EFF01FA193071000B8
:10225C00A307F4FE0325C4FDEFF0DFAD0325C4FD99
:10226C00EFF05FB80347F4FE9307A0006308F70292
:10227C000325C4FDEFF01FCE8347F4FE032684FD37
:10228C008325C4FD13850700EFF01F9D8347F4FEE3
:10229C0093871700A307F4FE6FF0DFFB1300000019
:1022AC00032684FD8325C4FD1305A000EFF0DF9AFF
:1022BC00130000008320C1020324810213010103D7
:1022CC0067800000130101FE232E1100232C8100D6
:1022DC00130401022326A4FE2324B4FE8327C4FE88
:1022EC0093850700032584FEEFF09FF31300000095
:1022FC008320C101032481011301010267800000C6
:10230C00130101FD232481022326710123261102CE
:10231C002322910223202103232E3101232C41015E
:10232C00232A5101232861012324810123229101B5
:10233C00930B050013840500639C063813090600F3
:10234C00130A0500973400009384448E63F8C51279
:10235C00B7070100138C05006378F6109307F00F94
:10236C00B3B7C700939737003357F600B384E40034
:10237C0003C7040093060002B307F7003387F64047
:10238C00638CF6003314E400B3D7FB003319E6007A
:10239C0033EC8700339AEB00135B090193050B00B8
:1023AC0013050C00EF00805A9304050093050B00F5
:1023BC00931A090113050C00EF00C05493DA0A01BB
:1023CC00130405009305050013850A00EF00C050A7
:1023DC009394040113570A0133E7E40093090400B2
:1023EC00637EA700330727019309F4FF6368270175
:1023FC006376A7009309E4FF330727013304A74052
:10240C0093050B0013050400EF00405493040500E2
:10241C0093050B0013050400EF00C04E131A0A01BC
:10242C0013040500930505009394040113850A0019
:10243C00135A0A01EF00404A33EA44011306040020
:10244C00637CAA00330A49011306F4FF63662A0170
:10245C006374AA001306E4FF93970901B3E7C7005E
:10246C00930900006F000013370700019307000168
:10247C00E36CE6EE930780016FF01FEF9389060083
:10248C00631A06009305000013051000EF00804747
:10249C0013090500B7070100637CF9129307F00FCD
:1024AC0063F4270193098000B3573901B384F40016
:1024BC0083C7040093060002B38737013387F640C5
:1024CC006392F6123304244193091000935A0901C4
:1024DC0093850A0013050400EF00404793040500A0
:1024EC0093850A0013050400131B0901EF008041BA
:1024FC00135B0B01130405009305050013050B007A
:10250C00EF00803D9394040113570A0133E7E40074
:10251C00930B0400637EA70033072701930BF4FF92
:10252C00636827016376A700930BE4FF3307270149
:10253C003304A74093850A0013050400EF00004103
:10254C009304050093850A0013050400EF00803BFB
:10255C00131A0A0113040500930505009394040152
:10256C0013050B00135A0A01EF00003733EA44013C
:10257C0013060400637CAA00330A49011306F4FF16
:10258C0063662A016374AA001306E4FF93970B0198
:10259C00B3E7C70013850700938509008320C102A8
:1025AC000324810283244102032901028329C101EE
:1025BC00032A8101832A4101032B0101832BC100D2
:1025CC00032C8100832C4100130101036780000060
:1025DC00B707000193090001E368F9EC9309800146
:1025EC006FF09FEC3319E900B359F400B3D7FB003B
:1025FC003314E40033EB87001354090193050400F2
:10260C0013850900339AEB00EF0040349304050066
:10261C009305040013850900931B0901EF00802E1C
:10262C0093DB0B01930A05009305050013850B0042
:10263C00EF00802A9394040193570B01B3E7F40045
:10264C0093890A0063FEA700B38727019389FAFFD9
:10265C0063E8270163F6A7009389EAFFB387270194
:10266C00B38AA7409305040013850A00EF00002EDF
:10267C00930504009304050013850A00EF008028DD
:10268C0013140B01930A05009305050093940401A0
:10269C0013850B0013540401EF00002433E4840071
:1026AC0093870A00637EA400330424019387FAFF06
:1026BC00636824016376A4009387EAFF3304240142
:1026CC00939909013304A440B3E9F9006FF01FE0BA
:1026DC0063EED51EB707010063F4F604930AF00FFE
:1026EC00B3B7DA0093973700B3D5F600172700007D
:1026FC001307C7533307B700834A0700B38AFA009E
:10270C0093070002B3895741639657039307100050
:10271C00E3E286E833B6CB00934716006FF09FE7F1
:10272C003707000193070001E3E0E6FC9307800103
:10273C006FF09FFBB35C5601B3963601B3ECDC0033
:10274C003359540133143401B3DA5B01B3EA8A0010
:10275C0013D40C019305040013050900B3143601BE
:10276C00EF00C01E130A05009305040013050900B1
:10277C00139B0C01EF000019135B0B0113090500EF
:10278C009305050013050B00EF000015131A0A0141
:10279C0013D70A013367EA00130C0900637EA70004
:1027AC0033079701130CF9FF636897016376A70051
:1027BC00130CE9FF330797013309A7409305040075
:1027CC0013050900EF00801893050400130A050097
:1027DC0013050900EF00001313940A0113090500F7
:1027EC0093050500131A0A0113050B001354040179
:1027FC00EF00800E33648A0013060900637EA40088
:10280C00330494011306F9FF636894016376A40002
:10281C001306E9FF3304940193170C01370E0100E2
:10282C00B3E7C7001303FEFFB3F8670033F364008C
:10283C003304A44093DE070193D4040113850800EC
:10284C0093050300EF00400913080500938504006D
:10285C0013850800EF00400893080500930503005A
:10286C0013850E00EF004007130305009385040049
:10287C0013850E00EF00400613570801B38868005B
:10288C00330717019306050063746700B306C5018F
:10289C0013550701B306D5006366D402E312D4BC0A
:1028AC00370501001305F5FF3377A7001317070150
:1028BC003378A800B39B3B01330707019309000051
:1028CC00E3FAEBCC9387F7FF6FF09FB99309000005
:1028DC00930700006FF01FCC1306050013050000D2
:1028EC0093F61500638406003305C50093D51500D7
:1028FC0013161600E39605FE67800000634005067C
:10290C0063C6050613860500930505001305F0FF45
:10291C00630C060293061000637AB6006358C0007D
:10292C001316160093961600E36AB6FE1305000004
:10293C0063E6C500B385C5403365D50093D6160054
:10294C0013561600E39606FE678000009382000083
:10295C00EFF05FFB13850500678002003305A04094
:10296C0063D80500B305B0406FF0DFF9B305B04094
:10297C0093820000EFF01FF93305A040678002003E
:10298C009382000063CA0500634C0500EFF09FF7CB
:10299C001385050067800200B305B040E35805FEBF
:1029AC003305A040EFF01FF63305B04067800200FE
:1029BC0093050500930600001306000013050000A4
:1029CC006F00C069130101FF9727000093874745EB
:1029DC002324810017240000130484443304F4409E
:1029EC0023229100232611001354244093840700C2
:1029FC00631C0400032481008320C1008324410054
:102A0C00130101016FE08FCA1304F4FF9317240024
:102A1C00B387F40083A70700E78007006FF05FFD22
:102A2C00130101FF972700009387873F2324810020
:102A3C00172400001304C43E3304F44023229100F5
:102A4C002320210123261100135424409304000059
:102A5C001389070063928404EFE08FC3972700006B
:102A6C009387073C172400001304843B3304F44081
:102A7C00135424409304000013890700639A8402C2
:102A8C008320C10003248100832441000329010019
:102A9C00130101016780000093972400B307F9002C
:102AAC0083A7070093841400E78007006FF09FFA58
:102ABC0093972400B307F90083A7070093841400AD
:102ACC00E78007006FF09FFB130101FB23248102B9
:102ADC002326110213040500232AB102232CC10260
:102AEC00232ED1022320E1042322F1042324010507
:102AFC002326110503A58180630C0500832785011E
:102B0C00639807002326A100EF0010190325C100CC
:102B1C00832585009306410313060400232ED10060
:102B2C00EF1040128320C10203248102130101051E
:102B3C00678000009305050003A58180630C0502E6
:102B4C008327850163980702130101FE232E1100D0
:102B5C002326B1002324A100EF00101403258100CB
:102B6C008325C1008320C1010326850013010102C6
:102B7C006F00C000032685006FF09FFF130101FE5C
:102B8C00232C8100232E1100130405006300050281
:102B9C0083278501639C07002326C1002324B100F1
:102BAC00EF00900F0326C1008325810097270000BA
:102BBC009387C7196318F6040326440083278600FD
:102BCC009387F7FF2324F60063DC070003278601B5
:102BDC0063CEE70493F7F50F1307A0006388E704AF
:102BEC008327060013F5F50F138717002320E60043
:102BFC002380B7008320C10103248101130101024A
:102C0C006780000097270000938747166316F6002D
:102C1C00032684006FF09FFA972700009387071113
:102C2C00E31EF6F80326C4006FF05FF913050400E9
:102C3C00032481018320C101130101026F0040179D
:102C4C00130101FE232A910023282101232E1100B8
:102C5C00232C8100232631012324410193040500F8
:102C6C001389050063080500832785016394070019
:102C7C00EF00900283A7840103A4840063960700ED
:102C8C0013850400EF005001972700009387070C71
:102C9C00631EF40403A444008357C40093F7870015
:102CAC00638A070683270401638607069309F0FFEE
:102CBC00130AA00083278400834509009387F7FF3C
:102CCC00639405082324F40063D0070C1306040056
:102CDC009305A00013850400EF00800D9307F0FF0F
:102CEC006302F5041305A0006F0000049727000091
:102CFC009387C7076316F40003A484006FF0DFF911
:102D0C009727000093878702E318F4F803A4C40004
:102D1C006FF09FF89305040013850400EF00C01CAE
:102D2C00E30605F81305F0FF8320C101032481019C
:102D3C0083244101032901018329C100032A810055
:102D4C0013010102678000002324F4001309190009
:102D5C0063D807000327840163CEE700638C450129
:102D6C0083270400138717002320E4002380B70077
:102D7C006FF05FF41306040013850400EF004003AA
:102D8C00E31A35F36FF01FFA83270400138717003B
:102D9C002320E4001307A0002380E7006FF09FF4CA
:102DAC009305050003A581806FF09FE96FD04FBAA2
:102DBC00130101FE232C8100232A910023282101D9
:102DCC00232E1100232631019304050013890500DD
:102DDC00130406006308050083278501639407002C
:102DEC00EF00806B97270000938747F6631EF40A69
:102DFC0003A44400832784012324F4008357C400D4
:102E0C0093F787006386070C832704016382070C02
:102E1C0083270401032504009379F90F1379F90F23
:102E2C003305F54083274401634AF50093050400FC
:102E3C0013850400EF00804B6314050A832784007C
:102E4C00130515009387F7FF2324F4008327040050
:102E5C00138717002320E4002380370183274401C4
:102E6C00638CA7008357C40093F71700638E070089
:102E7C009307A000631AF90093050400138504005E
:102E8C00EF00C046631E05048320C10103248101A9
:102E9C00832441018329C100130509000329010181
:102EAC00130101026780000097270000938707EC4D
:102EBC006316F40003A484006FF0DFF3972700007F
:102ECC009387C7E6E318F4F203A4C4006FF09FF2F3
:102EDC009305040013850400EF000001E30A05F2DA
:102EEC001309F0FF6FF05FFA130101FF2324810037
:102EFC0023229100232021012326110083A4818009
:102F0C001309050013840500638A040083A7840158
:102F1C006396070013850400EF0000589727000004
:102F2C009387C7E2631EF40203A444008317C40012
:102F3C001397070193F6870013570701639A060846
:102F4C009376070163920604130790002320E9008F
:102F5C0093E707042316F4001305F0FF6F00000D30
:102F6C0097270000938787E06316F40003A484007E
:102F7C006FF0DFFB97270000938747DBE318F4FA29
:102F8C0003A4C4006FF09FFA13774700630C070289
:102F9C0083254403638C0500930744046386F50082
:102FAC0013050900EF009019232A04028357C4006B
:102FBC002322040093F7B7FD2316F40083270401A2
:102FCC002320F4008357C40093E787002316F400F2
:102FDC0083270401639007028357C4001307002062
:102FEC0093F707286388E70093050400130509008D
:102FFC00EF0000788317C4001397070193F61700AE
:10300C00135707016380060483264401232404001C
:10301C00B306D040232CD4008326040113050000F2
:10302C006396060013770708E31407F28320C100A8
:10303C0003248100832441000329010013010101B1
:10304C006780000093762700130600006394060047
:10305C00032644012324C4006FF01FFC93080500D1
:10306C00138501818327050063940702138741961A
:10307C002320E50017D5FF7F130505F893070700FC
:10308C0063080500832705002324F708930707002E
:10309C0003A747001308F0011305F0FF6340E8068F
:1030AC006382080403A88708630A08041315270021
:1030BC003305A8002320C5000323081013061000B5
:1030CC003316E6003363C300232068102320D50891
:1030DC00930620006398D8008326481033E6C60078
:1030EC002322C810930617001317270023A2D7001A
:1030FC00B387E70023A4B700130500006780000026
:10310C0083D7C500130101FE232C8100232A9100D3
:10311C00232E1100232821012326310113F78700C8
:10312C009304050013840500631E071403A74500D0
:10313C00634AE00003A705046346E00013050000A2
:10314C006F00C0110327C402E30A07FE03A90400A1
:10315C009396370123A0040063DE060A0325440579
:10316C008357C40093F74700638E070083274400FE
:10317C003305F54083274403638607008327040443
:10318C003305F5408327C40283250402130605008A
:10319C009306000013850400E78007009307F0FFF7
:1031AC000357C4006312F50283A604009307D001F1
:1031BC0063E4D70CB707402093871700B3D7D70029
:1031CC0093F71700638A070A83270401232204005C
:1031DC002320F4009317370163DC07009307F0FFFB
:1031EC006316F50083A7040063940700232AA40444
:1031FC008325440323A02401E38205F493074404AC
:10320C006386F50013850400EF004073232A040243
:10321C006FF0DFF283250402930610001306000002
:10322C0013850400E70007009307F0FFE31AF5F29B
:10323C0083A70400E38607F21307D0016386E70037
:10324C00130760016396E70023A024016FF01FEFC2
:10325C008357C40093E707042316F4008320C101AD
:10326C000324810183244101032901018329C10025
:10327C001301010267800000136707042316E400A2
:10328C006FF0DFFD83A90501E38A09EA03A90500B4
:10329C0093F7370023A03501330939411307000098
:1032AC006394070003A745012324E400E35820E9B5
:1032BC0083278402832504029306090013860900E0
:1032CC0013850400E7800700634CA0008357C400FB
:1032DC001305F0FF93E707042316F4006FF01FF8B3
:1032EC00B389A9003309A9406FF05FFC83A70501DE
:1032FC00638A0708130101FE232C8100232E110081
:10330C0013040500630C05008327850163980700EF
:10331C002326B100EF0040188325C1009727000039
:10332C009387C7A26392F502832544008397C50057
:10333C006380070413050400032481018320C10169
:10334C00130101026FF0DFDB97270000938707A2C0
:10335C006396F500832584006FF05FFD97270000CE
:10336C009387C79CE394F5FC8325C4006FF01FFC86
:10337C008320C10103248101130500001301010204
:10338C00678000001305000067800000130101FF37
:10339C002324810023261100130405002316B500F5
:1033AC002317C50023200500232205002324050034
:1033BC002322050623280500232A0500232C0500BB
:1033CC0013068000930500001305C505EF00404966
:1033DC0097170000938787C82322F40297170000E1
:1033EC009387C7CC2324F40297170000938747D404
:1033FC002326F40297170000938707D98320C10076
:10340C00232084022328F4020324810013010101E8
:10341C006780000097050000938585ED6F004021C3
:10342C00130101FF1386F5FF2324810013141600EA
:10343C003304C400131424003304C40013143400E4
:10344C0023202101138905009305440723229100B1
:10345C0023261100EF00C05E9304050063000502F3
:10346C0023200500232225011305C50023A4A40055
:10347C001306840693050000EF00803E8320C100F4
:10348C0003248100032901001385040083244100D7
:10349C001301010167800000832785016394070AEB
:1034AC00130101FF2324810023261100970700003C
:1034BC00938787F62324F502232405042326050489
:1034CC002328050483A7C180130405006316F500A7
:1034DC0093071000232CF50013050400EF00C00621
:1034EC002322A40013050400EF0000062324A400EB
:1034FC0013050400EF0040052326A4000325440017
:10350C001306000093054000EFF05FE803258400EC
:10351C001306100093059000EFF05FE70325C4003D
:10352C001306200093052001EFF05FE693071000CF
:10353C008320C100232CF40003248100130101011A
:10354C006780000067800000130101FF23229100B7
:10355C0083A4C18083A78401232021012326110089
:10356C0023248100130905006396070013850400CA
:10357C00EFF09FF29384840403A4840083A7440097
:10358C009387F7FF63DA070083A7040063800708BB
:10359C0083A404006FF05FFE0317C40063140706D6
:1035AC00B707FFFF9387170023220406232004008C
:1035BC0023220400232404002326F40023280400DF
:1035CC00232A0400232C040013068000930500001A
:1035DC001305C405EF00C028232A0402232C04027F
:1035EC0023240404232604048320C10013050400AF
:1035FC0003248100832441000329010013010101EC
:10360C0067800000130484066FF09FF79305400059
:10361C0013050900EFF0DFE023A0A400130405005C
:10362C00E31805F69307C0002320F9006FF0DFFBC9
:10363C00130101FD2324810223202103232E3101B8
:10364C00232C410123286101232671012326110219
:10365C0023229102232A510113090500138A050024
:10366C001304850493090000130B1000930BF0FF57
:10367C0083248400832A4400938AFAFF63DE0A02BF
:10368C0003240400E31604FE8320C10203248102F8
:10369C008324410203290102032A8101832A410167
:1036AC00032B0101832BC100138509008329C10160
:1036BC00130101036780000083D7C400637EFB0005
:1036CC008397E400638A770193850400130509004E
:1036DC00E7000A00B3E9A900938484066FF0DFF9D0
:1036EC00130101F923202107138905008395E500B7
:1036FC002324810623229106232611061304060097
:10370C009384060063DE05008357C90023A00400E0
:10371C0093F70708639C0702930700406F00400370
:10372C0013068100EF00102FE34005FE0327C100B4
:10373C00B7F70000B3F7E70037E7FFFFB387E70001
:10374C0093B7170023A0F4006FF01FFD930700043C
:10375C008320C1062320F400032481068324410620
:10376C0003290106130500001301010767800000FF
:10377C0083D7C500130101FE232C8100232E1100D9
:10378C00232A91002328210193F727001384050095
:10379C0063880702930774042320F4002328F400A1
:1037AC0093071000232AF4008320C1010324810114
:1037BC0083244101032901011301010267800000E8
:1037CC009306C1001306810013090500EFF05FF1A9
:1037DC00832581009304050013050900EF004026A2
:1037EC00631005028317C40013F70720E31E07FAC2
:1037FC0093F7C7FF93E727002316F4006FF09FF9A8
:10380C0097070000938747C12324F9028357C4000C
:10381C002320A4002328A40093E707082316F40010
:10382C0083278100232AF4008327C10063820702C7
:10383C008315E40013050900EF001022630A05004C
:10384C008357C40093F7C7FF93E717002316F400C0
:10385C000355C400B3E4A400231694006FF0DFF406
:10386C001303F00013070500637EC3029377F70080
:10387C006390070A63920508937606FF1376F600A9
:10388C00B386E6002320B7002322B7002324B70019
:10389C002326B70013070701E366D7FE631406005F
:1038AC0067800000B306C340939626009702000081
:1038BC00B38656006780C6002307B700A306B7007F
:1038CC002306B700A305B7002305B700A304B70070
:1038DC002304B700A303B7002303B700A302B70068
:1038EC002302B700A301B7002301B700A300B70060
:1038FC002300B7006780000093F5F50F93968500C1
:10390C00B3E5D50093960501B3E5D5006FF0DFF66E
:10391C009396270097020000B3865600938200000E
:10392C00E78006FA93800200938707FF3307F7407E
:10393C003306F600E378C3F66FF0DFF3638005100F
:10394C0083A7C5FF130101FE232C8100232E110038
:10395C001384C5FF63D407003304F4002326A100AD
:10396C00EF00501A13874181832707000325C100FC
:10397C0013060700639E0700232204002320870000
:10398C00032481018320C101130101026F00D017B0
:10399C006376F402832604003307D400639AE700AD
:1039AC0003A7070083A747003307D7002320E400B1
:1039BC002322F400232086006FF09FFC138707005E
:1039CC0083A7470063840700E37AF4FE832607008D
:1039DC003306D7006318860203260400B386C6009C
:1039EC002320D7003306D700E39CC7F803A60700B3
:1039FC0083A74700B306D6002320D7002322F70065
:103A0C006FF01FF86378C4009307C0002320F50003
:103A1C006FF01FF703260400B306C400639AD700A7
:103A2C0083A6070083A74700B386C6002320D400D3
:103A3C002322F400232287006FF09FF4678000009C
:103A4C00130101FE232A91009384350093F4C4FFE3
:103A5C0023282101232E1100232C81002326310140
:103A6C00938484009307C0001309050063F6F406E1
:103A7C009304C00063E4B40613050900EF0090083A
:103A8C009387418103A7070093860700130407005F
:103A9C00631A04061384818183270400639A070048
:103AAC009305000013050900EF0000572320A40024
:103ABC009385040013050900EF0000569309F0FFED
:103ACC00631A350B9307C0002320F9001305090076
:103ADC00EF0090036F000001E3DE04F89307C000D1
:103AEC002320F900130500008320C1010324810168
:103AFC0083244101032901018329C100130101021F
:103B0C006780000083270400B387974063CE0704C7
:103B1C001306B000637AF6002320F4003304F4009B
:103B2C00232094006F00000183274400631A87024E
:103B3C0023A0F60013050900EF00007D1305B40067
:103B4C0093074400137585FF3307F540E30EF5F832
:103B5C003304E400B387A7402320F4006FF0DFF8B0
:103B6C002322F7006FF01FFD130704000324440009
:103B7C006FF01FF2130435001374C4FFE30285FACF
:103B8C00B305A44013050900EF000049E31A35F909
:103B9C006FF05FF3832786009387F7FF2324F600EB
:103BAC0063DC07000327860163C6E7009307A000C8
:103BBC006394F5006FF0CF9F8327060013850500F3
:103BCC00138717002320E6002380B70067800000CE
:103BDC00130101FE232C8100232A910023282101AB
:103BEC002326310123244101232E11001309050042
:103BFC009389050013040600B304D600130AF0FFE2
:103C0C0063169400130500006F00C0018345040087
:103C1C001386090013050900EFF0DFF713041400F5
:103C2C00E31045FF8320C10103248101832441015A
:103C3C00032901018329C100032A81001301010218
:103C4C0067800000130101F6232C8108232A9108B8
:103C5C002328210923263109232E11082324410965
:103C6C002322510923206109232E7107232C81075C
:103C7C00232A910793090500938405001309060074
:103C8C0013840600630805008327850163940700ED
:103C9C00EFF09F80971700009387470B6392F41205
:103CAC0083A4490083D7C40093F78700638E07125F
:103CBC0083A70401638A071293070002A304F1028D
:103CCC0093070003232201022305F102232681001E
:103CDC00130B5002971A0000938A4A0B930B100097
:103CEC0017CCFF7F130C4C311304090083470400DD
:103CFC0063840700639E6713B30C2441630624039B
:103D0C0093860C00130609009385040013850900A3
:103D1C00EFF01FEC9307F0FF6306F52C83274102AD
:103D2C00B38797012322F10283470400638C072A8F
:103D3C009307F0FF1309140023280100232E010020
:103D4C00232AF100232C0100A309010423240106DA
:103D5C00834509001306500013850A00EF004058F4
:103D6C0083270101130419006318050C13F70701CD
:103D7C006306070013070002A309E10413F7870089
:103D8C00630607001307B002A309E1048346090088
:103D9C001307A002638EE60A0327C101130409006E
:103DAC00930700001306900083460400930514004B
:103DBC00938606FD6372D6186396070A6F00000C93
:103DCC0097170000938787FA6396F40083A4890001
:103DDC006FF05FED97170000938747F5E394F4ECD1
:103DEC0083A4C9006FF01FEC9385040013850900B0
:103DFC00EFF08F8FE30205EC1305F0FF8320C10970
:103E0C000324810983244109032901098329C10859
:103E1C00032A8108832A4108032B0108832BC1073D
:103E2C00032C8107832C41071301010A67800000D2
:103E3C00130414006FF09FEB330555413395AB0021
:103E4C00B3E7A7002328F100130904006FF05FF01B
:103E5C000327C10093064700032707002326D10040
:103E6C0063460700232EE1006F0040013307E0405A
:103E7C0093E72700232EE1002328F10003470400D9
:103E8C009307E0026316F702034714009307A0029E
:103E9C006316F70C8327C100130424001387470013
:103EAC0083A707002326E10063C6070A232AF10033
:103EBC00834504001306300017150000130585ED2B
:103ECC00EF0000426304050297170000938787EC0C
:103EDC003305F54093070004B397A70003250101B0
:103EEC00130414003365F5002328A1008345040056
:103EFC001306600017150000130505EA13091400DA
:103F0C002304B102EF00C03D6308050E63160C0AD2
:103F1C00032701018327C1001377071063060708E5
:103F2C00938747002326F10083274102B38747017B
:103F3C002322F1026FF05FDB93172700B387E700B2
:103F4C00939717003387D70013840500930710004D
:103F5C006FF09FE59307F0FF6FF05FF5130414000B
:103F6C00232A01009307000013070000130690009A
:103F7C008346040093051400938606FD6378D600EF
:103F8C00E38807F2232AE1006FF09FF293172700D2
:103F9C00B387E700939717003387D7001384050086
:103FAC00930710006FF0DFFC9387770093F787FF80
:103FBC00938787006FF01FF71307C1009706000067
:103FCC00938646C1138604009305010113850900ED
:103FDC0097000000E70000009307F0FF130A0500AC
:103FEC00E314F5F483D7C40093F70704E39607E0D2
:103FFC00032541026FF09FE01307C10097060000F4
:10400C00938646BD138604009305010113850900B0
:10401C00EF00C04A6FF05FFC130101FF2324810005
:10402C00130405001385050023A8019E2326110007
:10403C00EFC04F9D9307F0FF6318F50083A7019F16
:10404C00638407002320F4008320C1000324810033
:10405C001301010167800000130101FF232481007B
:10406C00138405008395E50023261100EF009001D1
:10407C006340050283274405B387A700232AF40471
:10408C008320C1000324810013010101678000001B
:10409C008357C40037F7FFFF1307F7FFB3F7E700A9
:1040AC002316F4006FF0DFFD83D7C500130101FE6A
:1040BC00232C8100232A910023282101232631015E
:1040CC00232E110093F707109304050013840500A9
:1040DC001309060093890600638A07008395E5009F
:1040EC009306200013060000EF00001B8357C4004A
:1040FC0037F7FFFF1307F7FFB3F7E7008315E4006B
:10410C002316F400032481018320C1019386090046
:10411C00130609008329C10003290101138504003A
:10412C0083244101130101026F004006130101FFBA
:10413C0023248100138405008395E50023261100B8
:10414C00EF0080159307F0FF0357C4006312F502CC
:10415C00B7F7FFFF9387F7FFB3F7E7002316F400D9
:10416C008320C1000324810013010101678000003A
:10417C00B7170000B367F7002316F400232AA40432
:10418C006FF01FFE8395E5006F00C004130101FF63
:10419C0023248100130405001385050093050600F4
:1041AC001386060023A8019E23261100EFC04F8F13
:1041BC009307F0FF6318F50083A7019F6384070042
:1041CC002320F4008320C10003248100130101018A
:1041DC0067800000130101FF2324810013040500F4
:1041EC001385050023A8019E23261100EFB05FED77
:1041FC009307F0FF6318F50083A7019F6384070002
:10420C002320F4008320C100032481001301010149
:10421C0067800000130101FF2324810013040500B3
:10422C00138505009305060023A8019E2326110083
:10423C00EFB01FEC9307F0FF6318F50083A7019F05
:10424C00638407002320F4008320C1000324810031
:10425C001301010167800000130101FF2324810079
:10426C00130405001385050023A8019E23261100C5
:10427C00EFB01FEE9307F0FF6318F50083A7019FC3
:10428C00638407002320F4008320C10003248100F1
:10429C001301010167800000130101FF2324810039
:1042AC00130405001385050093050600138606000C
:1042BC0023A8019E23261100EFB0DFEB9307F0FF3C
:1042CC006318F50083A7019F638407002320F40083
:1042DC008320C100032481001301010167800000C9
:1042EC0093F5F50F3306C5006316C50013050000E2
:1042FC006780000083470500E38CB7FE13051500AB
:10430C006FF09FFE6780000067800000130101FDC5
:10431C00232C410183A70501130A070003A785007D
:10432C002324810223229102232E3101232A5101BD
:10433C002326110223202103232861012326710146
:10434C00930905001384050093040600938A060064
:10435C0063D4E7009307070023A0F4000347340459
:10436C00630607009387170023A0F400832704003B
:10437C0093F707026388070083A70400938727003D
:10438C0023A0F4000329040013796900631E0900BB
:10439C00130B9401930BF0FF8327C40003A70400B5
:1043AC00B387E7406342F90883473404B336F0001F
:1043BC008327040093F707026390070C1306340459
:1043CC0093850A0013850900E7000A009307F0FFA4
:1043DC006308F506832704001306400003A70400B6
:1043EC0093F767008326C400930400006398C7000A
:1043FC00B384E64063D40400930400008327840054
:10440C00032704016356F700B387E740B384F40035
:10441C00130900001304A401130BF0FF639024098B
:10442C00130500006F0000029306100013060B002A
:10443C0093850A0013850900E7000A00631A7503C7
:10444C001305F0FF8320C10203248102832441025F
:10445C00032901028329C101032A8101832A410115
:10446C00032B0101832BC1001301010367800000A2
:10447C00130919006FF05FF23307D4001306000321
:10448C00A301C7040347540493871600B307F40031
:10449C0093862600A381E7046FF05FF29306100069
:1044AC001306040093850A0013850900E7000A002F
:1044BC00E30865F9130919006FF05FF6130101FCAD
:1044CC00232C81022326310323244103232251036D
:1044DC00232E1102232A9102232821032320610376
:1044EC00232E7101232C8101232A910183C785017D
:1044FC00938A060093068007930905001384050030
:10450C00130A060063EEF60093062006138B35049F
:10451C0063ECF6006388072A93068005638ED70E3A
:10452C00930C24046F0040049385D7F993F5F50F91
:10453C0093065001E3E6B6FE171600001306C68874
:10454C0093952500B385C50083A60500B386C600E8
:10455C006780060083270700930C2404938647008A
:10456C0083A707002320D7002301F404930710002E
:10457C006F000029832704000326070093F5070822
:10458C009306460063860502832406002320D70089
:10459C0063D804009307D002B3049040A301F40441
:1045AC00970B0000938BCB7F1309A0006F00C00BFF
:1045BC008324060093F707042320D700E38A07FC23
:1045CC009394040193D404416FF09FFC03260400E0
:1045DC0083260700137506089385460063080500BB
:1045EC002320B70083A406006F0040011376060455
:1045FC002320B700E30806FE83D406001307F00659
:10460C00970B0000938BCB791309A000639CE704F4
:10461C00130980006F000005A382F504970B0000BE
:10462C00938B0B78832704008326070013F6070867
:10463C0083A4060093864600630C06122320D70041
:10464C0013F717006306070093E707022320F40013
:10465C0013090001639804008327040093F7F7FD06
:10466C002320F400A3010404832744002324F40032
:10467C0063C80700032704001377B7FF2320E40067
:10468C0063960400930C0B00638E0702930C0B00D3
:10469C009305090013850400EFE04FAB3385AB00A5
:1046AC00834705009305090013850400A38FFCFEC6
:1046BC00138C0400EFE00FA5938CFCFF9304050012
:1046CC00E3782CFD930780006314F9028327040020
:1046DC0093F71700638E0700032744008327040118
:1046EC0063C8E70093070003A38FFCFE938CFCFFC9
:1046FC00330B9B412328640113870A0093060A009D
:10470C001306C1009305040013850900EFF01FC0C8
:10471C009304F0FF631C950E1305F0FF8320C10377
:10472C000324810383244103032901038329C10248
:10473C00032A8102832A4102032B0102832BC1012C
:10474C00032C8101832C41011301010467800000BB
:10475C008327040093E707022320F40093078007C4
:10476C00A302F404970B0000938BCB646FF09FEBC8
:10477C0013F607042320D700E30406EC93940401FA
:10478C0093D404016FF0DFEB83260400832707002A
:10479C000326440113F5060893854700630A0500B8
:1047AC002320B70083A7070023A0C7006F00800158
:1047BC002320B70093F6060483A70700E38606FEC2
:1047CC002390C70023280400930C0B006FF0DFF23A
:1047DC0083270700032644009305000093864700B7
:1047EC002320D70083AC070013850C00EFF05FAFDC
:1047FC0063060500330595412322A400832744005A
:10480C002328F400A30104046FF01FEF8326040196
:10481C0013860C0093050A0013850900E7800A0033
:10482C00E30C95EE8327040093F7270063940704A9
:10483C008327C1000325C400E352F5EE138507005E
:10484C006FF0DFED930610001306090093050A00C4
:10485C0013850900E7800A00E30065ED93841400DA
:10486C008327C4000327C100B387E740E3CCF4FCE3
:10487C006FF01FFC9304000013099401130BF0FF5D
:10488C006FF01FFE130101FF2324810013040500A8
:10489C0013850500930506001386060023A8019EC8
:1048AC0023261100EFB0DF8F9307F0FF6318F5009C
:1048BC0083A7019F638407002320F4008320C10099
:0C48CC000324810013010101678000003B
:1048D8005472617020696E20457863657074696FE1
:1048E8006E0D00004D43415553453A203078256CF4
:1048F800780D0A004D45504320203A203078256C29
:10490800780D0A004D5456414C203A203078256CD9
:10491800780D0A005472617020696E20496E7465C2
:1049280072727570740D0000464C415348584950D6
:1049380000000000464C415348000000494C4D001F
:1049480032323A35303A3436000000004D61722078
:10495800203220323032340048756D6D696E6742FE
:104968006972642053444B204275696C6420546911
:104978006D653A2025732C2025730D0A0000000070
:10498800446F776E6C6F6164204D6F64653A2025C3
:10499800730D0A00435055204672657175656E6344
:1049A8007920256C7520487A0D0A0000252E32786A
:1049B80000000000636970686572746578743A0075
:1049C8002B7E151628AED2A6ABF7158809CF4F3C1B
:1049D8003243F6A8885A308D313198A2E03707342F
:1049E8002048656C6C6F20576F726C642046726F3C
:1049F8006D20524953432D562050726F636573736F
:104A08006F72210D0000000054657374696E672091
:104A180041455331323800002A2A2A2A2A2A2A2ACA
:104A28002A2A2A2A2A2A2A2A2A2A2A2A2A2A2A2ADE
:104A38002A2A2A2A2A2A2A2A2A2A2A2A2A2A2A2ACE
:104A48002A2A2A2A2A2A00002A2A20626567696EE9
:104A580020746F20657875206E6F726D616C2063AD
:104A6800617365002A2A20626567696E20746F2069
:104A7800657875206E6963655F6361736500000022
:104A8800636F6E746578742831293D253038782035
:104A980025303878202530387820253038780A00B5
:104AA8002A2A20706572666F726D616E6365206C6C
:104AB800697374200000000009206E6F726D616CCC
:104AC8003A20000009202020202020696E7374728B
:104AD80065743A2025752C206379636C653A202526
:104AE80075200A0009206E69636520203A200000BD
:104AF8002A2A2A2A2A2A2A2A2A2A2A2A2A2A2A2A0E
:104B08002A2A2A2A2A2A2A2A2A2A2A2A2A2A2A2AFD
:104B18002A2A2A2A2A2A2A2A2A2A2A2A2A2A0A0037
:104B2800637C777BF26B6FC53001672BFED7AB7662
:104B3800CA82C97DFA5947F0ADD4A2AF9CA472C00D
:104B4800B7FD9326363FF7CC34A5E5F171D831157A
:104B580004C723C31896059A071280E2EB27B2759B
:104B680009832C1A1B6E5AA0523BD6B329E32F8413
:104B780053D100ED20FCB15B6ACBBE394A4C58CF0B
:104B8800D0EFAAFB434D338545F9027F503C9FA8DF
:104B980051A3408F929D38F5BCB6DA2110FFF3D2AD
:104BA800CD0C13EC5F974417C4A77E3D645D197361
:104BB80060814FDC222A908846EEB814DE5E0BDB5B
:104BC800E0323A0A4906245CC2D3AC629195E47992
:104BD800E7C8376D8DD54EA96C56F4EA657AAE08EC
:104BE800BA78252E1CA6B4C6E8DD741F4BBD8B8A87
:104BF800703EB5664803F60E613557B986C11D9EED
:104C0800E1F8981169D98E949B1E87E9CE5528DF63
:104C18008CA1890DBFE6426841992D0FB054BB168F
:104C28008D01020408102040801B3600000102029A
:104C3800030303030404040404040404050505052C
:104C48000505050505050505050505050606060608
:104C580006060606060606060606060606060606EC
:104C680006060606060606060606060607070707D8
:104C780007070707070707070707070707070707BC
:104C880007070707070707070707070707070707AC
:104C9800070707070707070707070707070707079C
:104CA8000707070707070707070707070808080888
:104CB800080808080808080808080808080808086C
:104CC800080808080808080808080808080808085C
:104CD800080808080808080808080808080808084C
:104CE800080808080808080808080808080808083C
:104CF800080808080808080808080808080808082C
:104D0800080808080808080808080808080808081B
:104D1800080808080808080808080808080808080B
:104D2800080808080808080808080808000000001B
:104D3800000000000000000000000000000000006B
:104D4800000000000000000000000000000000005B
:104D5800000000000000000000000000000000004B
:104D6800000000000000000000000000000000003B
:104D7800000000000000000000000000000000002B
:104D8800000000000000000000000000232D302B70
:104D980020000000686C4C006566674546470000C7
:104DA8003031323334353637383941424344454659
:104DB800000000003031323334353637383961621B
:104DC800636465660000000090F7FFFFB0F7FFFF1F
:104DD8005CF7FFFF5CF7FFFF5CF7FFFF5CF7FFFF87
:104DE800B0F7FFFF5CF7FFFF5CF7FFFF5CF7FFFF23
:104DF8005CF7FFFFC4F9FFFF08F8FFFF8CF9FFFF1E
:104E08005CF7FFFF5CF7FFFF0CFAFFFF5CF7FFFFA3
:104E180008F8FFFF5CF7FFFF5CF7FFFF98F9FFFF5B
:104E280000000000544D0080744D0080344D008017
:104E3800000000000000000000000000000000006A
:104E4800000000000000000000000000000000005A
:104E5800000000000000000000000000000000004A
:104E6800000000000000000000000000000000003A
:104E7800000000000000000000000000000000002A
:104E88005802009000B4C404000000900000009094
:040000058000000077
:00000001FF
