:0200000480007A
:1000000073700430735040309711001093818185D4
:1000100017010110130101FF97020000938282343F
:100020007390523073F05130170500001305450AE4
:10003000970500009385C5096302B50217460000C5
:100040001306C6F363FCC5008322050023A05500F8
:100050001305450093854500E3E8C5FE17450000FC
:100060001305C5F1970500109385C5F91386018125
:1000700063FCC5008322050023A05500130545003D
:1000800093854500E3E8C5FE13850181938581943E
:100090006378B5002320050013054500E36CB5FE29
:1000A000EF00407C1725000013058561EF2060609C
:1000B000EF206064EF0090411305000093050000FD
:0C00C000EF10E01EEF0010586F00000071
:1000CC00130101FE232E8100130401022326A4FE3A
:1000DC00938701941307900023A0E7009307F0FF88
:1000EC00138507000324C10113010102678000007E
:1000FC00130101FE232E8100130401022326A4FE0A
:10010C002324B4FE0327C4FE930710006308F700F2
:10011C000327C4FE93072000631CF700832784FE8B
:10012C003727000023A2E700930700006F0040016F
:10013C00938701941307900023A0E7009307F0FF27
:10014C00138507000324C10113010102678000001D
:10015C00130101FE232E8100130401022326A4FEA9
:10016C0093071000138507000324C101130101023A
:10017C0067800000130101FE232E8100130401028D
:10018C002326A4FE2324B4FE2322C4FE93070000DE
:10019C00138507000324C1011301010267800000CD
:1001AC00130101FD232611022324810213040103F0
:1001BC00232EA4FC232CB4FC232AC4FC8327C4FDCB
:1001CC00638607009307F0FF6F008002832784FD8E
:1001DC002326F4FE37350110EF00C03B93070500D2
:1001EC00138707008327C4FE2380E70093071000C2
:1001FC00138507008320C10203248102130101032C
:10020C0067800000130101FE232E810013040102FC
:10021C002326A4FE97070010938707E403A7070083
:10022C008327C4FE3307F700938781946362F70238
:10023C0097070010938747E203A707008327C4FEA4
:10024C003307F70097F700109387075B63F6E70017
:10025C009307F0FF6F00C003970700109387C7DF69
:10026C0003A707008327C4FE3307F7009707001086
:10027C00938787DE23A0E700970700109387C7DDDD
:10028C0003A707008327C4FEB307F040B307F700AA
:10029C00138507000324C1011301010267800000CC
:1002AC00130101FD232611022324810213040103EF
:1002BC00232EA4FC232CB4FC232AC4FC0325C4FD4C
:1002CC00EF20C06593070500639607009307F0FFC6
:1002DC006F000007832784FD2324F4FE232604FEED
:1002EC006F000005032784FE8327C4FEB307F700C5
:1002FC0003C707009307A0006318F7009305D0000D
:10030C0037350110EF00C022032784FE8327C4FE7B
:10031C00B307F70083C70700938507003735011033
:10032C00EF0000218327C4FE938717002326F4FED9
:10033C000327C4FE832744FDE366F7FA832744FDB5
:10034C00138507008320C1020324810213010103DA
:10035C0067800000130101FB2320110023224100C0
:10036C00232451002326610023287100232AA10095
:10037C00232CB100232EC1002320D1022322E10221
:10038C002324F102232C0103232E11032320C10566
:10039C002322D1052324E1052326F105F322103471
:1003AC0023265102F322203423285102F322003059
:1003BC00232A51027325203493050100EF00806B32
:1003CC008322C1027390123483220103739022346E
:1003DC0083224103739002308320010003224100E9
:1003EC00832281000323C1008323010103254101E2
:1003FC00832581010326C1018326010203274102C3
:10040C0083278102032881038328C103032E01045F
:10041C00832E4104032F8104832FC1041301010592
:10042C0073002030130101FE232E810013040102FE
:10043C002326A4FE2324B4FE8327C4FE93B71700FF
:10044C0093F7F70F638607009307F0FF6F00000226
:10045C008327C4FE03A7C701832784FE3367F700F5
:10046C008327C4FE23AEE700930700001385070023
:10047C000324C1011301010267800000130101FD77
:10048C00232611022324810213040103232EA4FC2E
:10049C00232CB4FC8327C4FD93B7170093F7F70FF5
:1004AC00638607009307F0FF6F0040079707001063
:1004BC009387C7BA83A70700832584FD138507009C
:1004CC00EF200017930705009387F7FF2326F4FE10
:1004DC008327C4FD1307000823A6E7008327C4FE67
:1004EC0093D7870013F7F70F8327C4FD23A2E700E8
:1004FC008327C4FE13F7F70F8327C4FD23A0E7005F
:10050C008327C4FD1307600C23A4E7008327C4FDD5
:10051C001307300023A6E70093070000138507009C
:10052C008320C102032481021301010367800000B0
:10053C00130101FE232E8100130401022326A4FEC5
:10054C0093870500A305F4FE8327C4FE93B7170019
:10055C0093F7F70F638607009307F0FF6F00800295
:10056C00130000008327C4FE83A7470193F70702FB
:10057C00E38A07FE0347B4FE8327C4FE23A0E700EB
:10058C0093070000138507000324C1011301010226
:10059C0067800000130101FD23268102130401036F
:1005AC00232EA4FC8327C4FD93B7170093F7F70FF2
:1005BC00638607009307F00F6F00C0021300000062
:1005CC008327C4FD83A7470193F71700E38A07FE2F
:1005DC008327C4FD83A707002326F4FE8327C4FECC
:1005EC0093F7F70F138507000324C10213010103CE
:1005FC0067800000130101FF232681001304010111
:10060C00B7870000138507000324C1001301010103
:10061C0067800000130101FC232E1102232C8102A0
:10062C00232A9102130401042326A4FCEFF09FFC5F
:10063C002326A4FE37070002B7C70000B307F70054
:10064C0003A787FF83A7C7FF2324E4FE3707000215
:10065C00B7C70000B307F70003A787FF83A7C7FF3F
:10066C002322E4FEF32700B0938007009387000059
:10067C002320F4FE032744FE832784FEE308F7FCC3
:10068C0037070002B7C70000B307F70003A787FFBF
:10069C0083A7C7FF832744FEB307F740232EF4FC40
:1006AC00F32700B09380070013870000832704FE14
:1006BC00B307F740232CF4FC0327C4FD8327C4FCA9
:1006CC00E360F7FC8325C4FD032584FDEF10507611
:1006DC00930705008325C4FE13850700EF105073A4
:1006EC009307050093840700832784FD8325C4FDAD
:1006FC0013850700EF109076930705008325C4FE41
:10070C0013850700EF10D070930705008325C4FDF7
:10071C0013850700EF10D07193070500B387F40021
:10072C00138507008320C103032481038324410321
:10073C001301010467800000130101FE232E110038
:10074C00232C81001304010213051000EFF09FEC21
:10075C0013054006EFF01FEC2326A4FE8327C4FEEE
:10076C00138507008320C1010324810113010102B9
:10077C0067800000130101FC232E1102232C81023F
:10078C00130401042326A4FC8327C4FC138607004E
:10079C0093060000935716019398F600B3E81701DF
:1007AC001318F6001306803E93060000130508008C
:1007BC0093850800EF10902F130705009387050011
:1007CC002324E4FE2326F4FE37070002B7C70000FB
:1007DC00B307F70003A787FF83A7C7FF2320E4FE17
:1007EC002322F4FE37070002B7C70000B307F70057
:1007FC0003A887FF83A8C7FF032504FE832544FEB7
:10080C003306A84093070600B337F800B386B84008
:10081C00B387F64093860700232CC4FC232ED4FC0C
:10082C000327C4FE8327C4FDE3EEE7FA0327C4FEC7
:10083C008327C4FD6318F700032784FE832784FDF8
:10084C00E3E2E7FA130000008320C10303248103D1
:10085C001301010467800000130101FF23268100AE
:10086C001304010197F7FF0F9387477F37B7C40431
:10087C001307074023A0E700130000000324C10066
:10088C001301010167800000130101FE232E1100EA
:10089C00232C8100130401022326A4FE2324B4FE7E
:1008AC00173500001305C521EF20C0068325C4FEB3
:1008BC001735000013050522EF10106AF3271034CA
:1008CC00938007009387000093850700173500007D
:1008DC0013054521EF105068F3273034938007003F
:1008EC0093870000938507001735000013058520BA
:1008FC00EF1090666F000000130101FE232E110013
:10090C00232C8100130401022326A4FE2324B4FE0D
:10091C00173500001305051FEF10D07F8325C4FE8B
:10092C00173500001305051BEF101063F327103467
:10093C00938007009387000093850700173500000C
:10094C001305451AEF105061F327303493800700DC
:10095C009387000093850700173500001305851950
:10096C00EF10905F130000008320C101032481016C
:10097C001301010267800000130101FE232E810088
:10098C0013040102232604FE6F0000031707000066
:10099C001307C7EF97F6FF0F9386C66D8327C4FE28
:1009AC0093972700B387F60023A0E7008327C4FEA4
:1009BC00938717002326F4FE0327C4FE9307A00099
:1009CC00E3D6E7FC13000000130000000324C10170
:1009DC001301010267800000130101FE232E810028
:1009EC0013040102232604FE6F0000031707000006
:1009FC001307C7F097F6FF0F9386866A8327C4FE0A
:100A0C0093972700B387F60023A0E7008327C4FE43
:100A1C00938717002326F4FE0327C4FE93070001D7
:100A2C00E3D6E7FC232604FE6F00C0021707000084
:100A3C001307C7EC9386C1888327C4FE93972700BE
:100A4C00B387F60023A0E7008327C4FE9387170023
:100A5C002326F4FE0327C4FE93079000E3D8E7FC9B
:100A6C0013000000130000000324C1011301010254
:100A7C0067800000130101FC232E1102232C81023C
:100A8C00232A9102130401042326A4FC2324B4FC7E
:100A9C008327C4FC63DA0710232604FE0327C4FC57
:100AAC00B71700009387F7FFB377F7002324F4FE02
:100ABC00032784FE9307B000631CF70AF32740F169
:100ACC0093840700938704002322F4FE832744FEBB
:100ADC001397C700B707200C93874700B307F7009D
:100AEC002320F4FE832704FE83A707002324F4FEAF
:100AFC00032784FE9307000163E4E70A17F7FF0F4F
:100B0C001307075A832784FE93972700B307F70030
:100B1C0083A707002326F4FE8327C4FE638A0700FD
:100B2C008327C4FE832584FC0325C4FCE7800700CF
:100B3C00832784FE232EF4FCF32740F193840700D3
:100B4C0093870400232CF4FC832784FD1397C700A0
:100B5C00B707200C93874700B307F700232AF4FC50
:100B6C00832744FD0327C4FD23A0E7006F00400347
:100B7C001387C188832784FE93972700B307F70058
:100B8C0083A707002326F4FE8327C4FE638A07008D
:100B9C008327C4FE832584FC0325C4FCE78007005F
:100BAC00930700006F004001832584FC0325C4FCDF
:100BBC00EF00000293070500138507008320C10393
:100BCC000324810383244103130101046780000083
:100BDC00130101FD232611022324810213040103B6
:100BEC00232EA4FC232CB4FC0327C4FDB717000050
:100BFC009387F7FFB377F7002324F4FE032784FED3
:100C0C009307A00063E2E70217F7FF0F130787466D
:100C1C00832784FE93972700B307F70083A7070069
:100C2C002326F4FE6F00000197070000938707C688
:100C3C002326F4FE8327C4FE638A07008327C4FEA1
:100C4C00832584FD0325C4FDE7800700930700007E
:100C5C00138507008320C1020324810213010103C1
:100C6C0067800000130101FE232E1100232C81004C
:100C7C001304010297370000938707EA2322F4FE3E
:100C8C0097370000938707EA2324F4FE9737000078
:100C9C009387C7E92326F4FE8327C4FE93850700B8
:100CAC00173500001305C5E8EF10102B13000000DA
:100CBC008320C1010324810113010102678000001C
:100CCC00130101FC232E1102232C8102232A9102F1
:100CDC0013040104EFF05FA61307050097F7FF0F4D
:100CEC009387C73723A0E700B7050300372501100A
:100CFC00EFF04FF3B7C7010093850720373501108C
:100D0C00EFF0CFF7EFF01FF6EFF01FC7EFF0DFCCEF
:100D1C00930710012326F4FE232404FE6F00C00B5E
:100D2C00832784FE2322F4FEF32740F193840700EB
:100D3C00938704002320F4FE832704FE1397770087
:100D4C00832744FE93D75700939727003307F70068
:100D5C00B727000CB307F700232EF4FC8327C4FD40
:100D6C0083A70700232CF4FC832744FE93F7F70199
:100D7C0013071000B317F70093C7F7FF138707008B
:100D8C00832784FDB3F7E700232CF4FC8327C4FDF1
:100D9C00032784FD23A0E70013000000832784FEB3
:100DAC00232AF4FC232804FC832744FD13972700F3
:100DBC00B707000CB307F7002326F4FC8327C4FC09
:100DCC00032704FD23A0E70013000000832784FE03
:100DDC00938717002324F4FE0327C4FE832784FE85
:100DEC00E3E0E7F4232404FCF32740F193840700A9
:100DFC00938704002322F4FC832744FC1397C70039
:100E0C00B707200CB307F7002320F4FC832704FC5E
:100E1C00032784FC23A0E70013000000130000004C
:100E2C00130000008320C1030324810383244103A6
:100E3C001301010467800000130101FE232E8100C1
:100E4C00130401022326A4FE130000000324C10195
:100E5C001301010267800000130101FF23268100AA
:100E6C0013040101130000000324C100130101014C
:100E7C0067800000130101FF232681001304010188
:100E8C00130000000324C10013010101678000005E
:100E9C00371600801306461C9306050A83A205002C
:100EAC0003A3450083A3850003AEC5002320550092
:100EBC0023226500232475002326C50193C212004A
:100ECC0031A0050683450600B3C2550013178E01E9
:100EDC0093558E00D98DFBF2B208FBF2B20AFBF2ED
:100EEC00B20CFBF2B20E33435300B3C36300334E68
:100EFC007E00410523205500232265002324750024
:100F0C002326C501E31FD5FA8280010083AE0500BC
:100F1C0003AF450083AF850083A8C500832206007C
:100F2C000323460083238600032EC6007BF0621049
:100F3C007BF0C313B3C25E0033436F00B3C37F00B7
:100F4C0033CEC8013307000089A0FB72D001FBF23D
:100F5C00E203FBF2F205FBF212077B73E0017B73F9
:100F6C00F3037B7313057B73D307FB73F001FBF364
:100F7C001303FBF3D305FBF3E3077B7E10017B7EAE
:100F8C00DE037B7EEE057B7EFE070507FB7E5000B5
:100F9C00FBFE6E02FBFE7E04FBFECE077B7F600039
:100FAC007B7F7F027B7FCF057B7F5F06FB7F7000A3
:100FBC00FBFFCF03FBFF5F04FBFF6F06FB78C00159
:100FCC00FBF85802FBF86804FBF87806E31FD7F629
:100FDC00FB72D009FBF2E20BFBF2F20DFBF2120FEB
:100FEC007B73E0097B73F30B7B73130D7B73D30F54
:100FFC00FB73F009FBF3130BFBF3D30DFBF3E30FC4
:10100C007B7E10097B7EDE0B7B7EEE0D7B7EFE0FE6
:10101C002320550023226500232475002326C501B7
:10102C008280010083AE050003AF450083AF8500CD
:10103C0083A8C50083220600032346008323860071
:10104C00032EC6007BF062107BF0C313B3C25E00AC
:10105C0033436F00B3C37F0033CEC8017BF0620013
:10106C007BF0C303FB7200087B73000AFB73000C5C
:10107C007B7E000E2320550023226500232475005F
:10108C002326C5018280010083AE050003AF450015
:10109C0083AF850083A8C500832206000323460086
:1010AC0083238600032EC600B3C25E0033436F0059
:1010BC00B3C37F0033CEC8019206B29689A0FBF26F
:1010CC00D201FBF2E203FBF2F205FBF212077B7397
:1010DC00E3017B73F3037B7313057B73D307FBF380
:1010EC00F301FBF31303FBF3D305FBF3E3077B7E65
:1010FC001E017B7EDE037B7EEE057B7EFE07832E50
:10110C000601032F4601832F86018328C601FBFEAF
:10111C005E00FBFE6E02FBFE7E04FBFECE077B7FB9
:10112C006F007B7F7F027B7FCF057B7F5F06FBFFA2
:10113C007F00FBFFCF03FBFF5F04FBFF6F06FBF899
:10114C00C801FBF85802FBF86804FBF87806130694
:10115C000602832206000323460083238600032E07
:10116C00C600E39EC6F4FBF2D209FBF2E20BFBF2E3
:10117C00F20DFBF2120F7B73E3097B73F30B7B73A2
:10118C00130D7B73D30FFBF3F309FBF3130BFBF37F
:10119C00D30DFBF3E30F7B7E1E097B7EDE0B7B7E88
:1011AC00EE0D7B7EFE0F23205500232265002324A9
:1011BC0075002326C501828001020408102040809E
:1011CC001B36797106D622D40018232EA4FCC147F5
:1011DC002307F4FEA30704FE25A08347F4FE032790
:1011EC00C4FDBA9783C70700BE85173500001305E9
:1011FC006595EF1060568347F4FE8507A307F4FE50
:10120C000347F4FE8347E4FEE369F7FC2945EF103E
:10121C0040580100B250225445618280517186D7EA
:10122C00A2D5801997370000938707939043D44336
:10123C009847DC472320C4FE2322D4FE2324E4FE5B
:10124C002326F4FE97370000938707929043D443EC
:10125C009847DC472328C4FC232AD4FC232CE4FC29
:10126C00232EF4FC173500001305458EEF10806A11
:10127C00130704FE930704F1BA853E85EF00D014E2
:10128C00130704FD930704F1BA853E85EF00507EE9
:10129C00930704FD3E8535370100BE502E546D6119
:1012AC008280130101D8232E1126232C8126232A78
:1012BC002127232831272326412723245127232282
:1012CC00612723207127232E8125232C9125232A66
:1012DC00A1252328B1250005973700009387C788DF
:1012EC009043D4439847DC47232CC4F4232ED4F4E6
:1012FC002320E4F62322F4F6973700009387C78562
:10130C009043D4439847DC472324C4F42326D4F4D5
:10131C002328E4F4232AF4F4232604FC17350000D4
:10132C0013058585EF10005F173500001305C58583
:10133C00EF10405E1735000013050588EF10805D37
:10134C00F32720B8BE8086872322F4E8F32720B049
:10135C00BE8086872320F4E8F32720B8BE808687DA
:10136C00232EF4E6032744E88327C4E76308F70039
:10137C00F32720B0BE8086872320F4E88327C4E7B8
:10138C00232CF4D8232E04D8832784D993970700D1
:10139C00232AF4D8232804D8832704E82324F4D858
:1013AC00232604D8032504D9832544D9AA870326E8
:1013BC0084D88326C4D83287D98F2324F4F6AE87F9
:1013CC003687D98F2326F4F6032784F68327C4F6B1
:1013DC002324E4FCF32700B8BE808687232CF4E694
:1013EC00F32700B0BE808687232AF4E6F32700B8E3
:1013FC00BE8086872328F4E6032784E7832704E747
:10140C006308F700F32700B0BE808687232AF4E632
:10141C00832704E72328F4DA232A04DA832704DB5E
:10142C00939707002326F4DA232404DA832744E76E
:10143C002320F4DA232204DA032584DA8325C4DAA0
:10144C00AA87032604DA832644DA3287D98F232825
:10145C00F4F6AE873687D98F232AF4F6032704F7E0
:10146C00832744F72322E4FC553BF32720B8BE80A6
:10147C0086872326F4E6F32720B0BE8086872324B4
:10148C00F4E6F32720B8BE8086872322F4E60327F0
:10149C00C4E6832744E66308F700F32720B0BE8038
:1014AC0086872324F4E6832744E62324F4DC2326CE
:1014BC0004DC832784DC939707002322F4DC2320AD
:1014CC0004DC832784E6232CF4DA232E04DA0325A8
:1014DC0004DC832544DCAA87032684DB8326C4DB57
:1014EC003287D98F232CF4F6AE873687D98F232EEB
:1014FC00F4F6032784F78327C4F72320E4FCF327AF
:10150C0000B8BE8086872320F4E6F32700B0BE80A7
:10151C008687232EF4E4F32700B8BE808687232C1D
:10152C00F4E4032704E6832784E56308F700F32734
:10153C0000B0BE808687232EF4E4832784E5232025
:10154C00F4DE232204DE832704DE93970700232E88
:10155C00F4DC232C04DC8327C4E52328F4DC232AC5
:10156C0004DC032584DD8325C4DDAA87032604DD82
:10157C00832644DD3287D98F2320F4F8AE87368753
:10158C00D98F2322F4F8032704F8832744F8232E59
:10159C00E4FA032704FC832784FCB307F740232CCD
:1015AC00F4FA0327C4FB832744FCB307F740232A30
:1015BC00F4FA172500001305255DEF10A03517254B
:1015CC00000013052561EF10E034F32720B8BE802E
:1015DC008687232AF4E4F32720B0BE80868723284D
:1015EC00F4E4F32720B8BE8086872326F4E403278F
:1015FC0044E58327C4E46308F700F32720B0BE80DA
:10160C0086872328F4E48327C4E4232CF4DE232EDA
:10161C0004DE832784DF93970700232AF4DE232834
:10162C0004DE832704E52324F4DE232604DE0325CD
:10163C0004DF832544DFAA87032684DE8326C4DEE9
:10164C003287D98F2324F4F8AE873687D98F232697
:10165C00F4F8032784F88327C4F82324E4FCF32745
:10166C0000B8BE8086872324F4E4F32700B0BE8044
:10167C0086872322F4E4F32700B8BE8086872320D4
:10168C00F4E4032784E4832704E46308F700F327D6
:10169C0000B0BE8086872322F4E4832704E4232849
:1016AC00F4E0232A04E0832704E193970700232620
:1016BC00F4E0232404E0832744E42320F4E02322F1
:1016CC0004E0032584E08325C4E0AA87032604E014
:1016DC00832644E03287D98F2328F4F8AE873687E7
:1016EC00D98F232AF4F8032704F9832744F92322FA
:1016FC00E4FC930684F4130784F5930784F336868D
:10170C00BA853E850532F32720B8BE808687232E06
:10171C00F4E2F32720B0BE808687232CF4E2F32773
:10172C0020B8BE808687232AF4E20327C4E38327EC
:10173C0044E36308F700F32720B0BE808687232C90
:10174C00F4E2832744E33E8C814C931D0C00014D45
:10175C00832784E3232CF4E0232E04E0032684E186
:10176C008326C4E1B287B367FD00232CF4F8B68757
:10177C00B3E7FD00232EF4F8032784F98327C4F97B
:10178C002320E4FCF32700B8BE8086872328F4E2EC
:10179C00F32700B0BE8086872326F4E2F32700B837
:1017AC00BE8086872324F4E2032704E3832784E2A4
:1017BC006308F700F32700B0BE8086872326F4E287
:1017CC00832784E23E898149931A0900014A8327C1
:1017DC00C4E23E8B814BB3676A012320F4FAB3E772
:1017EC007A012322F4FA032704FA832744FA232EDE
:1017FC00E4FA032704FC832784FCB307F74023286F
:10180C00F4FA0327C4FB832744FCB307F7402326D1
:10181C00F4FA1725000013052537EF10A00F172534
:10182C0000001305E53CEF10E00E17250000130532
:10183C00A53DEF10200E032644FB832584FB1725C2
:10184C0000001305253DEF0030711725000013052E
:10185C00653EEF10200C0326C4FA832504FB1725E4
:10186C0000001305253BEF00306F17250000130512
:10187C00253DEF10200A930784F33E8599320545E8
:10188C00EFE05FEF55B40000130101FC232E810241
:10189C00130401042326A4FC2324B4FC232604FEF5
:1018AC006F00800C8327C4FE93972700032784FCCA
:1018BC003307F7008327C4FE939727008326C4FCC5
:1018CC00B387F600034707002380E7008327C4FE95
:1018DC009397270093871700032784FC3307F7009F
:1018EC008327C4FE93972700938717008326C4FC95
:1018FC00B387F600034707002380E7008327C4FE65
:10190C009397270093872700032784FC3307F7005E
:10191C008327C4FE93972700938727008326C4FC54
:10192C00B387F600034707002380E7008327C4FE34
:10193C009397270093873700032784FC3307F7001E
:10194C008327C4FE93972700938737008326C4FC14
:10195C00B387F600034707002380E7008327C4FE04
:10196C00938717002326F4FE0327C4FE9307300049
:10197C00E3FAE7F2930740002326F4FE6F00C0223F
:10198C008327C4FE9387F7FF939727002324F4FE45
:10199C000327C4FC832784FEB307F70083C7070023
:1019AC00230EF4FC832784FE938717000327C4FCC3
:1019BC00B307F70083C70700A30EF4FC832784FE4C
:1019CC00938727000327C4FCB307F70083C70700DE
:1019DC00230FF4FC832784FE938737000327C4FC72
:1019EC00B307F70083C70700A30FF4FC8327C4FEDB
:1019FC0093F737006392070C8347C4FDA303F4FEEF
:101A0C008347D4FD230EF4FC8347E4FDA30EF4FCC2
:101A1C008347F4FD230FF4FC834774FEA30FF4FCFF
:101A2C008347C4FD1387070097270000938747243B
:101A3C00B387E70083C70700230EF4FC8347D4FD6C
:101A4C00138707009727000093878722B387E70047
:101A5C0083C70700A30EF4FC8347E4FD138707003C
:101A6C00972700009387C720B387E70083C7070039
:101A7C00230FF4FC8347F4FD13870700972700001E
:101A8C009387071FB387E70083C70700A30FF4FCF6
:101A9C000347C4FD8327C4FE93D727009726000075
:101AAC009386062DB387F60083C70700B347F7006C
:101ABC0093F7F70F230EF4FC8327C4FE93972700AC
:101ACC002320F4FE8327C4FE9387C7FF9397270038
:101ADC002324F4FE0327C4FC832784FEB307F700FA
:101AEC0083C607000347C4FD0326C4FC832704FEFA
:101AFC00B307F60033C7E6001377F70F2380E70030
:101B0C00832784FE938717000327C4FCB307F700D1
:101B1C0083C607000347D4FD832704FE9387170071
:101B2C000326C4FCB307F60033C7E6001377F70FA0
:101B3C002380E700832784FE938727000327C4FCB8
:101B4C00B307F70083C607000347E4FD832704FEB1
:101B5C00938727000326C4FCB307F60033C7E600BF
:101B6C001377F70F2380E700832784FE93873700D2
:101B7C000327C4FCB307F70083C607000347F4FD33
:101B8C00832704FE938737000326C4FCB307F600B3
:101B9C0033C7E6001377F70F2380E7008327C4FED3
:101BAC00938717002326F4FE0327C4FE9307B00285
:101BBC00E3F8E7DC13000000130000000324C1036A
:101BCC001301010467800000130101FE232E110094
:101BDC00232C8100130401022326A4FE2324B4FE2B
:101BEC008327C4FE832584FE13850700EFF0DFC92D
:101BFC00130000008320C1010324810113010102A1
:101C0C0067800000130101FD2326810213040103E8
:101C1C0093070500232CB4FC232AC4FCA30FF4FC6B
:101C2C00A30704FE6F00C009230704FE6F00C00762
:101C3C000347F4FE8347E4FE832684FD1317270035
:101C4C003387E600B307F70003C607008347F4FDAC
:101C5C00139727008347F4FEB307F7001397270069
:101C6C008347E4FEB307F70013870700832744FD7F
:101C7C00B387E70003C707008346F4FE8347E4FEFF
:101C8C003347E6001377F70F032684FD939626005F
:101C9C00B306D600B387F6002380E7008347E4FE43
:101CAC00938717002307F4FE0347E4FE93073000E5
:101CBC00E3F0E7F88347F4FE93871700A307F4FEDD
:101CCC000347F4FE93073000E3F0E7F6130000003F
:101CDC00130000000324C1021301010367800000FC
:101CEC00130101FD2326810213040103232EA4FCFE
:101CFC00A30704FE6F00C007230704FE6F00C00596
:101D0C000347E4FE8347F4FE8326C4FD1317270024
:101D1C003387E600B307F70083C707001386070075
:101D2C008346E4FE8347F4FE17270000130747F4AD
:101D3C003307C700034707000326C4FD939626000C
:101D4C00B306D600B387F6002380E7008347E4FE92
:101D5C00938717002307F4FE0347E4FE9307300034
:101D6C00E3F0E7FA8347F4FE93871700A307F4FE2A
:101D7C000347F4FE93073000E3F0E7F8130000008C
:101D8C00130000000324C10213010103678000004B
:101D9C00130101FD2326810213040103232EA4FC4D
:101DAC008327C4FD83C71700A307F4FE8327C4FD54
:101DBC0003C757008327C4FDA380E7008327C4FD16
:101DCC0003C797008327C4FDA382E7008327C4FDC4
:101DDC0003C7D7008327C4FDA384E7008327C4FD72
:101DEC000347F4FEA386E7008327C4FD83C72700BF
:101DFC00A307F4FE8327C4FD03C7A7008327C4FDF4
:101E0C002381E7008327C4FD0347F4FE2385E70005
:101E1C008327C4FD83C76700A307F4FE8327C4FD93
:101E2C0003C7E7008327C4FD2383E7008327C4FD92
:101E3C000347F4FE2387E7008327C4FD83C73700DD
:101E4C00A307F4FE8327C4FD03C7F7008327C4FD53
:101E5C00A381E7008327C4FD03C7B7008327C4FD14
:101E6C00A387E7008327C4FD03C777008327C4FD3E
:101E7C00A385E7008327C4FD0347F4FEA383E70093
:101E8C00130000000324C10213010103678000004A
:101E9C00130101FE232E8100130401029307050098
:101EAC00A307F4FE8347F4FE9397170093968701DC
:101EBC0093D686418347F4FE93D7770093F7F70FB9
:101ECC0013870700131737003307F7401317270042
:101EDC00B307F74093F7F70F9397870193D7874191
:101EEC00B3C7F6009397870193D7874193F7F70F02
:101EFC00138507000324C101130101026780000050
:101F0C00130101FD23261102232481021304010372
:101F1C00232EA4FCA30704FE6F0000298347F4FEC4
:101F2C000327C4FD93972700B307F70083C7070067
:101F3C002307F4FE8347F4FE0327C4FD9397270081
:101F4C00B307F70003C707008347F4FE8326C4FDDD
:101F5C0093972700B387F60083C71700B347F700A2
:101F6C0013F7F70F8347F4FE8326C4FD93972700DE
:101F7C00B387F60083C72700B347F70013F7F70FB3
:101F8C008347F4FE8326C4FD93972700B387F6009E
:101F9C0083C73700B347F700A306F4FE8347F4FE6C
:101FAC000327C4FD93972700B307F70003C7070067
:101FBC008347F4FE8326C4FD93972700B387F6006E
:101FCC0083C71700B347F7002306F4FE8347C4FE0C
:101FDC0013850700EFF0DFEB930705002306F4FEF3
:101FEC008347F4FE0327C4FD93972700B307F7003C
:101FFC0083C607000347C4FE8347D4FEB347F700EC
:10200C0013F7F70F8347F4FE33C7E6001377F70F88
:10201C008326C4FD93972700B387F6002380E7003F
:10202C008347F4FE0327C4FD93972700B307F700FB
:10203C0003C717008347F4FE8326C4FD939727003C
:10204C00B387F60083C72700B347F7002306F4FED7
:10205C008347C4FE13850700EFF09FE39307050049
:10206C002306F4FE8347F4FE0327C4FD9397270051
:10207C00B307F70083C617000347C4FE8347D4FE9B
:10208C00B347F70013F7F70F8347F4FE33C7E600A7
:10209C001377F70F8326C4FD93972700B387F600B9
:1020AC00A380E7008347F4FE0327C4FD9397270022
:1020BC00B307F70003C727008347F4FE8326C4FD4C
:1020CC0093972700B387F60083C73700B347F70011
:1020DC002306F4FE8347C4FE13850700EFF05FDB95
:1020EC00930705002306F4FE8347F4FE0327C4FD83
:1020FC0093972700B307F70083C627000347C4FE56
:10210C008347D4FEB347F70013F7F70F8347F4FE6A
:10211C0033C7E6001377F70F8326C4FD9397270088
:10212C00B387F6002381E7008347F4FE0327C4FD41
:10213C0093972700B307F70003C737008347E4FEE4
:10214C00B347F7002306F4FE8347C4FE138507004C
:10215C00EFF01FD4930705002306F4FE8347F4FE2B
:10216C000327C4FD93972700B307F70083C63700F6
:10217C000347C4FE8347D4FEB347F70013F7F70FAA
:10218C008347F4FE33C7E6001377F70F8326C4FDAD
:10219C0093972700B387F600A381E7008347F4FEEB
:1021AC0093871700A307F4FE0347F4FE9307300050
:1021BC00E3F6E7D613000000130000008320C102F1
:1021CC00032481021301010367800000130101FD48
:1021DC00232611022324810213040103232EA4FCC1
:1021EC00232CB4FCA30704FE032684FD8325C4FD25
:1021FC0013050000EFF01FA193071000A307F4FED6
:10220C000325C4FDEFF0DFAD0325C4FDEFF05FB88F
:10221C000347F4FE9307A0006308F7020325C4FDEF
:10222C00EFF01FCE8347F4FE032684FD8325C4FD07
:10223C0013850700EFF01F9D8347F4FE938717006B
:10224C00A307F4FE6FF0DFFB13000000032684FDF0
:10225C008325C4FD1305A000EFF0DF9A13000000E6
:10226C008320C10203248102130101036780000053
:10227C00130101FE232E1100232C810013040102F3
:10228C002326A4FE2324B4FE8327C4FE93850700D3
:10229C00032584FEEFF09FF3130000008320C1019F
:1022AC00032481011301010267800000AA88AE8714
:1022BC0032883685468363990620972600009386DC
:1022CC00E6AB63F0C50C41676376E60A1307F00FC3
:1022DC003337C7000E073355E600AA9683C60600AF
:1022EC00130500023697B306E540630CE500B3977F
:1022FC00D70033D7E8003318D600B365F700339313
:10230C00D80093580801B3D715031316080141825E
:10231C0013570301B3F615033E85B305F602C20647
:10232C00558F637CB70042971385F7FF63670701EE
:10233C006375B7001385E7FF42970D8FB3771703CB
:10234C0042031353030133571703C20733E36700E8
:10235C00B306E6023A86637BD30042931306F7FF7B
:10236C00636603016374D3001306E7FF4205518DC6
:10237C0081455DA8370500014147E36EA6F461472E
:10238C0099BF01E605473358C7024167637FE808E8
:10239C001307F00F6373070121453357A800BA9652
:1023AC0003C70600130600022A97B306E64063151E
:1023BC00E608B387074185459358080113160801B1
:1023CC00418213570301B3F61703B3D71703C206A1
:1023DC00558F330EF6023E85637CC70142971385F9
:1023EC00F7FF636707016375C7011385E7FF429722
:1023FC003307C741B3771703420313530301335712
:10240C001703C20733E36700B306E6023A86637B21
:10241C00D30042931306F7FF636603016374D30082
:10242C001306E7FF4205518D8280370700014145B5
:10243C00E365E8F6614595B73318D800B3D5E700E6
:10244C003393D800B397D70033D7E80093580801DB
:10245C003366F70033F7150393170801C18313553F
:10246C000601B3D515034207498FB386B7022E85F3
:10247C00637CD70042971385F5FF6367070163758B
:10248C00D7001385E5FF4297B306D74033F7160301
:10249C0042064182B3D616034207B388D702B3670C
:1024AC00C700368763FC1701C2971387F6FF63E7F3
:1024BC00070163F517011387E6FFC2979315050112
:1024CC00B3871741D98DCDBD63E1D514416763FF47
:1024DC00E6021307F00FB335D7008E0533D5B600DF
:1024EC0017270000130787892A970347070013054E
:1024FC0000022E97B305E5406311E5020545E3E5BF
:10250C00F6F233B5C8001345150039BF3707000183
:10251C00C145E3E5E6FCE145D1B73353E600B3969C
:10252C00B6003363D30033D5E700935E0301B37673
:10253C00D503B397B70033D7E8003368F700931788
:10254C000301C183135708013316B6003355D50365
:10255C00C206558F338FA7022A8E637CE7011A9728
:10256C00130EF5FF636767006375E701130EE5FF54
:10257C001A973307E741B376D7033357D703C2060D
:10258C00B38EE70293170801C183D58F3A8563FC9C
:10259C00D7019A971305F7FF63E7670063F5D70137
:1025AC001305E7FF9A97420EB387D741C16E336587
:1025BC00AE009386FEFF3373D50013580501F18EE0
:1025CC004182330ED302B306D80213570E013303E4
:1025DC00C30236931A973308C8026373D7007698F0
:1025EC0093560701369863E00703E39307D9C16755
:1025FC00FD177D8F4207337EFE00B398B8007297AB
:10260C008145E3F3E8E27D15A5B38145014529BD7C
:10261C002A86014593F6150091C2329585810606EE
:10262C00F5F9828000000000634E050263C30504C7
:10263C002E86AA857D5515C285466378B6006356ED
:10264C00C00006068606E36CB6FE014563E4C500D1
:10265C00918D558D85820582F5FA82808682C93FDF
:10266C002E8582823305A04063D70500B305B040A8
:10267C00C1B7B305B0408682653F3305A040828266
:10268C00868263C70500634905005D372E8582820B
:10269C00B305B040E35B05FE3305A040513F330565
:1026AC00B04082820000AA8581460146014525A9D9
:1026BC004111972700009387A78B22C41724000091
:1026CC001304048B1D8C26C206C60984BE8419E42F
:1026DC002244B240924441016FE0CFF97D1493172C
:1026EC002400A6979C438297DDB7411197270000E1
:1026FC009387078822C417240000130464871D8C59
:10270C0026C24AC006C6098481443E896398840265
:10271C00EFE08FF49727000093878785172400003C
:10272C00130404851D8C098481443E89639F8400B5
:10273C00B240224492440249410182809397240082
:10274C00CA979C4385048297D1B793972400CA9764
:10275C009C4385048297D9BF5D7122D406D62A8406
:10276C002EDA32DC36DEBAC0BEC2C2C4C6C603A57F
:10277C00818011C51C4D81E72AC6A12532450C4527
:10278C005418228636CEEF003032B250225461619A
:10279C008280AA8503A5818011CD1C4D81EF01118A
:1027AC0006CE2EC62AC4312D2245B245F240104524
:1027BC00056119A01045F5BF011122CC06CE2A8463
:1027CC0001C91C4D91E732C62EC4E52B3246A245F9
:1027DC00971700009387876C631CF60250401C46C9
:1027EC00FD171CC663DA0700184E63C3E70493F7A2
:1027FC00F50F2947638EE7021C4213F5F50F13877B
:10280C00170018C22380B700F24062440561828031
:10281C00971700009387876A6314F6001044C1B7BA
:10282C009717000093878765E31BF6FA504445BF62
:10283C0022856244F2400561E5A0011126CA4AC80E
:10284C0006CE22CC4EC652C4AA842E8901C51C4D7C
:10285C0091E3852B9C4C804499E326859D23971707
:10286C0000009387A763631CF402C0408357C40025
:10287C00A18BB1C71C48A1C7FD59294A1C448345EB
:10288C000900FD17B1E91CC463DE07062286A945C1
:10289C0026857920FD576308F502294535A0971741
:1028AC0000009387A7616314F4008044C1B79717A5
:1028BC0000009387A75CE31BF4FAC04445BFA285D4
:1028CC002685392A55D97D55F2406244D244424975
:1028DC00B249224A056182801CC4050963D70700EE
:1028EC00184C63CBE700638945011C401387170024
:1028FC0018C02380B70059B7228626851520E31F00
:10290C0035F7D1B71C401387170018C0294723800F
:10291C00E70061B7AA8503A5818005B76FD05F83F7
:10292C00011122CC26CA4AC806CE4EC6AA842E89CC
:10293C00328401C51C4D91E36921971700009387E0
:10294C00E7556319F406C0401C4C1CC48357C400E3
:10295C00A18BC9C31C48BDCF1C4808409379F90F03
:10296C001379F90F1D8D5C486346F500A285268509
:10297C00252E2DE51C440505FD171CC41C40138792
:10298C00170018C0238037015C486389A700835760
:10299C00C400858B81CBA9476316F900A2852685D7
:1029AC0021260DEDF2406244D244B2494A85424997
:1029BC000561828097170000938747506314F400D9
:1029CC00804459B7971700009387474BE31EF4F6E2
:1029DC00C0449DBFA285268521203DDD7D59D9B7F8
:1029EC00411122C426C24AC006C683A481802A890A
:1029FC002E8489C49C4C99E32685E1269717000008
:102A0C009387C7496317F402C0408317C400139718
:102A1C00070193F687004183ADEA9376070195EAA7
:102A2C0025472320E90093E707042316F4007D557E
:102A3C0071A897170000938767486314F4008044CB
:102A4C00E9B79717000093876743E310F4FCC04481
:102A5C006DBF118B0DC74C5889C99307440463840F
:102A6C00F5004A859525232A04028357C4002322A6
:102A7C00040093F7B7FD2316F4001C481CC08357C1
:102A8C00C40093E787002316F4001C4881EF83579A
:102A9C00C4001307002093F707286385E700A2857D
:102AAC004A85CD218317C4001397070193F61700AD
:102ABC0041839DC2544823240400B306D04014CC57
:102ACC001448014581E61377070831FFB2402244D0
:102ADC00924402494101828093762700014691E29B
:102AEC00504810C4F1BFAA88138501811C4191EF95
:102AFC001387418B18C117D5FF7F1305E54FBA8794
:102B0C0009C51C412324F708BA87D8437D487D5555
:102B1C006346E804638D080203A887086300080471
:102B2C0013152700429510C10323081005463316D0
:102B3C00E6003363C300232068102320D5088946A0
:102B4C006397D80083264810558E2322C81093060D
:102B5C0017000A07D4C3BA978CC70145828083D764
:102B6C00C500011122CC26CA06CE4AC84EC613F7A0
:102B7C008700AA842E8465E7D8416347E000B841FA
:102B8C006344E0000145C1A058546DDF03A9040063
:102B9C009396370123A0040063DE0606684883572A
:102BAC00C400918B99C75C401D8D5C5899C33C4007
:102BBC001D8D5C540C502A86814626858297FD57C4
:102BCC000357C400631DF5009440F54763E4D70830
:102BDC00B70740208507B3D7D700858BA5CF1C48F6
:102BEC00232204001CC09317370163D80700FD573C
:102BFC006314F5009C4091E368C84C5823A0240151
:102C0C00D1D1930744046384F50026857529232AC2
:102C1C0004028DBF0C508546014626850297FD5750
:102C2C00E31FF5F69C40A5DF75476385E700594720
:102C3C006395E70023A02401B1B78357C40093E741
:102C4C0007042316F400F2406244D2444249B249CC
:102C5C0005618280136707042316E400EDB783A98E
:102C6C000501E38109F203A905008D8B23A0350131
:102C7C0033093941014791E3D84918C4E35420F191
:102C8C001C540C50CA864E8626858297634AA00037
:102C9C008357C4007D5593E707042316F40065B7EA
:102CAC00AA993309A940D9BF9C49B9CF011122CCAB
:102CBC0006CE2A8411C51C4D81E72EC61922B245B9
:102CCC00971700009387871D639BF5004C408397F3
:102CDC00C50095C722856244F240056149B5971736
:102CEC0000009387A71D6394F5000C44CDB797178C
:102CFC0000009387A718E39CF5FC4C44C9BFF24035
:102D0C00624401450561828001458280411122C4E3
:102D1C0006C62A842316B5002317C50023200500F8
:102D2C002322050023240500232205062328050061
:102D3C00232A0500232C0500214681451305C505D2
:102D4C00C52497170000938767825CD09717000003
:102D5C009387C7841CD497170000938707895CD48A
:102D6C00971700009387C78BB24000D01CD8224421
:102D7C004101828097050000938545F391A2411192
:102D8C0026C2130680069384F5FFB384C4024AC09E
:102D9C002E8922C406C693854407C12E2A8419C9DC
:102DAC002320050023222501310508C4138684063F
:102DBC008145BD24B24022852244924402494101FE
:102DCC0082801C4DADE3411122C406C6970700005A
:102DDC00938787FA1CD5232405042326050423286E
:102DEC00050483A7C1802A846314F50085471CCD94
:102DFC0022851D2848C02285052808C422852D203F
:102E0C0048C4484001469145113708440546A5453C
:102E1C00F53D48440946C945D53D8547B2401CCCD3
:102E2C002244410182808280411126C283A4C18048
:102E3C009C4C4AC006C622C42A8999E32685513780
:102E4C00938484048044DC40FD1763D607009C40C7
:102E5C00B1CF8440C5BF0317C40031E7C1778507E4
:102E6C00232204062320040023220400232404002C
:102E7C005CC423280400232A0400232C04002146CC
:102E8C0081451305C405692A232A0402232C040254
:102E9C002324040423260404B240228522449244B1
:102EAC000249410182801304840679BF91454A8509
:102EBC00F93588C02A8451FDB1472320F900E9BFB8
:102ECC00797122D44AD04ECE52CC5AC85EC606D6A0
:102EDC0026D256CA2A892E8A130485048149054BA9
:102EEC00FD5B0444832A4400FD1A63D00A020040AF
:102EFC006DF8B250225492540259624AD24A424B53
:102F0C00B24B4E85F2494561828083D7C400637B06
:102F1C00FB008397E40063877701A6854A85029AB4
:102F2C00B3E9A90093848406C1B75971CAD02E891C
:102F3C008395E500A2D4A6D286D63284B68463DC0F
:102F4C0005008357C90023A0040093F707088DE3FD
:102F5C009307004005A03000392FE34405FE3247AB
:102F6C00BD67F98F7977BA9793B717009CC0CDB727
:102F7C0093070004B6501CC02654965406590145BC
:102F8C006561828083D7C500011122CC06CE26CA8A
:102F9C004AC8898B2E8489CF930774041CC01CC823
:102FAC0085475CC8F2406244D24442490561828044
:102FBC00740030002A89953FA245AA844A8575225F
:102FCC0001ED8317C40013F7072069FFF19B93E70A
:102FDC0027002316F400C9B7970700009387C7D9B9
:102FEC002324F9028357C40008C008C893E70708D4
:102FFC002316F400A2475CC8B24789CF8315E400BE
:10300C004A85792D01C98357C400F19B93E71700BA
:10301C002316F4000355C400C98C2316940059B729
:10302C003D432A876373C3029377F700BDEFADE589
:10303C00937606FF3D8ABA960CC34CC30CC74CC79B
:10304C004107E36BD7FE11E28280B306C3408A06C8
:10305C009702000096966780A6002307B700A30688
:10306C00B7002306B700A305B7002305B700A304D8
:10307C00B7002304B700A303B7002303B700A302D0
:10308C00B7002302B700A301B7002301B700A300C8
:10309C00B7002300B700828093F5F50F9396850057
:1030AC00D58D93960501D58D61B793962700970220
:1030BC00000096968682E78086FA9680C1171D8F4F
:1030CC003E96E374C3F8A5B7C5C183A7C5FF01112C
:1030DC0022CC06CE1384C5FF63D307003E942AC6C8
:1030EC003D25138741811C4332453A8681EB2322CF
:1030FC00040000C36244F240056119AD637EF40024
:10310C0014403307D4006396E7009843DC433697AA
:10311C0018C05CC000C2F9BF3E87DC4399C3E37D95
:10312C00F4FE14433306D700631F86001040B2969A
:10313C0014C33306D700E39FC7FA9043DC43B2961F
:10314C0014C35CC345BF6375C400B1471CC15DB7F4
:10315C001040B306C4006396D7009443DC43B29688
:10316C0014C05CC040C379B78280011126CA938415
:10317C003500F1984AC806CE22CC4EC6A104B14700
:10318C002A8963F1F404B14463E0B4044A85412311
:10319C00938741819843BE863A8431E013848181C0
:1031AC001C4089E781454A85612E08C0A6854A8561
:1031BC00412EFD5963183507B1472320F9004A8584
:1031CC00812B31A0E3D204FCB1472320F900014547
:1031DC00F2406244D2444249B249056182801C40AB
:1031EC00858F63CE07022D466376F6001CC03E9495
:1031FC0004C029A05C40631287029CC24A85092B3B
:10320C001305B4009307440061993307F540E301BB
:10321C00F5FC3A94898F1CC065BF5CC3C5B7228787
:10322C004040A5BF130435007198E30385FCB3053A
:10323C00A4404A853126E31D35FBBDBF1C46FD1756
:10324C001CC663DA0700184E63C5E700A9476394F0
:10325C00F5006FF0EFEC1C422E851387170018C297
:10326C002380B7008280011122CC26CA4AC84EC6E0
:10327C0052C406CE2A89AE893284B304D6007D5A54
:10328C0063149400014509A8834504004E864A85C1
:10329C0075370504E31645FFF2406244D2444249B7
:1032AC00B249224A05618280357122CD26CB4AC9AA
:1032BC004EC706CF52C556C35AC1DEDEE2DCE6DA93
:1032CC00AA89AE843289368401C51C4D91E3D53C64
:1032DC0097170000938787BC639BF40C83A4490069
:1032EC0083D7C400A18BF5C79C48E5C793070002A0
:1032FC00A304F1029307000302D22305F10222C6B4
:10330C00930B5002971A0000938A4ABD054C294B27
:10331C004A848347040099C36390770FB30C24410C
:10332C00630D2401E6864A86A6854E852D3FFD5702
:10333C006306F51E9257E6973ED283470400638FCF
:10334C00071CFD571309140002C802CE3ECA02CC5A
:10335C00A309010482D48345090015465685592ECC
:10336C00C2471304190059E913F7070109C71307DA
:10337C000002A309E10413F7870009C71307B00281
:10338C00A309E104834609001307A0026380E60841
:10339C00F2474A84814625460347040093051400EE
:1033AC00130707FD6379E60AB5CA3ECE85A89717C1
:1033BC0000009387A7B06395F40083A489000DB730
:1033CC0097170000938787ABE39CF4F083A4C900A4
:1033DC0001BFA6854E85EFF0AFE009D97D55FA40C7
:1033EC006A44DA444A49BA492A4A9A4A0A4BF65B71
:1033FC00665CD65C0D618280050421BF33055541A6
:10340C003315AC00C98F3EC82289B1B73247930639
:10341C004700184336C6634907023ACE03470400F7
:10342C009307E002631FF704034714009307A002FD
:10343C00631BF702B2470904138747009C433AC643
:10344C0063C107023ECA35A83307E04093E7270063
:10345C003ACE3EC8E1B7B38767032E848546BA9748
:10346C0025BFFD57C5B7050402CA814681472546CD
:10347C000347040093051400130707FD6376E60663
:10348C00F1F2834504000D4617150000130585A5C0
:10349C00952411CD971700009387C7A41D8D930712
:1034AC000004B397A700424505045D8D2AC88345E7
:1034BC000400194617150000130505A31309140081
:1034CC002304B102052C3DC197D7FF7F9387C7B268
:1034DC0095E74247B2471377071009CF91073EC6CD
:1034EC009257D2973ED22DB5B38767032E8485466B
:1034FC00BA97BDBF9D07E19BA107D5B7780097068A
:10350C000000938686D626860C084E859700000010
:10351C00E7000000FD572A8AE314F5FC83D7C400AA
:10352C0093F70704E39C07EA125555BD78009706FC
:10353C000000938686D326860C084E85CD24D9BFF1
:10354C00411122C42A842E8523A0019406C6EFC003
:10355C007FCBFD576316F50083A7019491C31CC064
:10356C00B240224441018280411122C42E848395B1
:10357C00E50006C6312B634905007C48AA977CC838
:10358C00B2402244410182808357C4007D777D176D
:10359C00F98F2316F400EDB783D7C500011122CCA7
:1035AC0026CA4AC84EC606CE93F70710AA842E84A4
:1035BC003289B68991C78395E5008946014629224F
:1035CC008357C4007D777D17F98F8315E40023168C
:1035DC00F4006244F240CE864A86B24942492685BE
:1035EC00D24405613DA8411122C42E848395E50087
:1035FC0006C6D928FD570357C400631BF500FD7799
:10360C00FD17F98F2316F400B24022444101828049
:10361C008567D98F2316F40068C8FDB78395E5003C
:10362C003DA0411122C42A842E85B285368623A062
:10363C00019406C6EFC0DFC6FD576316F50083A7DD
:10364C00019491C31CC0B2402244410182804111BB
:10365C0022C42A842E8523A0019406C6EFC05FA63F
:10366C00FD576316F50083A7019491C31CC0B240AB
:10367C00224441018280411122C42A842E85B285C4
:10368C0023A0019406C6EFC0BFA6FD576316F50034
:10369C0083A7019491C31CC0B24022444101828093
:1036AC00411122C42A842E8523A0019406C6EFC0A2
:1036BC003FAAFD576316F50083A7019491C31CC064
:1036CC00B240224441018280411122C42A842E85B9
:1036DC00B285368623A0019406C6EFC0BFA9FD575C
:1036EC006316F50083A7019491C31CC0B240224419
:1036FC004101828093F5F50F2A966314C5000145AC
:10370C00828083470500E38DB7FE0505FDB78280F7
:10371C008280797152CC9C493A8A984522D426D21F
:10372C004ECE56CA06D64AD05AC85EC6AA892E8430
:10373C00B284B68A63D3E700BA879CC003473404CB
:10374C0019C385079CC01C4093F7070281C79C4096
:10375C0089079CC00329040013796900631A0900C6
:10376C00130B9401FD5B5C449840998F634CF904F6
:10377C0083473404B336F0001C4093F70702A5EBE3
:10378C0013063404D6854E85029AFD576303F5045F
:10379C001C4011469840998B544481446397C70050
:1037AC00B384E64063D3040081441C44184863543A
:1037BC00F700998FBE94014969047D5B63982405D9
:1037CC00014509A885465A86D6854E85029A631E00
:1037DC0075017D55B250225492540259F249624AF5
:1037EC00D24A424BB24B456182800509ADBF3307CB
:1037FC00D40013060003A301C704034754049387A2
:10380C001600A2978906A381E7049DBF85462286F0
:10381C00D6854E85029AE30E65FB050945B779718D
:10382C0022D426D24AD04ECE06D652CC56CA5AC82C
:10383C002E84B6899386350483C58501930780074A
:10384C00AA84328963ECB7009307200663EDB700B6
:10385C006386051C93078005638BF512930A240479
:10386C002301B40415A89387D5F993F7F70F5546A0
:10387C00E366F6FE170600001306066A8A07B2977F
:10388C009C43B29782871C43930A24049386470077
:10389C009C4314C32301F404854765A21C400843D0
:1038AC0013F60708930545000DC21C410CC363D8E1
:1038BC0007001307D002B307F040A301E404170676
:1038CC0000001306E6622947A9A013F607041C4161
:1038DC000CC371DEC207C187D9BF10401C431378DB
:1038EC000608138547006305080008C39C4339A0EC
:1038FC001376060408C37DDA83D707001307F00696
:10390C00170600001306C65E6384E50E2947A30163
:10391C0004044C400CC463C5050008406D9908C0F4
:10392C0099E3B68A99CDB68AB3F5E702FD1AB2953A
:10393C0083C505002380BA00BE85B3D7E702E3F543
:10394C00E5FEA147631EF7001C40858B91CB5840C8
:10395C001C4863C7E70093070003A38FFAFEFD1A08
:10396C00B386564114C84E87CA867000A285268538
:10397C004D337D5A631B450D7D55B25022549254E4
:10398C000259F249624AD24A424B45618280A302F3
:10399C00B404170600001306A6550C40084313F890
:1039AC0005081C411105630D080208C313F7150027
:1039BC0001C793E505020CC04147B1FB0C4093F5E0
:1039CC00F5FD0CC0A9B71C4093E707021CC0930778
:1039DC008007A302F404170600001306A65275BF55
:1039EC0013F8050408C3E30308FCC207C1837DBFB9
:1039FC00214731BF10401C434C48137806081385EF
:103A0C0047006306080008C39C438CC301A808C385
:103A1C00137606049C4375DA2390B7002328040020
:103A2C00B68A91B71C43504081459386470014C316
:103A3C0083AA070056857D3901C53305554148C019
:103A4C005C401CC8A301040439BF14485686CA85BF
:103A5C0026858299E30245F31C40898B8DE7B2479A
:103A6C004844E35CF5F03E8509BF85465686CA8519
:103A7C0026858299E30265F1050A5C443247998FE9
:103A8C00E345FAFEE9BF014A930A94017D5BF5B761
:103A9C00411122C42A842E85B285368623A0019436
:103AAC0006C6EFC0EFEFFD576316F50083A7019430
:0C3ABC0091C31CC0B24022444101828032
:103AC8005472617020696E20457863657074696FFF
:103AD8006E0D00004D43415553453A203078256C12
:103AE800780D0A004D45504320203A203078256C47
:103AF800780D0A004D5456414C203A203078256CF8
:103B0800780D0A005472617020696E20496E7465E0
:103B180072727570740D0000464C415348584950F4
:103B280000000000464C415348000000494C4D003D
:103B3800446F776E6C6F6164204D6F64653A202521
:103B4800730D0A00252E3278000000006369706842
:103B58006572746578743A002B7E151628AED2A665
:103B6800ABF7158809CF4F3C3243F6A8885A308DF9
:103B7800313198A2E037073454657374696E672051
:103B880041455331323800002A2A2A2A2A2A2A2A69
:103B98002A2A2A2A2A2A2A2A2A2A2A2A2A2A2A2A7D
:103BA8002A2A2A2A2A2A2A2A2A2A2A2A2A2A2A2A6D
:103BB8002A2A2A2A2A2A00002A2A20626567696E88
:103BC80020746F20657875206E6F726D616C20634C
:103BD800617365002A2A20626567696E20746F2008
:103BE800657875206E6963655F63617365000000C1
:103BF8002A2A20706572666F726D616E6365206C2B
:103C0800697374200000000009206E6F726D616C8A
:103C18003A20000009202020202020696E73747249
:103C280065743A2025752C206379636C653A2025E4
:103C380075200A0009206E69636520203A2000007B
:103C48002A2A2A2A2A2A2A2A2A2A2A2A2A2A2A2ACC
:103C58002A2A2A2A2A2A2A2A2A2A2A2A2A2A2A2ABC
:103C68002A2A2A2A2A2A2A2A2A2A2A2A2A2A0A00F6
:103C7800637C777BF26B6FC53001672BFED7AB7621
:103C8800CA82C97DFA5947F0ADD4A2AF9CA472C0CC
:103C9800B7FD9326363FF7CC34A5E5F171D8311539
:103CA80004C723C31896059A071280E2EB27B2755A
:103CB80009832C1A1B6E5AA0523BD6B329E32F84D2
:103CC80053D100ED20FCB15B6ACBBE394A4C58CFCA
:103CD800D0EFAAFB434D338545F9027F503C9FA89E
:103CE80051A3408F929D38F5BCB6DA2110FFF3D26C
:103CF800CD0C13EC5F974417C4A77E3D645D197320
:103D080060814FDC222A908846EEB814DE5E0BDB19
:103D1800E0323A0A4906245CC2D3AC629195E47950
:103D2800E7C8376D8DD54EA96C56F4EA657AAE08AA
:103D3800BA78252E1CA6B4C6E8DD741F4BBD8B8A45
:103D4800703EB5664803F60E613557B986C11D9EAB
:103D5800E1F8981169D98E949B1E87E9CE5528DF22
:103D68008CA1890DBFE6426841992D0FB054BB164E
:103D78008D01020408102040801B36000001020259
:103D880003030303040404040404040405050505EB
:103D980005050505050505050505050506060606C7
:103DA80006060606060606060606060606060606AB
:103DB8000606060606060606060606060707070797
:103DC800070707070707070707070707070707077B
:103DD800070707070707070707070707070707076B
:103DE800070707070707070707070707070707075B
:103DF8000707070707070707070707070808080847
:103E0800080808080808080808080808080808082A
:103E1800080808080808080808080808080808081A
:103E2800080808080808080808080808080808080A
:103E380008080808080808080808080808080808FA
:103E480008080808080808080808080808080808EA
:103E580008080808080808080808080808080808DA
:103E680008080808080808080808080808080808CA
:103E780008080808080808080808080800000000DA
:103E8800000000000000000000000000000000002A
:103E9800000000000000000000000000000000001A
:103EA800000000000000000000000000000000000A
:103EB80000000000000000000000000000000000FA
:103EC80000000000000000000000000000000000EA
:103ED800000000000000000000000000232D302B2F
:103EE80020000000686C4C00656667454647000086
:103EF8003031323334353637383941424344454618
:103F080000000000303132333435363738396162D9
:103F1800636465660000000072F9FFFF88F9FFFF1F
:103F280048F9FFFF48F9FFFF48F9FFFF48F9FFFF8D
:103F380088F9FFFF48F9FFFF48F9FFFF48F9FFFF3D
:103F480048F9FFFFE0FAFFFFC6F9FFFFB2FAFFFFEB
:103F580048F9FFFF48F9FFFF10FBFFFF48F9FFFF93
:103F6800C6F9FFFF48F9FFFF48F9FFFFBAFAFFFF5C
:103F780000000000A43E0080C43E0080843E008013
:103F88000000000000000000000000000000000029
:103F98000000000000000000000000000000000019
:103FA8000000000000000000000000000000000009
:103FB80000000000000000000000000000000000F9
:103FC80000000000000000000000000000000000E9
:103FD800A801009000B4C404000000900000009004
:040000058000000077
:00000001FF
